:020000040800F2
:1000000000000120FD0200084D0300084D03000818
:100010004D0300084D0300084D03000800000000D8
:100020000000000000000000000000004D03000878
:100030004D030008000000004D030008A50600085D
:10004000000000004D0300084D0300084D030008A8
:100050004D0300084D030008510300087503000814
:1000600099030008BD030008E10300084D030008E0
:100070004D0300084D0300084D0300084D03000820
:100080004D0300084D0300084D0300080000000068
:10009000000000000000000000000000050400084F
:1000A0004D0300084D0300084D0300084D030008F0
:1000B0004D0300084D0300084D0300084D030008E0
:1000C0004D0300084D0300084D03000871050008AA
:1000D000CD050008D10600084D030008000000000F
:1000E000AD0400084D0300084D03000800000000A7
:1000F0000000000000000000000000004D030008A8
:10010000000000004D0300084D0300082906000808
:1001100000000000000000000000000000000000DF
:100120004D0300084D0300084D0300084D0300086F
:100130004D03000800000000000000000000000067
:100140000000000000000000000000004D03000857
:100150004D0300084D0300084D0300084D0300083F
:100160004D0300084D0300080000000000000000DF
:10017000000000000000000000000000000000007F
:10018000000000000000000000000000000000006F
:040190004D03000813
:1001940010B5054C237833B9044B13B10448AFF3BD
:1001A40000800123237010BD000000200000000027
:1001B400A40C000808B5034B1BB103490348AFF373
:1001C400008008BD0000000004000020A40C00080A
:1001D40080B400AF0B4B1B6B0A4A43F0010313635B
:1001E400084B1B6B074A43F002031363054B5B6C1C
:1001F400044A43F48043536400BFBD465DF8047B66
:10020400704700BF0038024080B582B000AF38713B
:100214003B7903F00203DBB2002B09D0002206492C
:10022400064800F077FB00220349044800F032FB43
:1002340000BF0837BD4680BD1C00002000100140EF
:1002440080B588B000AF284B1B68274A43F480333D
:10025400136000BF244B1B6803F40033002BF9D058
:10026400214B9B68204A23F0030393601E4B9B6839
:100274001D4A43F00103936000BF1B4B9B6803F0CE
:100284000C03042BF9D1FFF7A3FF00233B820123C6
:100294007B8200233B8300237B830023BB8307F102
:1002A40010031946114800F0B3FB012200210F4846
:1002B40000F0ADFC0C233B7000237B700023BB706B
:1002C4000023FB704FF416537B6000233B72002322
:1002D4007B72A023BB72064BFB603B461946054864
:1002E40000F022FA00BFFDE700380240000002409F
:1002F4000D020008001001400D488546AFF3008050
:100304000C480D490D4A002302E0D458C45004336C
:10031400C4188C42F9D30A4A0A4C002301E0136042
:100324000432A242FBD300F097FCFFF789FFFEE7FB
:10033400000001200000002000000020C40C000880
:100344000000002078000020FEE7000080B500AF28
:10035400054B5B69044A43F001035361034B1B687B
:10036400984700BF80BD00BF003C01402000002032
:1003740080B500AF054B5B69044A43F00203536147
:10038400034B5B68984700BF80BD00BF003C014041
:100394002000002080B500AF054B5B69044A43F0A0
:1003A40004035361034B9B68984700BF80BD00BFA3
:1003B400003C01402000002080B500AF054B5B6984
:1003C400044A43F008035361034BDB68984700BFBA
:1003D40080BD00BF003C01402000002080B500AF7C
:1003E400054B5B69044A43F010035361034B1B69DB
:1003F400984700BF80BD00BF003C014020000020A2
:1004040080B500AF264B5B6903F02003002B08D0B6
:10041400234B5B69224A43F020035361214B5B6900
:1004240098471F4B5B6903F04003002B08D01C4B1B
:100434005B691B4A43F0400353611A4B9B6998471D
:10044400174B5B6903F08003002B08D0144B5B69E6
:10045400134A43F080035361124BDB699847104BF6
:100464005B6903F48073002B08D00D4B5B690C4A65
:1004740043F4807353610B4B1B6A9847084B5B69C9
:1004840003F40073002B08D0054B5B69044A43F462
:1004940000735361034B5B6A984700BF80BD00BF84
:1004A400003C01402000002080B500AF2D4B5B696B
:1004B40003F48063002B08D02A4B5B69294A43F478
:1004C40080635361284B9B6A9847264B5B6903F40E
:1004D4000063002B08D0234B5B69224A43F400637A
:1004E4005361214BDB6A98471E4B5B6903F48053CD
:1004F400002B08D01B4B5B691A4A43F480535361A9
:10050400194B1B6B9847174B5B6903F40053002B83
:1005140008D0144B5B69134A43F400535361124BE4
:100524005B6B98470F4B5B6903F48043002B08D047
:100534000C4B5B690B4A43F4804353610A4B9B6B3E
:100544009847084B5B6903F40043002B08D0054B24
:100554005B69044A43F400435361034BDB6B9847E4
:1005640000BF80BD003C01402000002080B582B067
:1005740000AF134B9B685B0803F00103DAB23B79CD
:1005840062F300033B710E4B9B6803F00103DAB284
:100594003B7962F341033B71094B9B681B0903F0F0
:1005A4000103DAB23B7962F382033B71054B1B68AA
:1005B4005B693879984700BF0837BD4680BD00BFE6
:1005C400003001406000002080B582B000AF134BC2
:1005D4009B685B0803F00103DAB23B7962F3000322
:1005E4003B710E4B9B6803F00103DAB23B7962F373
:1005F40041033B71094B9B681B0903F00103DAB209
:100604003B7962F382033B71054B5B685B69387924
:10061400984700BF0837BD4680BD00BF0038004082
:100624006000002080B582B000AF134B9B685B086C
:1006340003F00103DAB23B7962F300033B710E4B22
:100644009B6803F00103DAB23B7962F341033B7127
:10065400094B9B681B0903F00103DAB23B7962F38F
:1006640082033B71054B9B685B693879984700BFEF
:100674000837BD4680BD00BF003C0040600000203C
:1006840080B400AF054B1B68044A23F001031360D8
:1006940000BFBD465DF8047B704700BF10E000E07A
:1006A40080B500AF074B1B68002B02D0054B1B68BD
:1006B4009847054B1B78012B01D1FFF7E1FF00BFE1
:1006C40080BD00BF6C0000207000002080B582B0A7
:1006D40000AF134B1B68DB0903F00103DAB23B796B
:1006E40062F300033B710E4B1B685B0903F00103CB
:1006F400DAB23B7962F341033B71094B1B689B09F6
:1007040003F00103DAB23B7962F382033B71054BD8
:100714001B68DB683879984700BF0837BD4680BD41
:10072400001001407400002080B582B000AF7860F2
:100734003960514A3B6813607B68504A934209D13F
:100744004F4B5B6C4E4A43F0100353644B4800F02C
:100754002BF91AE07B684B4A934209D1484B1B6C36
:10076400474A43F400331364464800F01DF90CE093
:100774007B68454A934208D1414B5B6C404A43F045
:1007840020035364404800F00FF97B680022DA60CC
:100794007B6800221A617B6800225A617B68DB68EF
:1007A40043F400527B68DA607B68DB683A6812784D
:1007B4001A437B68DA607B68DB683A6852781A43CC
:1007C4007B68DA607B68DB683A6892781A437B68F6
:1007D400DA607B681B693A68D2781A437B681A61CD
:1007E4007B689B6843F4226343F00C037A6893604C
:1007F4007B68DB683A68127A1A437B68DA607B6844
:100804005B693A68527A1A437B685A613B689B7AFF
:10081400002B27D07B68DB683A68927A1A437B689E
:10082400DA607B68154A934206D1184B1B68174A55
:1008340043F0200313601BE07B68124A934206D105
:10084400124B1B68114A43F04003136010E07B68AD
:100854000D4A93420CD10E4B1B680D4A43F08003A2
:10086400136005E07B68DB6823F4F0727B68DA6070
:1008740000BF0837BD4680BD740000200010014051
:1008840000380240004400400014014004E100E04C
:1008940008E100E080B485B000AFF860B9601346A9
:1008A400FB71FB79012B17D100BFFB681B6803F0B8
:1008B4008003002BF9D0164B1B685B78002B05D105
:1008C400BB681B781A46FB685A601BE0BB681B7840
:1008D4001A46FB685A6015E00D4B1B685B78002BC9
:1008E40005D1BB681B781A46FB685A6004E0BB68F4
:1008F4001B781A46FB685A60FB68DB6843F0800289
:10090400FB68DA6000BF1437BD465DF8047B7047AE
:100914007400002080B485B000AFF860B96013465D
:10092400FB71FB79012B1FD100BFFB681B6803F02F
:100934002003002BF9D01B4B1B689B78002B0AD19A
:10094400FB685B68DAB2BB681A70FB685B68DAB292
:10095400BB681A7020E0FB685B68DBB203F07F03BE
:10096400DAB2BB681A7017E00E4B1B689B78002B39
:100974000AD1FB685B68DAB2BB681A70FB685B6813
:10098400DAB2BB681A7007E0FB685B68DBB203F09D
:100994007F03DAB2BB681A7000BF1437BD465DF836
:1009A400047B70477400002080B586B000AF786087
:1009B4007B68154A934223D109233B8102237B811F
:1009C4000723FB6007F108031946104800F020F8DC
:1009D4000A233B8102237B810723FB6007F1080381
:1009E40019460A4800F014F808233B8102237B814E
:1009F4000723FB6007F108031946044800F008F8D0
:100A040000BF1837BD4680BD001001400000024001
:100A140080B485B000AF786039603B681B88FB60A8
:100A24007B681B68FA685200032101FA02F2D24380
:100A34001A407B681A607B685B680121FA6801FAD6
:100A440002F2D2431A407B685A607B689B68FA685A
:100A54005200032101FA02F2D2431A407B689A60E1
:100A64007B68DB68FA685200032101FA02F2D24380
:100A74001A407B68DA603B685B88032B00F09C803B
:100A8400032B00F3B080012B02D0022B2ED0AAE05E
:100A94007B681B68FA685200012101FA02F21A43CA
:100AA4007B681A607B685B683A6812891146FA6849
:100AB40001FA02F21A437B685A607B689B683A68C1
:100AC40092891146FA68520001FA02F21A437B68CD
:100AD4009A607B68DB683A6852891146FA6852006A
:100AE40001FA02F21A437B68DA608AE07B681B68C9
:100AF400FA685200022101FA02F21A437B681A6072
:100B04007B685B683A6812891146FA6801FA02F256
:100B14001A437B685A607B689B683A6892891146DD
:100B2400FA68520001FA02F21A437B689A607B6801
:100B3400DB683A6852891146FA68520001FA02F2F7
:100B44001A437B68DA60FB68072B16D87B681B6A3C
:100B5400FA6892000F2101FA02F2D2431A407B682C
:100B64001A627B681A6A3B685968FB689B0001FA41
:100B740003F31A437B681A6242E0FB68072B3FD9F0
:100B8400FB680F2B3CD87B685B6AFA68083A9200D2
:100B94000F2101FA02F2D2431A407B685A627B6841
:100BA4005A6A3B685968FB68083B9B0001FA03F3E7
:100BB4001A437B685A6223E07B681B68FA68520018
:100BC400032101FA02F21A437B681A607B68DB682E
:100BD4003A6852891146FA68520001FA02F21A433D
:100BE4007B68DA600DE07B68DB683A6852891146FD
:100BF400FA68520001FA02F21A437B68DA6000E0F4
:100C040000BF00BF1437BD465DF8047B704780B455
:100C140083B000AF78600B467B8013463B803B88F3
:100C2400012B09D17B685B697A88012101FA02F200
:100C34001A437B685A6109E07B685B697A88012101
:100C440001FA02F2D2431A407B685A6100BF0C37A2
:100C5400BD465DF8047B704770B50D4D0D4C641BAB
:100C6400A4100026A64209D10B4D0C4C00F018F834
:100C7400641BA4100026A64205D170BD55F8043BA0
:100C840098470136EEE755F8043B98470136F2E7FA
:100C9400BC0C0008BC0C0008BC0C0008C00C00080C
:100CA400F8B500BFF8BC08BC9E467047F8B500BF55
:080CB400F8BC08BC9E46704725
:040CBC00B901000872
:040CC0009501000892
:04000005080002FDF0
:00000001FF
