:020000040800F2
:100000000000012099020008E9020008E902000846
:10001000E9020008E9020008E90200080000000007
:10002000000000000000000000000000E9020008DD
:10003000E902000800000000E90200083908000891
:1000400000000000E9020008E9020008E9020008D7
:10005000E9020008E90200080D0500083105000862
:1000600055050008790500089D050008E90200080B
:10007000E9020008E9020008E9020008E9020008B4
:10008000E9020008E9020008E90200080000000097
:10009000000000000000000000000000C105000892
:1000A000E9020008E9020008E9020008E902000884
:1000B000E9020008E9020008E9020008E902000874
:1000C000E9020008E9020008E9020008E902000864
:1000D000E9020008E9020008E90200080000000047
:1000E00069060008E9020008E902000800000000B3
:1000F000000000000000000000000000E90200080D
:1001000000000000E9020008E9020008E902000816
:1001100000000000000000000000000000000000DF
:10012000E9020008E9020008E9020008E902000803
:10013000E9020008000000000000000000000000CC
:10014000000000000000000000000000E9020008BC
:10015000E9020008E9020008E9020008E9020008D3
:10016000E9020008E90200080000000000000000A9
:10017000000000000000000000000000000000007F
:10018000000000000000000000000000000000006F
:04019000E902000878
:1001940010B5054C237833B9044B13B10448AFF3BD
:1001A40000800123237010BD08000020000000001F
:1001B400F40A000808B5034B1BB103490348AFF325
:1001C400008008BD000000000C000020F40A0008B4
:1001D40080B400AF0B4B1B6B0A4A43F0010313635B
:1001E400084B1B6B074A43F002031363054B5B6C1C
:1001F400044A43F48043536400BFBD465DF8047B66
:10020400704700BF0038024080B582B000AF1E4B7B
:100214001B681D4A43F48033136000BF1A4B1B68EC
:1002240003F40033002BF9D0174B9B68164A23F0D4
:1002340003039360144B9B68134A43F001039360D8
:1002440000BF114B9B6803F00C03042BF9D1FFF79B
:10025400BFFF00233B710123BB7102237B713B1D54
:100264000A4A0A49094800F095F83B1D074A07491C
:10027400064800F038F83B1D4FF4FA72044918465A
:1002840000F04CF800BFFDE70038024000000240D7
:10029400000000200D488546AFF300800C480D494E
:1002A4000D4A002302E0D458C4500433C4188C42CD
:1002B400F9D30A4A0A4C002301E013600432A24233
:1002C400FBD300F0F1FBFFF79FFFFEE700000120E6
:1002D4000000002008000020140B00080800002083
:1002E4007C000020FEE780B586B000AFF860B960FE
:1002F4007A603B603B687A68B968F86800F04AF84D
:1003040000233B7500237B7507F11403184600F0A6
:100314000BFA00BF1837BD4680BD000080B586B01B
:1003240000AFF860B9607A6000237B6127E00023A6
:10033400FB741CE0FB7CBA6813441B781B0219464F
:10034400F86800F07BF8FB7CBA6813441B781A0247
:10035400FB7C012101FA03F313431946F86800F00A
:100364006DF8022000F042FAFB7C0133FB74084B69
:100374001B78FA7C9A42DDD37B6901337B617A690D
:100384007B689A42D3D300BF00BF1837BD4680BDF7
:100394002400002080B590B000AFF860B9607A60A6
:1003A4003B60234AFB681360224ABB681360224AFD
:1003B4007B6813603B681B783B8601237B860023A4
:1003C4003B870023BB8700237B873B685B783B84A8
:1003D40001237B8400233B850023BB8500237B858D
:1003E4003B689B783B8201237B8200233B83002371
:1003F400BB8300237B830E4B1B6807F1300211463D
:10040400184600F02DFA0B4B1B6807F12002114629
:10041400184600F025FA084B1B6807F11002114634
:10042400184600F01DFA00BF4037BD4680BD00BF2E
:10043400280000202C0000203000002080B584B06B
:1004440000AF786039600023FB7315E00F4B186828
:100454007B685B781946FB7B3A6822FA03F39BB20C
:1004640003F001039BB21A4600F0F9FA786800F031
:100474000FF8FB7B0133FB73FB7B0F2BE6D978680A
:1004840000F024F800BF1037BD4680BD2C000020CA
:1004940080B582B000AF78600B4B18687B685B78DE
:1004A4000122194600F0DBFA012000F09FF9064B07
:1004B40018687B685B780022194600F0D0FA00BF08
:1004C4000837BD4680BD00BF2C00002080B582B037
:1004D40000AF78600B4B18687B689B780122194643
:1004E40000F0BDFA012000F081F9064B18687B6822
:1004F4009B780022194600F0B2FA00BF0837BD46C7
:1005040080BD00BF3000002080B500AF054B5B69A3
:10051400044A43F001035361034B1B68984700BF2F
:1005240080BD00BF003C01403400002080B500AF16
:10053400054B5B69044A43F002035361034B5B6858
:10054400984700BF80BD00BF003C0140340000203C
:1005540080B500AF054B5B69044A43F00403536163
:10056400034B9B68984700BF80BD00BF003C01401F
:100574003400002080B500AF054B5B69044A43F0AA
:1005840008035361034BDB68984700BF80BD00BF7D
:10059400003C01403400002080B500AF054B5B698E
:1005A400044A43F010035361034B1B69984700BF8F
:1005B40080BD00BF003C01403400002080B500AF86
:1005C400264B5B6903F02003002B08D0234B5B69A7
:1005D400224A43F020035361214B5B6998471F4B28
:1005E4005B6903F04003002B08D01C4B5B691B4A7A
:1005F40043F0400353611A4B9B699847174B5B695F
:1006040003F08003002B08D0144B5B69134A43F0BA
:1006140080035361124BDB699847104B5B6903F409
:100624008073002B08D00D4B5B690C4A43F4807334
:1006340053610B4B1B6A9847084B5B6903F40073C7
:10064400002B08D0054B5B69044A43F400735361E3
:10065400034B5B6A984700BF80BD00BF003C01406C
:100664003400002080B500AF2D4B5B6903F4806338
:10067400002B08D02A4B5B69294A43F480635361F9
:10068400284B9B6A9847264B5B6903F40063002B55
:1006940008D0234B5B69224A43F400635361214B26
:1006A400DB6A98471E4B5B6903F48053002B08D028
:1006B4001B4B5B691A4A43F480535361194B1B6B00
:1006C4009847174B5B6903F40053002B08D0144B75
:1006D4005B69134A43F400535361124B5B6B9847B5
:1006E4000F4B5B6903F48043002B08D00C4B5B6910
:1006F4000B4A43F4804353610A4B9B6B9847084B66
:100704005B6903F40043002B08D0054B5B69044A82
:1007140043F400435361034BDB6B984700BF80BD38
:10072400003C01403400002080B483B000AF786006
:10073400184B1B68174A23F0010313607B681B786E
:10074400012B06D1134B1B68124A43F002031360BA
:1007540005E0104B1B680F4A23F0020313607B680B
:100764005B78012B06D10B4B1B680A4A43F0040348
:10077400136009E07B685B78002B05D1054B1B688F
:10078400044A23F00403136000BF0C37BD465DF830
:10079400047B704710E000E080B483B000AF786061
:1007A400094A7B68013B5360074B00229A60064B61
:1007B4001B68054A43F00103136000BF0C37BD46B4
:1007C4005DF8047B704700BF10E000E080B400AF28
:1007D400054B1B68044A23F00103136000BFBD46A8
:1007E4005DF8047B704700BF10E000E080B584B082
:1007F40000AF78607B68FB600D4B00229A60FB6859
:10080400002B10D0FB686FF07F4293420BD2F86844
:10081400FFF7C2FF00BF064B1B6803F48033002BB5
:10082400F9D0FFF7D3FF00BF1037BD4680BD00BF2E
:1008340010E000E080B500AF074B1B68002B02D02E
:10084400054B1B689847054B1B78012B01D1FFF71B
:10085400BDFF00BF80BD00BF7400002078000020F1
:1008640080B485B000AF786039603B681B88FB605A
:100874007B681B68FA685200032101FA02F2D24332
:100884001A407B681A607B685B680121FA6801FA88
:1008940002F2D2431A407B685A607B689B68FA680C
:1008A4005200032101FA02F2D2431A407B689A6093
:1008B4007B68DB68FA685200032101FA02F2D24332
:1008C4001A407B68DA603B685B88032B00F09C80ED
:1008D400032B00F3B080012B02D0022B2ED0AAE010
:1008E4007B681B68FA685200012101FA02F21A437C
:1008F4007B681A607B685B683A6812891146FA68FB
:1009040001FA02F21A437B685A607B689B683A6872
:1009140092891146FA68520001FA02F21A437B687E
:100924009A607B68DB683A6852891146FA6852001B
:1009340001FA02F21A437B68DA608AE07B681B687A
:10094400FA685200022101FA02F21A437B681A6023
:100954007B685B683A6812891146FA6801FA02F208
:100964001A437B685A607B689B683A68928911468F
:10097400FA68520001FA02F21A437B689A607B68B3
:10098400DB683A6852891146FA68520001FA02F2A9
:100994001A437B68DA60FB68072B16D87B681B6AEE
:1009A400FA6892000F2101FA02F2D2431A407B68DE
:1009B4001A627B681A6A3B685968FB689B0001FAF3
:1009C40003F31A437B681A6242E0FB68072B3FD9A2
:1009D400FB680F2B3CD87B685B6AFA68083A920084
:1009E4000F2101FA02F2D2431A407B685A627B68F3
:1009F4005A6A3B685968FB68083B9B0001FA03F399
:100A04001A437B685A6223E07B681B68FA685200C9
:100A1400032101FA02F21A437B681A607B68DB68DF
:100A24003A6852891146FA68520001FA02F21A43EE
:100A34007B68DA600DE07B68DB683A6852891146AE
:100A4400FA68520001FA02F21A437B68DA6000E0A5
:100A540000BF00BF1437BD465DF8047B704780B407
:100A640083B000AF78600B467B8013463B803B88A5
:100A7400012B09D17B685B697A88012101FA02F2B2
:100A84001A437B685A6109E07B685B697A880121B3
:100A940001FA02F2D2431A407B685A6100BF0C3754
:100AA400BD465DF8047B704770B50D4D0D4C641B5D
:100AB400A4100026A64209D10B4D0C4C00F018F8E6
:100AC400641BA4100026A64205D170BD55F8043B52
:100AD40098470136EEE755F8043B98470136F2E7AC
:100AE4000C0B00080C0B00080C0B0008100B000882
:100AF400F8B500BFF8BC08BC9E467047F8B500BF07
:080B0400F8BC08BC9E467047D6
:040B0C00B901000823
:040B10009501000843
:080B1400000203B1B90F060055
:040000050800029954
:00000001FF
