:020000040800F2
:10000000000001208D020008DD020008DD0200086A
:10001000DD020008DD020008DD020008000000002B
:10002000000000000000000000000000DD020008E9
:10003000DD02000800000000DD020008DD0200080B
:1000400000000000DD020008DD020008DD020008FB
:10005000DD020008DD0200087506000899060008A8
:10006000BD060008E106000805070008DD020008DB
:10007000DD020008DD020008DD020008DD020008E4
:10008000DD020008DD020008DD02000800000000BB
:100090000000000000000000000000002907000828
:1000A000DD020008DD020008DD020008DD020008B4
:1000B000DD020008DD020008DD020008DD020008A4
:1000C000DD020008DD020008DD020008DD02000894
:1000D000DD020008DD020008DD020008000000006B
:1000E000D1070008DD020008DD0200080000000062
:1000F000000000000000000000000000DD02000819
:1001000000000000DD020008DD020008DD0200083A
:1001100000000000000000000000000000000000DF
:10012000DD020008DD020008DD020008DD02000833
:10013000DD020008000000000000000000000000D8
:10014000000000000000000000000000DD020008C8
:10015000DD020008DD020008DD020008DD02000803
:10016000DD020008DD0200080000000000000000C1
:10017000000000000000000000000000000000007F
:10018000000000000000000000000000000000006F
:04019000DD02000884
:1001940010B5054C237833B9044B13B10448AFF3BD
:1001A40000800123237010BD000000200000000027
:1001B400F80A000808B5034B1BB103490348AFF321
:1001C400008008BD0000000004000020F80A0008B8
:1001D40080B400AF0B4B1B6B0A4A43F0010313635B
:1001E400084B1B6B074A43F002031363054B5B6C1C
:1001F400044A43F48043536400BFBD465DF8047B66
:10020400704700BF0038024080B584B000AF0023BF
:100214003B8001237B8000233B8100237B810023DF
:10022400BB813B461946054800F032FB00210348D8
:1002340000F026FC00BF1037BD4680BD0000024020
:1002440080B588B000AF0A4A07F10C0307CA83E8F7
:10025400070001233B7600237B76064BFB6107F105
:100264000C03184600F0F8F900BF2037BD4680BDE6
:10027400100B00080D02000880B500AFFFF7A8FFBF
:10028400FFF7DEFF00BFFDE70D488546AFF30080B2
:100294000C480D490D4A002302E0D458C4500433DD
:1002A400C4188C42F9D30A4A0A4C002301E01360B3
:1002B4000432A242FBD300F0F9FBFFF7DDFFFEE7B7
:1002C400000001200000002000000020240B000892
:1002D400000000205C000020FEE7000080B483B032
:1002E40000AF0346FB80FB880F2B54D801A252F8C1
:1002F40023F000BF39030008470300085503000832
:1003040063030008710300087F0300087F030008EB
:100314007F0300087F0300087F0300088D030008A3
:100324008D0300088D0300088D0300088D03000869
:100334008D0300081B4B1B681A4A43F040031360EB
:1003440029E0184B1B68174A43F08003136022E02E
:10035400144B1B68134A43F4807313601BE0114B66
:100364001B68104A43F40073136014E00D4B1B68C0
:100374000C4A43F4806313600DE00A4B1B68094A7E
:1003840043F40003136006E0074B1B68064A43F47A
:100394008073136000BF00BF0C37BD465DF8047B5B
:1003A400704700BF00E100E004E100E080B483B0E6
:1003B40000AF0346FB80FB880F2B54D801A252F8F0
:1003C40023F000BF090400081704000825040008EE
:1003D40033040008410400084F0400084F040008D7
:1003E4004F0400084F0400084F0400085D0400088F
:1003F4005D0400085D0400085D0400085D04000855
:100404005D0400081B4B1B681A4A43F04003136049
:1004140029E0184B1B68174A43F08003136022E05D
:10042400144B1B68134A43F4807313601BE0114B95
:100434001B68104A43F40073136014E00D4B1B68EF
:100444000C4A43F4806313600DE00A4B1B68094AAD
:1004540043F40003136006E0074B1B68064A43F4A9
:100464008073136000BF00BF0C37BD465DF8047B8A
:10047400704700BF80E100E084E100E080B588B00F
:1004840000AF78607B681B89BB810023FB8100235C
:10049400FB827B685B6807F10C021146184600F08A
:1004A400F7F97B681B889B089BB2FB777B681B88EA
:1004B400DBB203F00303DBB29B00BB775F4AFB7F35
:1004C400023352F82320BB7F0F2101FA03F3DB43ED
:1004D40018465A49FB7F0240023341F82320574A09
:1004E400FB7F023352F823207B685B6854498B42BC
:1004F40016D07B685B6853498B420FD07B685B687E
:1005040051498B4208D07B685B6850498B4201D1CA
:10051400032306E00F2304E0022302E0012300E0AA
:100524000023B97F8B4018464449FB7F02430233C2
:1005340041F82320464B9B687A68128811460122B1
:100544008A40D2431146424A0B409360404BDB68D9
:100554007A681288114601228A40D24311463C4AE5
:100564000B40D3607B685B7B002B0BD1384B9B68C3
:100574007A681288114601228A401146344A0B4394
:10058400936029E07B685B7B012B0BD1304BDB68EC
:100594007A681288114601228A4011462C4A0B437C
:1005A400D36019E07B685B7B022B15D1284B9B68D9
:1005B4007A681288114601228A401146244A0B4364
:1005C4009360234BDB687A681288114601228A40C3
:1005D40011461F4A0B43D3607B681B8819467B680E
:1005E4001B691C4A42F821307B681B7B012B10D10C
:1005F400174B1B687A681288114601228A401146FB
:10060400134A0B4313607B681B881846FFF766FE8A
:1006140010E00F4B1B687A681288114601228A4049
:10062400D24311460A4A0B4013607B681B88184664
:10063400FFF7BCFE00BF2037BD4680BD0038014037
:10064400000002400004024000080240000C024086
:10065400003C01401C00002080B582B000AF7860EF
:100664007868FFF70BFF00BF0837BD4680BD000068
:1006740080B500AF054B5B69044A43F00103536145
:10068400034B1B68984700BF80BD00BF003C01407E
:100694001C00002080B500AF054B5B69044A43F0A1
:1006A40002035361034B5B68984700BF80BD00BFE2
:1006B400003C01401C00002080B500AF054B5B6985
:1006C400044A43F004035361034B9B68984700BFFB
:1006D40080BD00BF003C01401C00002080B500AF7D
:1006E400054B5B69044A43F008035361034BDB6821
:1006F400984700BF80BD00BF003C01401C000020A3
:1007040080B500AF054B5B69044A43F010035361A5
:10071400034B1B69984700BF80BD00BF003C0140EC
:100724001C00002080B500AF264B5B6903F020035A
:10073400002B08D0234B5B69224A43F0200353610A
:10074400214B5B6998471F4B5B6903F04003002B07
:1007540008D01C4B5B691B4A43F0400353611A4B9E
:100764009B699847174B5B6903F08003002B08D003
:10077400144B5B69134A43F080035361124BDB69EA
:100784009847104B5B6903F48073002B08D00D4B22
:100794005B690C4A43F4807353610B4B1B6A9847A3
:1007A400084B5B6903F40073002B08D0054B5B69AD
:1007B400044A43F400735361034B5B6A984700BFD8
:1007C40080BD00BF003C01401C00002080B500AF8C
:1007D4002D4B5B6903F48063002B08D02A4B5B69C3
:1007E400294A43F480635361284B9B6A9847264BFC
:1007F4005B6903F40063002B08D0234B5B69224A36
:1008040043F400635361214BDB6A98471E4B5B69D9
:1008140003F48053002B08D01B4B5B691A4A43F442
:1008240080535361194B1B6B9847174B5B6903F457
:100834000053002B08D0144B5B69134A43F4005354
:100844005361124B5B6B98470F4B5B6903F4804316
:10085400002B08D00C4B5B690B4A43F48043536173
:100864000A4B9B6B9847084B5B6903F40043002BCE
:1008740008D0054B5B69044A43F400435361034BBE
:10088400DB6B984700BF80BD003C01401C0000208A
:1008940080B485B000AF786039603B681B88FB602A
:1008A4007B681B68FA685200032101FA02F2D24302
:1008B4001A407B681A607B685B680121FA6801FA58
:1008C40002F2D2431A407B685A607B689B68FA68DC
:1008D4005200032101FA02F2D2431A407B689A6063
:1008E4007B68DB68FA685200032101FA02F2D24302
:1008F4001A407B68DA603B685B88032B00F09680C3
:10090400032B00F3AA80012B02D0022B2ED0A4E0EB
:100914007B681B68FA685200012101FA02F21A434B
:100924007B681A607B685B683A6812891146FA68CA
:1009340001FA02F21A437B685A607B689B683A6842
:1009440092891146FA68520001FA02F21A437B684E
:100954009A607B68DB683A6852891146FA685200EB
:1009640001FA02F21A437B68DA6083E07B681B6851
:10097400FA685200022101FA02F21A437B681A60F3
:100984007B685B683A6812891146FA6801FA02F2D8
:100994001A437B685A607B689B683A68928911465F
:1009A400FA68520001FA02F21A437B689A607B6883
:1009B400DB683A6852891146FA68520001FA02F279
:1009C4001A437B68DA60FB68072B16D87B681B6ABE
:1009D400FA6892000F2101FA02F2D2431A407B68AE
:1009E4001A627B681A6A3B685968FB689B0001FAC3
:1009F40003F31A437B681A623CE07B685B6CFA6819
:100A0400083A92000F2101FA02F2D2431A407B689D
:100A14005A647B685A6C3B685968FB68083B9B00C6
:100A240001FA03F31A437B685A6423E07B681B686A
:100A3400FA685200032101FA02F21A437B681A6031
:100A44007B68DB683A6852891146FA68520001FAF9
:100A540002F21A437B68DA600CE07B68DB683A6870
:100A640052891146FA68520001FA02F21A437B686D
:100A7400DA6000BF00BF1437BD465DF8047B7047E1
:100A840080B483B000AF78600B467B807B685B6981
:100A94007A88012101FA02F25A407B685A6100BF48
:100AA4000C37BD465DF8047B7047000070B50D4DF2
:100AB4000D4C641BA4100026A64209D10B4D0C4C0E
:100AC40000F018F8641BA4100026A64205D170BDDE
:100AD40055F8043B98470136EEE755F8043B984730
:100AE4000136F2E71C0B00081C0B00081C0B000865
:100AF400200B0008F8B500BFF8BC08BC9E46704740
:0C0B0400F8B500BFF8BC08BC9E46704766
:0C0B10000700000000040240070017006E
:040B1C00B901000813
:040B20009501000833
:040000050800028D60
:00000001FF
