:020000040800F2
:1000000000000120D503000825040008250400088D
:10001000250400082504000825040008000000004D
:10002000000000000000000000000000250400089F
:1000300025040008000000002504000859090008F4
:10004000000000002504000825040008250400081D
:1000500025040008250400082506000849060008B4
:100060006D06000891060008B50600082504000882
:1000700025040008250400082504000825040008BC
:1000800025040008250400082504000800000000DD
:10009000000000000000000000000000D906000879
:1000A000250400082504000825040008250400088C
:1000B000250400082504000825040008250400087C
:1000C000250400082504000825040008250400086C
:1000D000250400082504000825040008000000008D
:1000E000810700082504000825040008000000001E
:1000F00000000000000000000000000025040008CF
:10010000000000002504000825040008250400085C
:1001100000000000000000000000000000000000DF
:10012000250400082504000825040008250400080B
:10013000250400080000000000000000000000008E
:10014000000000000000000000000000250400087E
:1001500025040008250400082504000825040008DB
:10016000250400082504000800000000000000002D
:10017000000000000000000000000000000000007F
:10018000000000000000000000000000000000006F
:04019000250400083A
:1001940010B5054C237833B9044B13B10448AFF3BD
:1001A40000800123237010BD08000020000000001F
:1001B400180C000808B5034B1BB103490348AFF3FF
:1001C400008008BD000000000C000020180C00088E
:1001D40080B400AF0B4B1B6B0A4A43F0010313635B
:1001E400084B1B6B074A43F002031363054B5B6C1C
:1001F400044A43F48043536400BFBD465DF8047B66
:10020400704700BF0038024080B5C2B002AF6C4BEB
:100214001B686B4A43F48033136000BF684B1B6850
:1002240003F40033002BF9D0654B9B68644A23F038
:1002340003039360624B9B68614A43F0010393603C
:1002440000BF5F4B9B6803F00C03042BF9D1FFF74D
:10025400BFFF07F1800380220021184600F0ADFCA7
:100264000123A7F882300123A7F890300123A7F8CF
:1002740092300223A7F8A0300123A7F8A230032369
:10028400A7F8B0300123A7F8B2300423A7F8C03090
:100294000123A7F8C2300523A7F8D0300123A7F81B
:1002A400D2300623A7F8E0300123A7F8E230072371
:1002B400A7F8F0300123A7F8F23007F58073A3F50F
:1002C4008073184680231A46002100F076FC07F557
:1002D4008073A3F5807301225A8007F58073A3F518
:1002E400807301221A8207F58073A3F580730122BB
:1002F4005A8207F58073A3F5807302221A8407F5E6
:100304008073A3F5807301225A8407F58073A3F5E3
:10031400807303221A8607F58073A3F58073012284
:100324005A8607F58073A3F580730422A3F840204E
:1003340007F58073A3F580730122A3F8422007F523
:100344008073A3F580730522A3F8502007F580730A
:10035400A3F580730122A3F8522007F58073A3F557
:1003640080730622A3F8602007F58073A3F58073D9
:100374000122A3F8622007F58073A3F58073072296
:10038400A3F8702007F58073A3F580730122A3F806
:10039400722007F18002082301933B46009308234F
:1003A4000849094800F03EF84FF4FA71074800F094
:1003B40095F84FF4FA71054800F090F8F9E700BF9A
:1003C4000038024000040240000002400000002007
:1003D4000D488546AFF300800C480D490D4A0023B3
:1003E40002E0D458C4500433C4188C42F9D30A4AE6
:1003F4000A4C002301E013600432A242FBD300F054
:10040400E5FBFFF701FFFEE70000012000000020EC
:1004140008000020380C000808000020800000209C
:10042400FEE7000080B586B000AFF860B9607A607E
:10043400FB70244AFB681360234ABB681360234A99
:100444007B681360224A3B6A1360224AFB7813706C
:10045400214A97F8243013700023FB750BE0194BE5
:100464001868FB7D1B017A681344194600F088FA6A
:10047400FB7D0133FB75174B1B78FA7D9A42EED353
:100484000023BB750BE0104B1868BB7D1B013A6A57
:100494001344194600F074FABB7D0133BB750E4B4F
:1004A4001B78BA7D9A42EED300233B7500237B75FB
:1004B40007F11403184600F0C3F900BF1837BD460E
:1004C40080BD00BF24000020280000202C00002054
:1004D40030000020340000203500002080B584B0B6
:1004E40000AF786039600023FB601DE00023FB72DD
:1004F40012E0FB7A7A6813441B78184600F03CF843
:10050400FB7A184600F01CF8022000F0FBF900F01A
:1005140061F8FB7A0133FB72084B1B78FA7A9A4232
:10052400E7D3FB680133FB60FA683B689A42DDD38A
:1005340000BF00BF1037BD4680BD00BF350000209E
:1005440080B582B000AF0346FB71084B1868084BB6
:100554001A68084B1B781B0113441B880022194698
:1005640000F006FB00BF0837BD4680BD2800002010
:10057400300000203500002080B584B000AF034671
:10058400FB710023FB7315E00F4B18680F4B1A68BF
:10059400FB7B1B0113441988FA79FB7B42FA03F3B2
:1005A4009BB203F001039BB21A4600F0E1FAFB7B15
:1005B4000133FB73064B1B78FA7B9A42E4D300BFEA
:1005C40000BF1037BD4680BD240000202C00002051
:1005D4003400002080B582B000AF0023FB710EE030
:1005E4000C4B18680C4B1A68FB791B0113441B88CD
:1005F4000122194600F0BCFAFB790133FB71074B69
:100604001B78FA799A42EBD300BF00BF0837BD4686
:1006140080BD00BF280000203000002035000020ED
:1006240080B500AF054B5B69044A43F00103536195
:10063400034B1B68984700BF80BD00BF003C0140CE
:100644003800002080B500AF054B5B69044A43F0D5
:1006540002035361034B5B68984700BF80BD00BF32
:10066400003C01403800002080B500AF054B5B69B9
:10067400044A43F004035361034B9B68984700BF4B
:1006840080BD00BF003C01403800002080B500AFB1
:10069400054B5B69044A43F008035361034BDB6871
:1006A400984700BF80BD00BF003C014038000020D7
:1006B40080B500AF054B5B69044A43F010035361F6
:1006C400034B1B69984700BF80BD00BF003C01403D
:1006D4003800002080B500AF264B5B6903F020038F
:1006E400002B08D0234B5B69224A43F0200353615B
:1006F400214B5B6998471F4B5B6903F04003002B58
:1007040008D01C4B5B691B4A43F0400353611A4BEE
:100714009B699847174B5B6903F08003002B08D053
:10072400144B5B69134A43F080035361124BDB693A
:100734009847104B5B6903F48073002B08D00D4B72
:100744005B690C4A43F4807353610B4B1B6A9847F3
:10075400084B5B6903F40073002B08D0054B5B69FD
:10076400044A43F400735361034B5B6A984700BF28
:1007740080BD00BF003C01403800002080B500AFC0
:100784002D4B5B6903F48063002B08D02A4B5B6913
:10079400294A43F480635361284B9B6A9847264B4C
:1007A4005B6903F40063002B08D0234B5B69224A86
:1007B40043F400635361214BDB6A98471E4B5B692A
:1007C40003F48053002B08D01B4B5B691A4A43F493
:1007D40080535361194B1B6B9847174B5B6903F4A8
:1007E4000053002B08D0144B5B69134A43F40053A5
:1007F4005361124B5B6B98470F4B5B6903F4804367
:10080400002B08D00C4B5B690B4A43F480435361C3
:100814000A4B9B6B9847084B5B6903F40043002B1E
:1008240008D0054B5B69044A43F400435361034B0E
:10083400DB6B984700BF80BD003C014038000020BE
:1008440080B483B000AF7860184B1B68174A23F05C
:10085400010313607B681B78012B06D1134B1B68C3
:10086400124A43F00203136005E0104B1B680F4A61
:1008740023F0020313607B685B78012B06D10B4BDA
:100884001B680A4A43F00403136009E07B685B7841
:10089400002B05D1054B1B68044A23F004031360A5
:1008A40000BF0C37BD465DF8047B704710E000E0E4
:1008B40080B483B000AF7860094A7B68013B536021
:1008C400074B00229A60064B1B68054A43F001035C
:1008D400136000BF0C37BD465DF8047B704700BF52
:1008E40010E000E080B400AF054B1B68044A23F01D
:1008F4000103136000BFBD465DF8047B704700BF71
:1009040010E000E080B584B000AF78607B6840F60A
:10091400354202FB03F3FB600D4B00229A60FB6837
:10092400002B10D0FB686FF07F4293420BD2F86823
:10093400FFF7BEFF00BF064B1B6803F48033002B98
:10094400F9D0FFF7CFFF00BF1037BD4680BD00BF11
:1009540010E000E080B500AF074B1B68002B02D00D
:10096400054B1B689847054B1B78012B01D1FFF7FA
:10097400B9FF00BF80BD00BF780000207C000020CC
:1009840080B485B000AF786039603B681B88FB6039
:100994007B681B68FA685200032101FA02F2D24311
:1009A4001A407B681A607B685B680121FA6801FA67
:1009B40002F2D2431A407B685A607B689B68FA68EB
:1009C4005200032101FA02F2D2431A407B689A6072
:1009D4007B68DB68FA685200032101FA02F2D24311
:1009E4001A407B68DA603B685B88032B00F09680D2
:1009F400032B00F3AA80012B02D0022B2ED0A4E0FB
:100A04007B681B68FA685200012101FA02F21A435A
:100A14007B681A607B685B683A6812891146FA68D9
:100A240001FA02F21A437B685A607B689B683A6851
:100A340092891146FA68520001FA02F21A437B685D
:100A44009A607B68DB683A6852891146FA685200FA
:100A540001FA02F21A437B68DA6083E07B681B6860
:100A6400FA685200022101FA02F21A437B681A6002
:100A74007B685B683A6812891146FA6801FA02F2E7
:100A84001A437B685A607B689B683A68928911466E
:100A9400FA68520001FA02F21A437B689A607B6892
:100AA400DB683A6852891146FA68520001FA02F288
:100AB4001A437B68DA60FB68072B16D87B681B6ACD
:100AC400FA6892000F2101FA02F2D2431A407B68BD
:100AD4001A627B681A6A3B685968FB689B0001FAD2
:100AE40003F31A437B681A623CE07B685B6CFA6828
:100AF400083A92000F2101FA02F2D2431A407B68AD
:100B04005A647B685A6C3B685968FB68083B9B00D5
:100B140001FA03F31A437B685A6423E07B681B6879
:100B2400FA685200032101FA02F21A437B681A6040
:100B34007B68DB683A6852891146FA68520001FA08
:100B440002F21A437B68DA600CE07B68DB683A687F
:100B540052891146FA68520001FA02F21A437B687C
:100B6400DA6000BF00BF1437BD465DF8047B7047F0
:100B740080B483B000AF78600B467B8013463B8023
:100B84003B88012B09D17B685B697A88012101FAD2
:100B940002F21A437B685A6109E07B685B697A88D0
:100BA400012101FA02F2D2431A407B685A6100BF64
:100BB4000C37BD465DF8047B7047024403469342FC
:100BC40000D1704703F8011BF9E7000070B50D4D23
:100BD4000D4C641BA4100026A64209D10B4D0C4CED
:100BE40000F018F8641BA4100026A64205D170BDBD
:100BF40055F8043B98470136EEE755F8043B98470F
:100C04000136F2E7300C0008300C0008300C000804
:100C1400340C0008F8B500BFF8BC08BC9E46704709
:0C0C2400F8B500BFF8BC08BC9E46704745
:040C3000B9010008FE
:040C3400950100081E
:080C3800BDBDBD81BDBDBD8144
:04000005080003D517
:00000001FF
