:020000040800F2
:1000000000000120D9020008290300082903000884
:100010002903000829030008290300080000000044
:10002000000000000000000000000000290300089C
:1000300029030008000000002903000881060008C9
:100040000000000029030008290300082903000814
:1000500029030008290300082D03000851030008A4
:100060007503000899030008BD0300082903000870
:1000700029030008290300082903000829030008B0
:1000800029030008290300082903000800000000D4
:10009000000000000000000000000000E103000874
:1000A0002903000829030008290300082903000880
:1000B0002903000829030008290300082903000870
:1000C0002903000829030008290300084D0500083A
:1000D000A9050008E5090008290300080000000040
:1000E0008904000829030008290300080000000013
:1000F00000000000000000000000000029030008CC
:100100000000000029030008290300080506000874
:1001100000000000000000000000000000000000DF
:1001200029030008290300082903000829030008FF
:10013000290300080000000000000000000000008B
:10014000000000000000000000000000290300087B
:1001500029030008290300082903000829030008CF
:100160002903000829030008000000000000000027
:10017000000000000000000000000000000000007F
:10018000000000000000000000000000000000006F
:040190002903000837
:1001940010B5054C237833B9044B13B10448AFF3BD
:1001A40000800123237010BD000000200000000027
:1001B400880C000808B5034B1BB103490348AFF38F
:1001C400008008BD0000000004000020880C000826
:1001D40080B400AF0B4B1B6B0A4A43F0010313635B
:1001E400084B1B6B074A43F002031363054B5B6C1C
:1001F400044A43F48043536400BFBD465DF8047B66
:10020400704700BF0038024080B594B000AFFFF7DC
:10021400DFFF06233B8702237B870223A7F84430B2
:100224000023A7F840300023A7F842300223FB63E1
:1002340007F138031946254800F000FC244BBB6144
:1002440007F108037B627B6A01221A707B6A4FF410
:100254007A72DA6007F118030021184600F042FAB6
:100264000023FB6413E0FA6C07F1180311461846E7
:1002740000F05AFB00237B6002E07B6801337B6063
:100284007B68B3F5FA6FF8DBFB6C0133FB64FB6C42
:10029400642BE8DD6423BB6413E0BA6C07F1180334
:1002A4001146184600F040FB00233B6002E03B6827
:1002B40001333B603B68B3F5FA6FF8DBBB6C013B81
:1002C400BB64BB6C002BE8DACAE700BF0000024045
:1002D400000400400D488546AFF300800C480D49EA
:1002E4000D4A002302E0D458C4500433C4188C428D
:1002F400F9D30A4A0A4C002301E013600432A242F3
:10030400FBD300F09BFCFFF77FFFFEE7000001201A
:100314000000002000000020A80C000800000020BD
:1003240078000020FEE7000080B500AF054B5B6954
:10033400044A43F001035361034B1B68984700BF11
:1003440080BD00BF003C01401C00002080B500AF10
:10035400054B5B69044A43F002035361034B5B683A
:10036400984700BF80BD00BF003C01401C00002036
:1003740080B500AF054B5B69044A43F00403536145
:10038400034B9B68984700BF80BD00BF003C014001
:100394001C00002080B500AF054B5B69044A43F0A4
:1003A40008035361034BDB68984700BF80BD00BF5F
:1003B400003C01401C00002080B500AF054B5B6988
:1003C400044A43F010035361034B1B69984700BF71
:1003D40080BD00BF003C01401C00002080B500AF80
:1003E400264B5B6903F02003002B08D0234B5B6989
:1003F400224A43F020035361214B5B6998471F4B0A
:100404005B6903F04003002B08D01C4B5B691B4A5B
:1004140043F0400353611A4B9B699847174B5B6940
:1004240003F08003002B08D0144B5B69134A43F09C
:1004340080035361124BDB699847104B5B6903F4EB
:100444008073002B08D00D4B5B690C4A43F4807316
:1004540053610B4B1B6A9847084B5B6903F40073A9
:10046400002B08D0054B5B69044A43F400735361C5
:10047400034B5B6A984700BF80BD00BF003C01404E
:100484001C00002080B500AF2D4B5B6903F4806332
:10049400002B08D02A4B5B69294A43F480635361DB
:1004A400284B9B6A9847264B5B6903F40063002B37
:1004B40008D0234B5B69224A43F400635361214B08
:1004C400DB6A98471E4B5B6903F48053002B08D00A
:1004D4001B4B5B691A4A43F480535361194B1B6BE2
:1004E4009847174B5B6903F40053002B08D0144B57
:1004F4005B69134A43F400535361124B5B6B984797
:100504000F4B5B6903F48043002B08D00C4B5B69F1
:100514000B4A43F4804353610A4B9B6B9847084B47
:100524005B6903F40043002B08D0054B5B69044A64
:1005340043F400435361034BDB6B984700BF80BD1A
:10054400003C01401C00002080B582B000AF134B7A
:100554009B685B0803F00103DAB23B7962F30003A2
:100564003B710E4B9B6803F00103DAB23B7962F3F3
:1005740041033B71094B9B681B0903F00103DAB289
:100584003B7962F382033B71054B1B685B693879E5
:10059400984700BF0837BD4680BD00BF003001400A
:1005A4005C00002080B582B000AF134B9B685B08F1
:1005B40003F00103DAB23B7962F300033B710E4BA3
:1005C4009B6803F00103DAB23B7962F341033B71A8
:1005D400094B9B681B0903F00103DAB23B7962F310
:1005E40082033B71054B5B685B693879984700BFB0
:1005F4000837BD4680BD00BF003800405C000020C5
:1006040080B582B000AF134B9B685B0803F0010315
:10061400DAB23B7962F300033B710E4B9B6803F043
:100624000103DAB23B7962F341033B71094B9B68E6
:100634001B0903F00103DAB23B7962F382033B71D5
:10064400054B9B685B693879984700BF0837BD46FE
:1006540080BD00BF003C00405C00002080B400AFBF
:10066400054B1B68044A23F00103136000BFBD4619
:100674005DF8047B704700BF10E000E080B500AF78
:10068400074B1B68002B02D0054B1B689847054B92
:100694001B78012B01D1FFF7E1FF00BF80BD00BF34
:1006A400680000206C00002080B483B000AF786044
:1006B4007B681B681A687B681B6842F001021A6039
:1006C40000BF0C37BD465DF8047B704780B582B02F
:1006D40000AF78607868FFF7E7FF00BF0837BD46D2
:1006E40080BD000080B584B000AF786039607B685D
:1006F4001B68FB60844A7B6813607B681B68834AC1
:10070400934206D1824B5B6C814A43F001035364EC
:100714002EE07B681B68B3F1804F06D17C4B1B6CC9
:100724007B4A43F00103136422E07B681B68794A27
:10073400934206D1764B1B6C754A43F00203136453
:1007440016E07B681B68744A934206D1704B1B6C9D
:100754006F4A43F0040313640AE07B681B686F4A22
:10076400934205D16A4B1B6C694A43F00803136436
:10077400FB680F229A627B68DB681B78013B032BC2
:100784006ED801A252F823F09D070008CF07000895
:100794000108000833080008FB689B6923F0700215
:1007A400FB689A61FB689B6943F06002FB689A618D
:1007B400FB689B6943F00802FB689A61FB681B6A4B
:1007C40043F00102FB681A624AE0FB689B6923F468
:1007D400E042FB689A61FB689B6943F4C042FB6892
:1007E4009A61FB689B6943F40062FB689A61FB6849
:1007F4001B6A43F01002FB681A6231E0FB68DB6994
:1008040023F07002FB68DA61FB68DB6943F0600285
:10081400FB68DA61FB68DB6943F00802FB68DA61B4
:10082400FB681B6A43F48072FB681A6218E0FB6879
:10083400DB6923F4E042FB68DA61FB68DB6943F4BB
:10084400C042FB68DA61FB68DB6943F40062FB6861
:10085400DA61FB681B6A43F48052FB681A6200BFCA
:10086400FB681B6843F08002FB681A60FB685B69E5
:1008740043F00102FB685A617868FFF727FF7B6841
:100884001B7E002B3BD0FB68DB6843F00102FB6856
:10089400DA60FB681D4A934206D1214B1B68204A4B
:1008A40043F0007313602AE0FB68B3F1804F06D174
:1008B4001B4B1B681A4A43F0805313601FE0FB680C
:1008C400144A934206D1164B1B68154A43F0005351
:1008D400136014E0FB68104A934206D1104B1B6866
:1008E4000F4A43F08043136009E0FB680B4A9342CC
:1008F40005D10C4B1B680B4A43F48023136000BFE3
:100904001037BD4680BD00BF7000002000000140CC
:10091400003802400004004000080040000C004081
:1009240000E100E004E100E080B487B000AF78604B
:1009340039607B68DB68DB68274AB2FBF3F3013B71
:100944007B617B681B687A69DA627B681B68DB6A97
:100954003B613B68642B01D964233B603B690133F1
:100964003A6802FB03F31D4AA2FB03235B09FB6005
:100974007B68DB681B78013B032B1FD801A252F86C
:1009840023F000BF99090008A3090008AD09000875
:10099400B70900087B681B68FA685A630EE07B6835
:1009A4001B68FA689A6309E07B681B68FA68DA6373
:1009B40004E07B681B68FA681A6400BF7B681B68E4
:1009C4005A697B681B6842F001025A6100BF1C37F8
:1009D400BD465DF8047B704740420F001F85EB5114
:1009E40080B582B000AF134B1B68DB0903F0010331
:1009F400DAB23B7962F300033B710E4B1B685B096F
:100A040003F00103DAB23B7962F341033B71094B12
:100A14001B689B0903F00103DAB23B7962F382039A
:100A24003B71054B1B68DB683879984700BF083772
:100A3400BD4680BD001001407400002080B485B024
:100A440000AF786039603B681B88FB607B681B687B
:100A5400FA685200032101FA02F2D2431A407B6879
:100A64001A607B685B680121FA6801FA02F2D243DA
:100A74001A407B685A607B689B68FA6852000321BD
:100A840001FA02F2D2431A407B689A607B68DB6801
:100A9400FA685200032101FA02F2D2431A407B6839
:100AA400DA603B685B88032B00F09C80032B00F327
:100AB400B080012B02D0022B2ED0AAE07B681B68E9
:100AC400FA685200012101FA02F21A437B681A60A3
:100AD4007B685B683A6812891146FA6801FA02F287
:100AE4001A437B685A607B689B683A68928911460E
:100AF400FA68520001FA02F21A437B689A607B6832
:100B0400DB683A6852891146FA68520001FA02F227
:100B14001A437B68DA608AE07B681B68FA685200D3
:100B2400022101FA02F21A437B681A607B685B684F
:100B34003A6812891146FA6801FA02F21A437B688C
:100B44005A607B689B683A6892891146FA68520039
:100B540001FA02F21A437B689A607B68DB683A68A0
:100B640052891146FA68520001FA02F21A437B686C
:100B7400DA60FB68072B16D87B681B6AFA68920058
:100B84000F2101FA02F2D2431A407B681A627B6891
:100B94001A6A3B685968FB689B0001FA03F31A431D
:100BA4007B681A6242E0FB68072B3FD9FB680F2B76
:100BB4003CD87B685B6AFA68083A92000F2101FA14
:100BC40002F2D2431A407B685A627B685A6A3B68D5
:100BD4005968FB68083B9B0001FA03F31A437B68DE
:100BE4005A6223E07B681B68FA685200032101FA09
:100BF40002F21A437B681A607B68DB683A685289A0
:100C04001146FA68520001FA02F21A437B68DA606C
:100C14000DE07B68DB683A6852891146FA68520035
:100C240001FA02F21A437B68DA6000E000BF00BFF9
:100C34001437BD465DF8047B7047000070B50D4D58
:100C44000D4C641BA4100026A64209D10B4D0C4C7C
:100C540000F018F8641BA4100026A64205D170BD4C
:100C640055F8043B98470136EEE755F8043B98479E
:100C74000136F2E7A00C0008A00C0008A00C000844
:100C8400A40C0008F8B500BFF8BC08BC9E46704729
:0C0C9400F8B500BFF8BC08BC9E467047D5
:040CA000B90100088E
:040CA40095010008AE
:04000005080002D914
:00000001FF
