:020000040800F2
:100000000000012095030008E5030008E50300084F
:10001000E5030008E5030008E50300080000000010
:10002000000000000000000000000000E5030008E0
:10003000E503000800000000E5030008D50A0008F9
:1000400000000000E5030008E5030008E5030008E0
:10005000E5030008E5030008250800084908000832
:100060006D08000891080008B5080008E5030008BD
:10007000E5030008E5030008E5030008E5030008C0
:10008000E5030008E5030008E503000800000000A0
:10009000000000000000000000000000D908000877
:1000A000E5030008E5030008E5030008E503000890
:1000B000E5030008E5030008E5030008E503000880
:1000C000E5030008E5030008E5030008E503000870
:1000D000E5030008E5030008E50300080000000050
:1000E00081090008E5030008E5030008000000009E
:1000F000000000000000000000000000E503000810
:1001000000000000E5030008E5030008E50300081F
:1001100000000000000000000000000000000000DF
:10012000E5030008E5030008E5030008E50300080F
:10013000E5030008000000000000000000000000CF
:10014000000000000000000000000000E5030008BF
:10015000E5030008E5030008E5030008E5030008DF
:10016000E5030008E50300080000000000000000AF
:10017000000000000000000000000000000000007F
:10018000000000000000000000000000000000006F
:04019000E50300087B
:1001940010B5054C237833B9044B13B10448AFF3BD
:1001A40000800123237010BD040000200000000023
:1001B400BC0D000808B5034B1BB103490348AFF35A
:1001C400008008BD0000000008000020BC0D0008ED
:1001D40080B400AF0B4B1B6B0A4A43F0010313635B
:1001E400084B1B6B074A43F002031363054B5B6C1C
:1001F400044A43F48043536400BFBD465DF8047B66
:10020400704700BF0038024080B5A0B000AF3B4645
:1002140080220021184600F0A3FD01237B800123E6
:100224003B8201237B8202233B8401237B840323BF
:100234003B8601237B860423A7F840300123A7F8DB
:1002440042300523A7F850300123A7F85230062383
:10025400A7F860300123A7F862300723A7F87030AD
:100264000123A7F872303B4608221946034800F0E0
:10027400B9F800BF8037BD4680BD00BF0000024012
:1002840080B500AF07210D4800F055FD0C4B1B68ED
:1002940019460C4800F0D2F8094B1A680A4B1B683F
:1002A4009A4205D2064B1B680133054A136002E0EB
:1002B400034B00221A6000BF80BD00BF000402404F
:1002C40020000020E00D00080000002080B588B068
:1002D40000AF0A4A07F10C0307CA83E807000123A9
:1002E4003B7600237B76064BFB6107F10C03184633
:1002F40000F08AFA00BF2037BD4680BDD40D000847
:100304008502000880B584B000AF07233B80012339
:100314007B8000233B810023BB8100237B813B4600
:100324001946034800F0EAFB00BF1037BD4680BD04
:100334000004024080B500AF144B1B68134A43F419
:100344008033136000BF114B1B6803F40033002B90
:10035400F9D00E4B9B680D4A23F0030393600B4BBB
:100364009B680A4A43F00103936000BF074B9B68F4
:1003740003F00C03042BF9D1FFF72AFFFFF744FF26
:10038400FFF7A4FFFFF7BEFF00BFFDE70038024000
:100394000D488546AFF300800C480D490D4A0023F3
:1003A40002E0D458C4500433C4188C42F9D30A4A26
:1003B4000A4C002301E013600432A242FBD300F094
:1003C400D7FCFFF7B7FFFEE7000001200000002084
:1003D40004000020343D01080400002070000020C7
:1003E400FEE7000080B586B000AFF860B960134640
:1003F400FB71114AFB6813600023FB750AE0FB7D67
:100404001B01BA6813441946F86800F077FBFB7DBA
:100414000133FB75FA7DFB799A42F0D301233B75D6
:1004240000237B7507F11403184600F009FB00BF95
:100434001837BD4680BD00BF2400002080B584B0BD
:1004440000AF786039600023FB7315E00E4B186829
:10045400FB7B99B27A683B6813441B781A46FB7B92
:1004640042FA03F39BB203F001039BB21A4600F075
:100474003DFCFB7B0133FB73FB7B072BE6D900BF01
:1004840000BF1037BD4680BD2400002080B483B077
:1004940000AF0346FB80FB880F2B54D801A252F80F
:1004A40023F000BFE9040008F7040008050500086C
:1004B40013050008210500082F0500082F05000872
:1004C4002F0500082F0500082F0500083D0500082A
:1004D4003D0500083D0500083D0500083D050008F0
:1004E4003D0500081B4B1B681A4A43F04003136088
:1004F40029E0184B1B68174A43F08003136022E07D
:10050400144B1B68134A43F4807313601BE0114BB4
:100514001B68104A43F40073136014E00D4B1B680E
:100524000C4A43F4806313600DE00A4B1B68094ACC
:1005340043F40003136006E0074B1B68064A43F4C8
:100544008073136000BF00BF0C37BD465DF8047BA9
:10055400704700BF00E100E004E100E080B483B034
:1005640000AF0346FB80FB880F2B54D801A252F83E
:1005740023F000BFB9050008C7050008D505000829
:10058400E3050008F1050008FF050008FF05000861
:10059400FF050008FF050008FF0500080D06000818
:1005A4000D0600080D0600080D0600080D060008DB
:1005B4000D0600081B4B1B681A4A43F040031360E6
:1005C40029E0184B1B68174A43F08003136022E0AC
:1005D400144B1B68134A43F4807313601BE0114BE4
:1005E4001B68104A43F40073136014E00D4B1B683E
:1005F4000C4A43F4806313600DE00A4B1B68094AFC
:1006040043F40003136006E0074B1B68064A43F4F7
:100614008073136000BF00BF0C37BD465DF8047BD8
:10062400704700BF80E100E084E100E080B588B05D
:1006340000AF78607B681B89BB810023FB810023AA
:10064400FB827B685B6807F10C021146184600F0D8
:1006540055FA7B681B889B089BB2FB777B681B88D9
:10066400DBB203F00303DBB29B00BB775F4AFB7F83
:10067400023352F82320BB7F0F2101FA03F3DB433B
:1006840018465A49FB7F0240023341F82320574A57
:10069400FB7F023352F823207B685B6854498B420A
:1006A40016D07B685B6853498B420FD07B685B68CC
:1006B40051498B4208D07B685B6850498B4201D119
:1006C400032306E00F2304E0022302E0012300E0F9
:1006D4000023B97F8B4018464449FB7F0243023311
:1006E40041F82320464B9B687A6812881146012200
:1006F4008A40D2431146424A0B409360404BDB6828
:100704007A681288114601228A40D24311463C4A33
:100714000B40D3607B685B7B002B0BD1384B9B6811
:100724007A681288114601228A401146344A0B43E2
:10073400936029E07B685B7B012B0BD1304BDB683A
:100744007A681288114601228A4011462C4A0B43CA
:10075400D36019E07B685B7B022B15D1284B9B6827
:100764007A681288114601228A401146244A0B43B2
:100774009360234BDB687A681288114601228A4011
:1007840011461F4A0B43D3607B681B8819467B685C
:100794001B691C4A42F821307B681B7B012B10D15A
:1007A400174B1B687A681288114601228A40114649
:1007B400134A0B4313607B681B881846FFF766FED9
:1007C40010E00F4B1B687A681288114601228A4098
:1007D400D24311460A4A0B4013607B681B881846B3
:1007E400FFF7BCFE00BF2037BD4680BD0038014086
:1007F400000002400004024000080240000C0240D5
:10080400003C01402800002080B582B000AF786031
:100814007868FFF70BFF00BF0837BD4680BD0000B6
:1008240080B500AF054B5B69044A43F00103536193
:10083400034B1B68984700BF80BD00BF003C0140CC
:100844002800002080B500AF054B5B69044A43F0E3
:1008540002035361034B5B68984700BF80BD00BF30
:10086400003C01402800002080B500AF054B5B69C7
:10087400044A43F004035361034B9B68984700BF49
:1008840080BD00BF003C01402800002080B500AFBF
:10089400054B5B69044A43F008035361034BDB686F
:1008A400984700BF80BD00BF003C014028000020E5
:1008B40080B500AF054B5B69044A43F010035361F4
:1008C400034B1B69984700BF80BD00BF003C01403B
:1008D4002800002080B500AF264B5B6903F020039D
:1008E400002B08D0234B5B69224A43F02003536159
:1008F400214B5B6998471F4B5B6903F04003002B56
:1009040008D01C4B5B691B4A43F0400353611A4BEC
:100914009B699847174B5B6903F08003002B08D051
:10092400144B5B69134A43F080035361124BDB6938
:100934009847104B5B6903F48073002B08D00D4B70
:100944005B690C4A43F4807353610B4B1B6A9847F1
:10095400084B5B6903F40073002B08D0054B5B69FB
:10096400044A43F400735361034B5B6A984700BF26
:1009740080BD00BF003C01402800002080B500AFCE
:100984002D4B5B6903F48063002B08D02A4B5B6911
:10099400294A43F480635361284B9B6A9847264B4A
:1009A4005B6903F40063002B08D0234B5B69224A84
:1009B40043F400635361214BDB6A98471E4B5B6928
:1009C40003F48053002B08D01B4B5B691A4A43F491
:1009D40080535361194B1B6B9847174B5B6903F4A6
:1009E4000053002B08D0144B5B69134A43F40053A3
:1009F4005361124B5B6B98470F4B5B6903F4804365
:100A0400002B08D00C4B5B690B4A43F480435361C1
:100A14000A4B9B6B9847084B5B6903F40043002B1C
:100A240008D0054B5B69044A43F400435361034B0C
:100A3400DB6B984700BF80BD003C014028000020CC
:100A440080B483B000AF7860184B1B68174A23F05A
:100A5400010313607B681B78012B06D1134B1B68C1
:100A6400124A43F00203136005E0104B1B680F4A5F
:100A740023F0020313607B685B78012B06D10B4BD8
:100A84001B680A4A43F00403136009E07B685B783F
:100A9400002B05D1054B1B68044A23F004031360A3
:100AA40000BF0C37BD465DF8047B704710E000E0E2
:100AB40080B400AF054B1B68044A23F001031360A4
:100AC40000BFBD465DF8047B704700BF10E000E046
:100AD40080B500AF074B1B68002B02D0054B1B6889
:100AE4009847054B1B78012B01D1FFF7E1FF00BFAD
:100AF40080BD00BF680000206C00002080B485B079
:100B040000AF786039603B681B88FB607B681B68BA
:100B1400FA685200032101FA02F2D2431A407B68B8
:100B24001A607B685B680121FA6801FA02F2D24319
:100B34001A407B685A607B689B68FA6852000321FC
:100B440001FA02F2D2431A407B689A607B68DB6840
:100B5400FA685200032101FA02F2D2431A407B6878
:100B6400DA603B685B88032B00F09680032B00F36C
:100B7400AA80012B02D0022B2ED0A4E07B681B6834
:100B8400FA685200012101FA02F21A437B681A60E2
:100B94007B685B683A6812891146FA6801FA02F2C6
:100BA4001A437B685A607B689B683A68928911464D
:100BB400FA68520001FA02F21A437B689A607B6871
:100BC400DB683A6852891146FA68520001FA02F267
:100BD4001A437B68DA6083E07B681B68FA6852001A
:100BE400022101FA02F21A437B681A607B685B688F
:100BF4003A6812891146FA6801FA02F21A437B68CC
:100C04005A607B689B683A6892891146FA68520078
:100C140001FA02F21A437B689A607B68DB683A68DF
:100C240052891146FA68520001FA02F21A437B68AB
:100C3400DA60FB68072B16D87B681B6AFA68920097
:100C44000F2101FA02F2D2431A407B681A627B68D0
:100C54001A6A3B685968FB689B0001FA03F31A435C
:100C64007B681A623CE07B685B6CFA68083A920025
:100C74000F2101FA02F2D2431A407B685A647B685E
:100C84005A6C3B685968FB68083B9B0001FA03F304
:100C94001A437B685A6423E07B681B68FA68520035
:100CA400032101FA02F21A437B681A607B68DB684D
:100CB4003A6852891146FA68520001FA02F21A435C
:100CC4007B68DA600CE07B68DB683A68528911461D
:100CD400FA68520001FA02F21A437B68DA6000BF34
:100CE40000BF1437BD465DF8047B704780B483B001
:100CF40000AF78600B467B8013463B803B88012B1A
:100D040009D17B685B697A88012101FA02F21A43EE
:100D14007B685A6109E07B685B697A88012101FA82
:100D240002F2D2431A407B685A6100BF0C37BD46B9
:100D34005DF8047B704780B483B000AF78600B46E5
:100D44007B807B685B697A88012101FA02F25A4050
:100D54007B685A6100BF0C37BD465DF8047B704761
:100D640002440346934200D1704703F8011BF9E79C
:100D740070B50D4D0D4C641BA4100026A64209D17C
:100D84000B4D0C4C00F018F8641BA4100026A6426E
:100D940005D170BD55F8043B98470136EEE755F888
:100DA400043B98470136F2E72C3D01082C3D01082D
:100DB4002C3D0108303D0108F8B500BFF8BC08BC63
:100DC4009E467047F8B500BFF8BC08BC9E46704705
:100DD40006000000000402400600170082745F6BE6
:100DE4008B949192836F6267768495A3947B6D6CE8
:100DF400777E7B788092917D7D807D8789796D6512
:100E04007A9B9A8F8E7B5B5366829AA9A892715CB7
:100E140064717075869AA190827F717079737880FD
:100E240080939E8F877E6553556F99B0ADA38B6871
:100E340053545F6D8098ABA6928374666060728B26
:100E4400939B9D92897A675F535989B0B5AB9D890D
:100E5400603D445F7491B3BAA589796A534B628744
:100E64009BA3A4998A77665D545577A3B5AEA49CD9
:100E74007B4A3B4B6586AABDAD9286735147587534
:100E840095A8A99E90826F5A4E57708FABB5AB9BB5
:100E9400805A47455784A9B2AA988D79544D5D6903
:100EA40085A3AAA3948A795D4D576E8B9FADB097A5
:100EB400765C55565D7FA8ABA298897B5E4F626DC8
:100EC4007896A3A5A08B7B6850566F89A3AAA69693
:100ED4006F52525F6B7FA0AE9F91867C6E5C5F7396
:100EE400737E99A3A393786C6157718B9AA7A4928C
:100EF4007A5A4B5A758DA0A398867A7D7B6B66745B
:100F040074768D9B988F7E6F61647D8E9298989095
:100F14007F635A59678FA5A18D7C7B82817D756D16
:100F24007376869A94837C6E5C6B8A9D9887878A95
:100F34007A696A7271809FA5836B757F8182847ED2
:100F4400726F8199907C7566556893A8A38E837D92
:100F54006B636F7D8389949D8F7169747D7E848FAB
:100F64008C7877918B75746A5B6B91A8A794857064
:100F7400585A67778F9D9A94897C70656E777389C8
:100F8400A39C87817F74645F667187A4B3AC9271FC
:100F9400564B4E668FAAAAA0937D706E6965697CD4
:100FA4009FB19F877A6C5E555D768999B4BEA480A3
:100FB40061473B4E7698B1B7A0837477755D5676DA
:100FC400909AABA6836A605A59627D98AEB6B09C7B
:100FD40078523D445E80A4B9A98E827F715B556BC3
:100FE4008C97A3B3986A575558637899ADA4A3A373
:100FF400896A4A415A728FAEA49492867C6C5F6867
:101004007B899EAD9C7D5F4E4F627F95A1A9A29383
:10101400846E56555A698EA5A89889898465586046
:101024007292A1A5A3926E524E586F91A9B2A0825A
:1010340075796D5C5D5A76A2A1959E938F81585106
:101044005E6B92AFA59E896E64524F7B9A9F9F8C74
:10105400858C806E635159778FA3B0AEA08B684A9C
:1010640046617A8FA9AF987C6C5F5C7698988D8581
:101074007773818C8B7862616D7D8D9BA2A4907B4C
:101084006F5E5A6D828F8C848B857A858B857D6F9C
:1010940064636E93B6AC897162616E7F8E918A8D42
:1010A4009083797E7B6D686A707B8EA6AF9E89740F
:1010B400564655779BABA4917A686D7C848883836C
:1010C40089867E797471737A838A9196928873651E
:1010D4006A68637C9EA8A68A6452536C919A919420
:1010E4009D9A8A7462545A6F7A8A9E9E9A998279DA
:1010F400836E5A5E62789AA39A8971718087846E2E
:10110400617387A2A986756E6C8183767A78758BF4
:1011140098918E86787572777C6C68768493938CBC
:10112400908F817E7C604F5B7299B8B9B4955842B8
:101134004F577699A5AB977E80725B66727D8A83E2
:101144008D9680829388796D6C746F7686858B9F7B
:101154009C8A796A686A6B7A8E9897877D79686CBD
:1011640080878A787599927B7F73717D7E7D7D7E81
:101174008381899C917A6B5E6B7F8793958D7B6964
:10118400747F808D887F89867C77636D7B83949B55
:101194009F97726E6F4E617B8BA49C9AA47C595767
:1011A40053719794A1A888827F6B655B576C84AC5C
:1011B400CDB98C756B523F47566E9EC9E5D38D51A0
:1011C400332F507598C3C09989745B5F5A5A7590D0
:1011D400ABBCB19683695047484F688FB9E1CF994A
:1011E400754E3A50596CA2B7AFAB88605A4A5388CF
:1011F4009BA8C1A586745046606E75878F948D95A3
:10120400A3968C84694E47557E9FAFB49B7C6653EE
:101214006C868BAAAB82715B4A667688AA9A7571D2
:101224006C7399ACAD9B684C46466C9EAFABA19574
:101234007C5F677F868D8870676E79858D949C85C9
:10124400615D768696A79C86654C56676E8EA1A3D3
:10125400BAA4756A5A67897572877C839590857973
:1012640078826F6E89817C8C82807A6B7D7D6274DA
:10127400A0B3B3906E5B4C6E8D7F858D8A987E7221
:1012840081707598938279524B6E8FB1B8966D5771
:101294005C7AA2A993795E69776C8999828D8C773F
:1012A4008B7D5772A0B3A15F402F419EC3BABA8D04
:1012B4006B75616D8372747E7A8485909671729B6E
:1012C4009D806351779FB2A864344C5672AEB6AD1C
:1012D400AD8C71786E68605B6E8398A88E7C808913
:1012E40095906F556D8C949092805544616A83B348
:1012F400B39CA8A186764C36516D88A19F9C938996
:101304008D896F6A6A6577929C978C7D4B4275785C
:101314007B9DABB9C39A6A4C4A4A476599B6BCB639
:101324008D757A726665657E938F838183856A572E
:101334006A6A7EB3BCB59C79785033405C8ABABA89
:10134400B3AA83706B535878838988929A866D798F
:101354006E56727B74AAB9A8A98055453C47769B02
:10136400BECCB78B666161606B717A9DA8997E680B
:101374007083715773857DACBA948E7E5A433B61FA
:101384009EB3BBAD8D6E67685B6080969C9A7E7DD4
:10139400846F6F7B7375807F7A90A0938C755C6B80
:1013A400767C918D91998171766E7683818982871D
:1013B4008D7C797D808B7560757A7084969598980C
:1013C4008A6E6372767B8684888681867E6C768458
:1013D4007A7F8F8E8F89747F845F5B726271A3A61C
:1013E400A2A592806C59626C72899B928B897B6DE9
:1013F4006B75818A939288837B7979705F646C6260
:1014040082B4B5B7AC755B5246618295A9A5908547
:10141400735E60787C81A5A6877D747176746E5C3A
:101424005B7690ABBEB5A074484654657E98ABA974
:10143400958D785E626D7985929F967E797B7171C8
:10144400796760777D84B2B195907152585A6C99DE
:10145400A3A0A58B6D676C767F7F7D858385908A3D
:101464007C7B8372535D7D8292B0A58978635C66D0
:101474006E89A09799987B6C7170737F7F82878641
:10148400908D7D7A757779717A766683998B8B885E
:101494007B746E74848995A08D7870706E727E866C
:1014A40086828A8A777B837D888877786D5C7A8E5A
:1014B400898F8B7F7E7C797E848C8F8882756E7019
:1014C400778286898B7E6F7C86808E98846D645E3D
:1014D4005D728797A09B9382716A7580878E928ACA
:1014E4007A6F6B76807D7F7E7A81878A95907D7E08
:1014F400705F686C7285939A988C82736C717C8D22
:10150400958C837B7274757A84837D7F8180858DCD
:101514008A837F706364606A8D9DA7A992786C67E3
:101524006F7C8391948375747377808080837E7CD1
:101534008588898A8A7F6A65675E6F929EA19D8F7E
:10154400806A61757F828D8F84807E7979797E83CC
:101554007F7C808381858C877A71696368728AA0B5
:10156400A2A1967E69676872848A8C8C85807E7756
:101574007677797F828588878887817D73636068C1
:1015840070869FA5A9A07D6B6B5F6477808A959810
:101594009284766E6C757A7E8C9087878679757165
:1015A4006265737888A3ACA49A846B6059596E867B
:1015B40092A0A59483746666707785908B8B8D80DA
:1015C40077736D6F6C74888A91A99D8B866B5A5E54
:1015D4005C6D8D999F9F92847266676B798E928EF3
:1015E4008D7F747B76727E7E787F7E8195948B8DE1
:1015F4007E6A69676B7F8C929C9885756C6B6F753E
:10160400838D8C8C83777C7E7883897A797A7582D2
:1016140091908F87736D6F6A70849198989489758F
:10162400625F6B7C8E96968D7F7778777D81727101
:101634007E7B7B90938D91816D69656B80919EA774
:10164400987A6A5E5B6B7F8F9E9F928175706C71D6
:1016540084897D7D7E77818B888C8B796E6F6D78A4
:101664008990949284766B6873808994998F7F753E
:10167400706F798688817E7C6E718C948C948D7267
:101684006866687A909B998C7C6F696F7A8693946C
:101694008C80716871818D938273726B718F9D9947
:1016A40098826662676F80939B9A8B786A6672826F
:1016B4008E988F7F786C6D7F828994806E706C7940
:1016C400929394937F706968718090978B837C70F8
:1016D400758188908D827C736E777F89918B7C7302
:1016E4006967778B9A998E83746B6E747F89898707
:1016F400817B7F8382888883817D736F7B878F92D0
:10170400806B6B6566859E9E9B93806E6466748415
:101714008B8D8C837B7D7B83918479817669777FC4
:101724008792857673696A84969B9C94806A6066C6
:1017340074828D8F8F877C7E82828A84797F7C708D
:101744006E758A95827E8065638292999C8C796D90
:10175400656C7D8B91928D80737680808386807D8D
:10176400756974818A92857A7F73728D978D877E6D
:101774006E6A707B84898F8B837F7D7D8384828472
:101784007A6F6F6F788E8F82848069739197978D4B
:101794007668666A7B8C8D90978A787C87857D7C59
:1017A400756F6C6A71818F988E837D6F6F8B9E9A33
:1017B4008D7E6C585E75858F958F877F7D85868439
:1017C4007E7777706470838E999681766F6B82973B
:1017D40097928771606076878B8D8C8580868880F0
:1017E4007C7C7B787473747D898C87807A757C8A21
:1017F4009494867C7666677A868B827E8D897F87D1
:101804008476777F7F7B797A7E7F7D80847B7994F1
:10181400998385836B67727D8D8C7F807E758297BB
:101824008E7A77777474787E8C86788381738498C3
:10183400908681786A656F828F908C8379747D8DB0
:10184400887D807A6F737882898487887975859298
:101854008D88826E6169717F91948E89817D848186
:101864007C7D776E75828389867C7C827E7F93976C
:101874008B82705E5F68829A99938D776974869083
:10188400877E766F737A878F8075807E76909D9041
:101894008E79605F5B7097A19B958369667783817E
:1018A400858D837D777883706889908397A28B7DFB
:1018B4006E6666617794979792816E6B7A8283885D
:1018C400897E797680876B66837E84ABAA948163F4
:1018D4005B5A5C829A9AA29372636A7784909B960D
:1018E4007C6F6B746F607D8F8096B29E887C665F20
:1018F4005761889195AA956F6A6F6978909C9B89C6
:101904007472735858798189B0BEA48E7258545336
:10191400688B96A3A7886D71706C84939391807281
:10192400786E54647A7996BEB398896753595E7811
:101934008E94A39B797079707288908D857C827A5D
:10194400595774727EB2C5AA8F775A5356688990D4
:101954009BA1816B74797B8D9A90807173846E5492
:101964006A7A7495BEB29986654F525B81999FAB32
:10197400916D6A6F758492948D7D768479565E75C7
:101984007085B6B89D886D5D5A5B7895909C997703
:10199400707677848D88827E778288665A76797AA3
:1019A400A6BAA28D735954576F959C9B98796F79F9
:1019B40078808E8C8580787785715C7480809CAD0E
:1019C4009A87725E636774949A9391756875788444
:1019D400938F83817F78807C6065757B9CB5A992A9
:1019E400775750566692ABA49C8063696C78909349
:1019F4008B827C787E826F69797988A9AA987D62C6
:101A04005B5B5B7EA8A2948A706770788D92857FF9
:101A14007D7B80927A5C696F759FB6AB9369575CE6
:101A24005D759EA08A8379717C838E9481736E6FB9
:101A3400778E93736E73718BA9A6977A5C5D6273CC
:101A44009AA68A726F6B79959C98846A646B789075
:101A54009F7C61706F7BA4B29E7E6263656A91A471
:101A6400896D6C707492A7A2917262626981A3926B
:101A740061626F759CB9AE8C5A4C63718DAD986F71
:101A8400626B768AA3A48E736A6C6E7A8FA07A5680
:101A9400697680A3B2A47F54586E7796A781646751
:101AA40070859DAAA07B5E626C7F96A0935C496260
:101AB4007998B8B6926B51637984918A71636F8C0B
:101AC4009FA19E896B5A60778D939F97614B5E7639
:101AD4008FA8A9987C667983796F6C6B6F88A9AE9F
:101AE40099836C6060728B918C93946A4C617A8751
:101AF40099A39B83727F8A7159686D7496B1B5926C
:101B0400685E6364849A8F87808A825F5A7575865B
:101B1400A7A3998477756056737A809BA5A6907065
:101B2400625D5F7D9394919095916B4F5B62769922
:101B3400B3AB947C69605A69808C909EA191856D49
:101B4400636667799190969A8F8B673E507285A8E9
:101B5400B5A686665B6C7681968882898C8881704E
:101B6400686C74859196968C868969454E6D8AA6B3
:101B7400B1AA84565B7081969F8B757380877D7B39
:101B8400777375849A968785828170515471819C8C
:101B9400B39D775F697E8A969E85696D82897B791C
:101BA4007C757582989782817D76806F5A6F7A8A68
:101BB400A5988275627A938F8D7E68687A939C84E7
:101BC4007575767E8B90887B7A7B7E866B5A6F8266
:101BD400939A8B8274688B9F897A73676A83A09EB9
:101BE4008173717E85848780727B80838E72587343
:101BF4008B848B8D8980768994786F7972788894B8
:101C04008E7E797E898D837874748182858D7158F6
:101C1400778A80888D8982788593746B78767788C3
:101C2400939285848686837B736E6B78878A957D91
:101C3400576A837D8D96908B84878E6F5D6B6C78ED
:101C4400919D9A86797D7B7C7D7A787B818B838C50
:101C5400815959797E89959094867D84765D707CCE
:101C6400838D9396887B82827B76777A7E7D87814B
:101C7400838A67586C7A849B97998E818B87676077
:101C8400696E828C95958384878078747980818845
:101C94008D8391744F576A74949E9D9D86898B6E33
:101CA4005B63677E8C97A390838880767276797B5A
:101CB4008091858D875248647590A89F9F89828BF7
:101CC4007C6564636F838C9D99878782797376784A
:101CD4007D818B8A889A6F47576E7D9A9C9C917FF1
:101CE40087856F65686D828C98A19084817A7577F9
:101CF400787A8282867F958448446C8397A19A9CE3
:101D04008C888B775F60667A8C90999386817973DF
:101D1400747A7F8B8A8D8889905A365A7C8AA49EDD
:101D2400958C7E868166636C74888F989F8F837F81
:101D340079726F718287848B899C7D353D74859817
:101D4400A19897868794775D676E7E8E8D928D823B
:101D5400837E7775777F867D88898E915B446980E1
:101D640088948D92887D938C656272798788909728
:101D74008887897E717275817E828B8A976F3D50C8
:101D84007E8F98909397838A90735B6870828E8E0F
:101D940095878389857778797D7976898A947F5048
:101DA400517B8B918A85918588927C5D697682844A
:101DB4007F96958E95947F726E71726C7D87978CE9
:101DC4005B4A718892948D978B878A7C666F788042
:101DD4008276858D8D8E918373797F7B6B748896E3
:101DE400896251738B908F858B86898E81696D771B
:101DF4007D7F77838F928B8D85797D7F81737589C4
:101E0400967D514A6D88929288929499957D6366E5
:101E1400737B7972829094919183787C80806F6FC8
:101E24008298845958768A8F877D8C9296937B69A1
:101E3400717C81756D828987898F8B8B89827C6C9B
:101E440074888F724C597D8989888A97978F897491
:101E540069787F827771858D837E85858A817B7F92
:101E64007D848D8C6B4C5A7B8E89828494978D886B
:101E74007873797B7B737A868A847F85898B87855F
:101E84007B7C8284865D42668B92897B839B969061
:101E94008D6F6B79807E7581908C76768789847D51
:101EA4007C7B869197814A4B77918C7677919C8F36
:101EB40090866C6E7D85787281898274889A8D7B18
:101EC400767D82889197633F668C8C756D849E9431
:101ED4008F9678657A8A7F73808B85757B918B7DED
:101EE40078798287849378455E8D958173819A8D04
:101EF4008190877577858370788481756C848E7DF5
:101F04007C8D8C8E8E8C785059838E7971819894C7
:101F14008184827675838A747A8A8A7B6B829386BB
:101F24007D8281807F8B8059648C8D695D7CA3A2C6
:101F34008C857F767A868771798E8C766A7B8689A2
:101F440083807D7C848F6D4C6B9E9B6D66889E9A8E
:101F5400887C838182847A677386897E78807E7B9D
:101F64007D83868B95905A467AA7936B6F93998558
:101F740075727D858E8E7D6C727A7B7E8B90857D6D
:101F84007F7B788D9B80525F8D99745F7D9D9A884D
:101F94007870757D8B8F8784888274737F827D7E51
:101FA400827D8293865C4E7EA18B656791A5958028
:101FB4007C82867C76767E8C89837D79797A787644
:101FC400798595916C54739D9775667F9C92746E18
:101FD4008497917970778384787A838484817A78FA
:101FE4007D878A795D6B9DA273586F9CA67F607311
:101FF400999F85707A86817475817D7A82817582D4
:1020040097927457618DA387656D92A68B5E618EDE
:102014009B83737F918D7C757D817E7E7F797481B6
:10202400897C6B6A89A18862688C9E8C69688F9EA2
:102034008067769497837B7F817A72767D828A8BA0
:1020440078605D7C968E726D8FA693706B8EA3877D
:10205400656E888C807B878D80726E6D727C8381C7
:1020640076758998876A6888A499766C8698846D51
:102074007484887D7B83837C797B80868A86766B77
:102084006E8296886B6A81948A70718D9781717A59
:1020940088877A808F8E877D797777858F7F656152
:1020A400788D7F686F8D9C8D756E85968776839508
:1020B4008E79747F837E7A7A7A787D8683736F7F54
:1020C4009089756E7E928D7974818D856E71838A07
:1020D4008781858A8276737B82878C847972727B0E
:1020E4007F7F82878680807F787E87817B7F8382E3
:1020F40076768A90857E7C8083817C76737B877EEE
:102104006B728A94887C858C878080807F7E7C72C9
:102114006F7C817F808285898A89806F7385887EC0
:10212400737A8F89706E7D848384898A86817D77B2
:10213400777D7F7C7C81868887857D787A81806EB7
:102144006E8E9988736F7D837F808181868A847B7C
:102154007C84857E797C7F807E78757B888F7E6E9B
:10216400798A8A7F79818A877E77767C8385838161
:102174008081807A78818889887E7378857C69708B
:102184008793887578858885827E7E7D7D807F7E35
:102194008287807A7D818282827C7C898E78667255
:1021A400898F827B82878278787E7E7E8585808017
:1021B400817E797A7F8485827B767F8B897C788027
:1021C4008983777781847C797F827E7C80817F801C
:1021D400807F818487878279747981847D78808DFA
:1021E4008A7E797E817A777B8388837D7D818281F3
:1021F4007B767B81898D85797881868072728288ED
:1022040081808687817A787C7F8182818287867FBC
:1022140079777B7F82837D767A878A817C80837DD0
:10222400777B83837E7D7F8182817F7E8387837EAC
:102234007A7B7F81817D797A8186847F7B7B7F83B2
:102244008384837E79797B7E8083828385837E7990
:102254007B8185847F7B7A7D7F80838685807C7C7F
:102264007B7A7E82838281817F7E7F807E7B797C84
:1022740081868784817F80807C797C848887848040
:102284007C7876787C7F84878582827F7C7A7B8069
:1022940085827F7D7B7B8085868280807F7C7D813B
:1022A40084828182807D7B7A797C8184838281812E
:1022B400807E7D7C7C7C7E83858687817A797A7C2E
:1022C4007F8285868583817C797B7E808282828100
:1022D4007D7B7D7E7F8283828282807A76767A801D
:1022E400868782818281807F7E7D818383817F7CDA
:1022F4007A797D818384858280807F7F7D787882EE
:1023040087827B7B7D7E7F808182818282808080C8
:102314007F7F81817E7E7F7E7E7E8286827C7D81C0
:10232400807E7E7D7D7E7E8082817F7E7E7F8082B8
:10233400838586847F7B7B7C7D808385817C7A7C9E
:102344007F818081817F7E7F7F7E7D7C7C7F838493
:10235400848484827F7D7E807E7F82817C797D837C
:10236400837E7D7E7D7E8181828281818080818069
:102374007E7D7D7E81838486827F7F7B777A7F8268
:102384008483807E7D7C7B7A7B7E83878886838141
:102394007D7A7B7B7B7E8183828384807D7C7C8051
:1023A40083827E7D7E7E7C7B7E81838787837F7E26
:1023B4007D7E7F7F7F7F8282807F7D7D7B797F872B
:1023C40086827E7B7B7E7E7F81818385827F7E7C0D
:1023D4007C7F808082808182828082807B787A8008
:1023E400838180858382837F7F7E7D808284807DDC
:1023F4007A7A7C7C828381807C7D7F7F817F8287E7
:10240400837E77777A828A87857F7B77797E8082DD
:102414008382817F7E7D7C80828384807B7A7F83BC
:1024240085837F7E7E818181817E7D7E7E7E8080AC
:102434007E7F817C7B7C7F828181817E7E7E7D7DAF
:1024440081828383858780797A7C7E8081807E7C8B
:102454007E8182807E7D7F81827E7D808181808479
:102464008380808082827E7C7D808181817E7C7B72
:102474007D7F8183807E7F7F7F7F80807E7D80855E
:10248400837E7F8081807F80807E7C7D7E80818250
:102494008383827F7E7F7F7C7E83837F7F817F7E39
:1024A4007F7F7D7E7F8181828079797D8083858431
:1024B400817F7F8283817F7F7B7B7D7C7E80818423
:1024C40084807E797980848583807C7C7D8284820B
:1024D4007E7E7F7E7F8181838281817A747A858703
:1024E4008585827A767B7D8182807D7A7D817F7FFE
:1024F400827F7D81838484817F7F7B7C81838584CB
:10250400807F7E797B80807C7D7F82838282827CD7
:10251400767A7F84858788817A787A7E80828A89B0
:1025240084817973787C7D828281807C7C7F7F82C8
:102534008586847F7F7B7C808288877F78777C8197
:10254400868584827C7A79787A8083807E7F7D7F99
:10255400858483847D767C838B918F84766E6E7183
:10256400778084887F7A7A757882888D8B8A887C54
:102574007D817D828683807F85878487867F78714D
:10258400726E6D7A7B7577787A7E8691908E8F885D
:1025940086807B7E7E828B8880847F73778180793E
:1025A40079726F706D7571728282849398958F8A37
:1025B4008682838E8F8C8B84827C787A74757A750C
:1025C4007270726F6E71727582949794918F828219
:1025D4008A8584898988878B877D766A67656A712D
:1025E400706A5F647279889FA29D9C9990888C8E92
:1025F400888582808588858481736F6A5E5E6A6B54
:102604006B6C71808D9DA29C928685887E828B895D
:10261400888A897F787E796B7274655E646361767B
:102624008C949AA19F99918A827C8688888B8A84CB
:102634007E8080776C696760666F6C717C85949E20
:102644009A9E94878580807F7C8687878E877E7616
:1026540065656257686F6F7A89959A939591878EAD
:10266400918C8C8A817A7781837E7E77707168669B
:102674006D6B6C7784929A93979383858B83838510
:1026840084847C818573777C737168626B6B7386D9
:102694008E9C9C9A9E8C7F85817B7F8185817D87A2
:1026A4007C7174746A626970767E959B9190908651
:1026B40086888388858289817F8380787069665C57
:1026C4005870767C8D9A98959E9F978F8E827A7C8F
:1026D40077757A7D7E7E7A70685F5C616E798394AB
:1026E4009E9E9DA19C968D827976787D7D77808251
:1026F4007D746C5F4E506072869BA5A7A8A4A197B9
:102704008A837B76757472787B7F7D746D59565E8F
:10271400697D8E979EA0A0A39B9A8C7B726B767A20
:102724007B837E7C81766A67575E69758585949A1A
:10273400A3AEAC9A8A7D71736F79807A8881706A4E
:102744005E58646C7D8C86939B9DA19B958B787061
:1027540074757A7B7F847C766D6464717C848B8FE2
:10276400978F8D8E888581787B7D82878C897E7713
:102774006962626773848D8A8D92878D8F84827C6F
:1027840075777C8588858C8476655C636C7B8C9599
:10279400999896959382756F656571797D8A909401
:1027A40087746E64707D818D8D8E959D9B8E7C6605
:1027B400565B6974899893938F7561646E80918F69
:1027C4008E80808E9D9C9480655D596D6D7B969AFC
:1027D400937F706C6D76929381918E9296908B76A6
:1027E4006966675C6B767E938F85807979888C8A3D
:1027F40087859293949180756D5F626C6D747F8A06
:1028040096867A867E83908C84868C93968D816955
:10281400646663707279858A8478727D8A909890F0
:102824008E8E8D938B7E726F6E6E726F6E72828BD4
:102834008471707C7D90A09C94959B968B7768673F
:102844006B75746C676C7A8579757F7E8FA09F99A0
:102854008E97A29383715B5F666E7C716D7D898CAC
:102864007C6C808C8EA29B8386919991807666661F
:10287400787E726D6C7A8B76717D818799A1938550
:102884008A9F9286836B65727C7A675E70838B8184
:102894007783848EA6A08883989983716B666D89EB
:1028A4008E7059546E948D787E787D9FA9A0958CF6
:1028B4009A9B7D70696172857B6C5A5B7D94807292
:1028C4007D7E8FA0A0927F87988B8079686D7F83AF
:1028D4006F5B59769B977371808AA1AC9371758BEA
:1028E4008F827B706B7D83725C526996A9896A7052
:1028F4007A8DA8A586707C928C817B717A83725CB8
:10290400525580B39F6B677887A2A58D71708A96A4
:102914008A7C6D707B73675D5B75A6B0826472811F
:1029240099A6916A58789B9C8B7871716C6D6459E7
:102934006999B9915A648191A7A276506594A69831
:1029440086796B6065655C6189B9AB7161777F92EB
:10295400A3885B5D88A69B857A675B6B7365647AE5
:10296400AABB8E666C727F978861577FADAE927DED
:102974005E496982746C7795AF9D72636E798F95A9
:102984006F536F9FB2A1876042577C7D747E90A481
:10299400AE915E576E86907E676989A8AA8E644858
:1029A4005B8084787A818EB1B776455974838B7F46
:1029B4006D7497B59E6447577B90918473779DBEE1
:1029C40097515070747F8B756689B6A96C505D748D
:1029D400889891706C91B9AD694861748394825BF5
:1029E40069A6B082605E69829D9C73648BADB28D72
:1029F400503D5B81A0966A68949E8B7769697A9A48
:102A0400A079657D94A6A56E38487D9D9B827376DA
:102A140082938B6B657B96A18F7A787F8FA78D4786
:102A24003D7699908780626199AD846974889195A7
:102A3400927B6D7E949870425B8D949D92564B84EC
:102A4400ACA381757D8095A1805F71899190684860
:102A54006691ACA0624D6E91A89B7E74809AA88802
:102A6400615E7284A09B5B4680AA926B5C5F79ABCB
:102A7400B98E65779BA392755C5A7395A9874C644C
:102A8400A18E6E6F626498C1AB746C909488826DF1
:102A940055668BA59A685A7B8480826C6284ABAD40
:102AA400907C888D888670556081959D9776546357
:102AB400848578767B8B9EA396817C8A8D77635FF1
:102AC4006E838EA7A35A41788B7D7F7E7A8CB1B8B2
:102AD4008C6A7B847270726A73869FA875455E895E
:102AE400918E816E749CB8A3786E7A7A7C7B6E68C2
:102AF4007E9F9E82654A5E95A288707190A9A4917A
:102B040076697C8D836E5F70938E7E876C4E79AA16
:102B14009371758C9A979C8961678C8E7C6E77848F
:102B240075708C8D676792987B7C8A84839A987A77
:102B34006D7C888079817C636B87939076637A90CF
:102B44008F8E7E7489938D867C7D83808777545F96
:102B54007E8A9FA2735479A29A80757C7E8A978616
:102B64006E768997855A536B8095AD9E5B5193AC75
:102B7400876E7076849C9F82697EA08D5E54667495
:102B8400889EA682556DA4A17A69617091A2987AF3
:102B94007299A06B4F606F849FA0907C6671968F32
:102BA40075656B8698958A7B849B7E5B5F65709266
:102BB400A28F949E755F7E886E65778B92928E8DC0
:102BC4008A7768706D6D84948377A2AE6D50808926
:102BD4006B7284898B94A29A6E5669766E7A8E8A09
:102BE400788FBBA856417C8A76797D7A88A4B58B88
:102BF4004F5E857F747F7F7080AAB8944D3F799033
:102C04007B787D7B91B3AB694C748C85827A6670DA
:102C14009BAFA98A4D3F7794796D7283A8BD935475
:102C240055798F907F65658CB0AA967E4C41809DC6
:102C34007767718DAEA9755F6E8197926F59729E99
:102C4400AD9489804C44859E73647F9EAB8C6C717B
:102C540074849E8C5C5581A5A3898D8C5644819582
:102C64006A688FA792707B8474819A825D729CA03B
:102C740083758F9157447E97757799977274978B64
:102C840072808A7167849D8D747C99955B437B9770
:102C94007D82997B5D82A28F7F868370768B8E7214
:102CA4006D8A9F985A356B9F8D8E90646799A48A1C
:102CB400797A7F82868A7A657692A09A5C3271A745
:102CC40092836F587CA7A38A726B889B93806760FA
:102CD400778E9F9953307AB8A377505B94ACA08DCC
:102CE4006F6590A58C6A5E70808D979356327EC313
:102CF400A1584974A1A3988A6B6FA3B07E54617DD7
:102D0400858A9593563584C68C3E558DA09A9485B4
:102D1400697EB3AC6A4B6983827E93965C408EBFB6
:102D2400733D6F9F9993967E6C87AF9A5B517887BA
:102D3400787694A1664791AF5B3E7E9B8F9696838F
:102D44008097AB87585E7E8275798F9D6C48859B92
:102D540055538B928F9E95888B93977656637F837A
:102D64007E8392A3734B778A6161898A8E978C8A5A
:102D740093948F71606C7D807B7F8FA4774A62848B
:102D84007871838893928B95998B85796C6B75791F
:102D9400737998AC7A43548385737B88918F929B23
:102DA40093817D8078727478797F98AC7A394C916C
:102DB40091686A86928F969F8D757E8F856D6C71F2
:102DC400777F98AE792F54A89863658591959A9DDD
:102DD400876C808F7A6366757D829DB976255EB730
:102DE4009152628997989E9E816A86947659667CF0
:102DF40086869EAD5E226CBD8B4F6693A19EA09A83
:102E04007967858E6D5268898A83A4A94C2183C30E
:102E14007D4B6E9BA39B9C906E6F95926856748DB0
:102E2400847CA597332A99C4704C77A1A399998A75
:102E34006C7B9F8F5F577B8B7B7CAC862540B7BCBC
:102E4400604B7BA0999498896D89A483555E858D88
:102E54007889B3701B54C0A34C4F89ACA39A9B814F
:102E64006C8D98704D638E927A94B25D1E6EC28F93
:102E7400445495B09E9394796D92966C5776988A43
:102E84007299A241228CC97E4469A4AB8F8A8A7547
:102E94007A9C8F615780967B72A494323EABBE635A
:102EA4004179ADA3868D927B859B8157598490731C
:102EB40081B178275CBCA04A448DB8A48B938D74EF
:102EC400888E70546B93907590A955257BBD824272
:102ED4005EA5B59685928076938F6C5E7C927D6EAE
:102EE4009E923838A3BC674578B0A78082937D80D2
:102EF40097886263838E767BAB7F2A5AB99F494752
:102F04008CB49F7E8E967B80917B5F6C8A8B75924E
:102F1400A354287BBC804369A9B5907C8F857684B3
:102F24008D74667D8D7F7A9F873746A2AE62488610
:102F3400B19B7C819188848E876F6C7D807189A21E
:102F4400653673B78D475C9BAD8D788D9286868A86
:102F54007A6B768180809C8B454492AA65477DAECE
:102F6400A08482918C7D8284767180847E92986024
:102F74003B69AB9754629BA3827789908884898745
:102F840075747C75809A824D5191A76E4D7BA69382
:102F94007E88968E7F828A7D71797C7D929460474B
:102FA40071A38A4F6098A38884938F7E78838777F0
:102FB4007C857F8894754858959E665484A7938031
:102FC400868D8A80818A7C717B7A8192865C52822A
:102FD400A47A486C9F9988889092888586827374B5
:102FE40079768C916C4D64988C515796AC958B8DF9
:102FF4008A868380817F7C7F7D88947A4C518C9DE6
:10300400664B7DA6968483868A8B8C8C867F7E7C99
:103014007A8C895C4A78A17E4D6499A2887B848CE1
:10302400928C85807A7F827B8698774B63998D56C4
:103034005285A5977D7D8C928B83807D838B82794D
:103044009087515286916A587AA09E817485909097
:1030540088807E808A897B8590624A7896785B64D2
:10306400879E8A7886959790857A7781897F7F91E4
:103074007E586A8A7F6559739996808091948D8170
:103084007676808F92878C8163647A7B6D666D8B94
:103094009A8C82868888837E7E828B8B87847569EE
:1030A400717B7A797D74768187878182898B878425
:1030B400858885868D77657E89716D7876716D7E5C
:1030C4009591878787848486817B7F8E846A7E97A7
:1030D4007C60707F7C6E6D8998897E7E7E84888C0E
:1030E400868491876D728C8668697D86796F7B8D05
:1030F4009080797B848C8C8981867E6A768B8978B2
:103104007D858577676F7C888B7E7B848D91877FB7
:1031140085816D789186747C8B85726A727F8387D2
:10312400887A787F8485818A87747A938E7272898B
:1031340094826E707A7E7E7E7A737C8382838A9098
:103144007D758989737185969681767B7876797297
:10315400717A84867F87917B697D8D7B74889A9F41
:103164008B7C7D776D727A7273808C877E867F6BA1
:103174007A8F8571778E9E947B7F877B797B7B7832
:10318400707A837D7D7F71728F927D757C92958339
:10319400848F8F81757376736B747C7F897C728462
:1031A40089807A76808F8C828E97958C79706E6DFB
:1031B400747A80857D6D72847C72778193958E8D0F
:1031C4008E8D908E7F716A6C7775798578707A7F31
:1031D4007A757D868F8B858F8A86898F92867B769A
:1031E400756E707A726F767876767A8B928C868921
:1031F4008D898F8D8D8E817870676D70727B8382DF
:103204007672788189858585838C92978F8D918557
:1032140074686D726C6D7E7D707279808285899020
:103224008F898F8D8B8A8B8F80716F75746E6F759C
:103234007671717E87847F848E908A8787898F8F49
:10324400938A7E77706A6C6E6D7373737C858686E1
:103254008A908E85868A8B89878C928B7867626741
:103264006C717B7A78777B8487898B8D88878F8F45
:103274008F8D8C95917C655E63676C707979716EC6
:103284007A88919794908B868C918E8D8F92867389
:1032940066636365696D777C76757E88939592869F
:1032A4007D88999D9C958D897A6A5E5B5F65717B4B
:1032B4007B7A767780868E8D90908F949599998A73
:1032C4008079706E656971706E6D778177747C84B6
:1032D4008E8E96998B8E9898947D78827D7666658D
:1032E400696A6E6E757F7C7B8386909094978C8CD4
:1032F4008C898881818A857D66656D676D6F77832A
:103304007C79817C888E939A8F8D8C878783808645
:103314007E7F74636B6B7477757E7F767B85909408
:103324008B948F8782787A86848D908A7B60686B91
:103334006F746F7C867E828689938A93907D7C7B72
:10334400848C8482888781645E6F707C7D80877CB6
:103354007A86868A8B858A827F86878583858B8415
:103364007F75667073767E767B817A7F828A958894
:10337400838482877F828A7F7F858A8D776F736B50
:1033840073787A877E7682838A7E758183898A8838
:103394008C83808D8E8F7F646C6E747D79868D7C3A
:1033A400777675807A828D8380858B8983848C91EE
:1033B40093816A6C6F7E82787E7B7372717882806F
:1033C4008988868A878A87818894938D736A7670C0
:1033D4007A7B7A837C6E6E6E7685868C878488840D
:1033E4008A8F8C9094988F6D646A6F8078737C73E5
:1033F400696B75878B84898686848491928F8F8D7F
:103404008E866F74736D7C7A7B7D675F6E7B877C41
:103414007C908F8C868A968E868D929685686F6F47
:103424006E7B79817E6463737F8C807E8887887FDE
:103434008396938E93929A80656F6D788178776C7A
:103444005F6E7C7E838089877F888C9192898F953B
:10345400898C7E71776E79807879705F6A767C84E6
:103464007A838782888D9896868F9C969575636FEC
:10347400707E7A697273677376808A7C8180848DAA
:103484008D93958D92948F92766C7272837B686E15
:103494006B626B6A7D8D83878790978E8F8E869102
:1034A40097978E6C6C76797D6A626F6E6D73738399
:1034B400877E83818B938E9397929796958F6A6577
:1034C40070787B64627371686D738A8B7D89888F71
:1034D400948F94908994949283656E777B796365D5
:1034E40072716E6C728A86808B8C95938A94948A9E
:1034F40091919481606C76786E5C6B78706F738058
:10350400938680858491918B95918F9691947C601C
:103514006C767D6E5A68746E6F73808E7E808D8B30
:10352400959490998E8B928D8D7366767B7F69606E
:10353400737069696B838D7A81898E9C9492948669
:1035440087949893756A747B7C615E6D6A6C7577F9
:10355400898C7D858286938C8F928B939897886FC4
:1035640071767E7860666E646D747A9086768183F7
:10357400939B918F8A899193947E6A717581776206
:103584006C6F6A7373788A827F8182969D938C8B29
:103594009294918D736D73717D73656B6565797E9E
:1035A4008488818683879899928784969994876D75
:1035B4006F71727C6F696D6162737E8B8A85857FA2
:1035C400899699998B869495947F69716D717F78AA
:1035D4006F645B6D7E83857C7F7F819499979688E9
:1035E4008C99958F7569746E72797976615B728145
:1035F40086817C887E7E91949995858E98958D712F
:103604006A6F717C807F73595B76828475788E854E
:10361400879191988E8190979080707677767B7A57
:103624007E70596374828A797E8B80848C90998DA4
:1036340083949C9779666E717B7F7E7F695A6C77E1
:103644008585778385808A8D92958A8E9A99866AF4
:103654006A73757B7B817F625B6D7989827C8886E6
:10366400858D919791858C97997E666E777C797319
:103674007B7960606B7C8E817E878B928B878E8F4B
:103684009394939274676D6F7D7E7A7D6F6066709C
:10369400828B8180828B90898B8B8E999591836AA2
:1036A4006D747679777D7E6D656E7C89817C7F858E
:1036B4009187818C8D8E918F8F7E686B777E7F7AD8
:1036C4007D7A6F6C6F7C8384837E8B9A857A828803
:1036D40096938880746D707A817F7D7A7777717222
:1036E4007C7F898B7F899085858186959487777087
:1036F4006D717A80807771777E767B82828781850F
:10370400948D7E7F84929A8E7A6D6E6E75797E83A7
:1037140076708082747578888D808B958D817C8598
:103724009595846F6D706F7B7E807F707082857ECF
:103734007978888B8B959083757A8E96927766705C
:1037440072747C7F80766F7C88857A798389898E90
:1037540091908473809194886D656F71737E847E7B
:103764006F6E838F887776828694948B8B7C768C2D
:103774009A907764677477757C7F797377878E8284
:10378400767F8589928B8A8D807C888E8572676826
:1037940071757A868073737A8D9582787C80929B1A
:1037A4008D847E7C84908C7465666F79787A817957
:1037B400757C838F9182818285918E8883807C7DC4
:1037C400857F756E6C747A7D808075727E8A959023
:1037D400827A7E8F948B807880878783736C696A02
:1037E400767D7E7B7B7E8486898E8A837B828E8BAC
:1037F400898583857F7C787073706E7780827A7216
:1038040077828B90908C7B788A938E837C84888358
:103814007A6E686970797D7E7D7C7D828686868BF2
:103824008A83888C8A8982848982766F73726B6DAD
:10383400787F7973787F83888E959384808B8A8A46
:10384400827C858C8874656A7070737A7D74727CEE
:103854008789878C959083888B888683898C8578E3
:103864006B686B6D6E727979767B838887889195A6
:103874008A858A8D8D83828D8E806B61656B6F7274
:103884007A7C76757C8688868A97968C8B8B8B88D7
:1038940082868C87726265686E71767B76757983B1
:1038A40087878891999691908A85807E84887F699C
:1038B400626A6D7172797972757F89888991999636
:1038C4008F8D8C858080868A83746464686C6F7243
:1038D4007B7A757B8A918C878E98948C8A87837E79
:1038E4007E888C826D63666B71707477787C828A53
:1038F4008E8D8A8F94928D86808282838885776666
:1039040064696D71777D79757D888988888F9592D2
:103914008D8B8985807F858A806C62676F727378EE
:103924007D78727C878C8B888C94978E878688852B
:103934007F82877D6C666C71747476757279838509
:10394400858A8D9092918D858184858586847A6D12
:103954006C717372757A777278828682858E928C96
:103964008688878481838888837B7370737677776E
:103974007B7C7A797D817F7F878F8B838183828330
:103984008584837D797A7B7C80837F7C7F7E787756
:103994007A7F818383817C7B7C7D8082848584841F
:1039A4008687858586837D808483807D7E81817CF6
:1039B40074717274797F8587858081888C857E7F18
:1039C40081838684817E7D7D7F7F776C696C707551
:1039D4007A7E7F808080858D909091908F908D8865
:1039E400858483828079736E6B6E737A79736E715A
:1039F400787D848585888C8F8F8A8683868C8C8459
:103A04007A7576787776787979797B7D7C7D81840F
:103A140084848586888986868989857C767574768A
:103A24007B81807B777B8284828181828688847F8C
:103A34007E808387847C716E7275787A7B7E8385C1
:103A440083807F8187898B8F918F8A86828283810D
:103A54007C75716F6F757C7B7471757B7F818489D4
:103A64008B8D8D8B878384868888837A72757B7A25
:103A74007777787877797E8384878A88868786863D
:103A840084848483848680746C6F7477797A7B7A77
:103A94007B8185828183858787878584888B8981DB
:103AA4007D7D797777797C7A787878787D8183845D
:103AB400868786868889847F8083827F7E7C7B7AE2
:103AC4007A7B77757674777A7E7F8082868A888718
:103AD400858684828484848382807C7A7B7A7878E5
:103AE400787B7B7E7F7D7B7D8386848486838383D2
:103AF40087858382847F7E7C7D7C807E7F79797FCD
:103B04007C7D778278847E8A7783807D8D80877DB3
:103B14008A7888837E7C80817D7A7F7F7F7E7A7FAE
:103B24007A7B777B7F8282807F8284867D80848992
:103B34007B7B807F857C827C827A7C8277856C83A8
:103B440085779282837788857B817E8A80827F8253
:103B54007E7F857B827E7F7C7F7D817A787B79877F
:103B640072807F7D827D7C868080857B827A7B7F6C
:103B74008382877A7C848388858681848083807E1F
:103B8400837B7D807A78747A7B7C79767777827D83
:103B94007F86847F8785848687878283817F8180EF
:103BA4007F837A817E82817B7F807C8381807C7C21
:103BB400847E827B7D7C7C7E7F7E7F7D7E7E7B821D
:103BC4007F837A82877D8982888381807C7E7D84DD
:103BD400787F78837A7F817E887D8783827E8184E3
:103BE4008185827F7D7E7D7B7D7A807D79757C7EFB
:103BF400777C7D7A8180838683857E8B82828882AE
:103C040085878686817E8179747D7B7A7B787F7CCB
:103C14007C7D808585828585807F81807C7D867F93
:103C24007E757B7D7A817A7F7683807D7B7F7F7DC5
:103C340085848E86868A8280877D807B7B7E807A5F
:103C44007F7C7C89777B7D7B7C82797F81818A887C
:103C5400898283807D827A7F7D817E7E7B7B7E7D6F
:103C6400807A83787D7883807A8B7B838283907F4C
:103C74008582807D7B847B837A827C7F8179827E4E
:103C84007981797E7D7F837A8B83887E7B8680862B
:103C940078858078857B8779817C7A7E7A7E777F48
:103CA4007C848581808782847E7F7F7A817F81780E
:103CB400827F79857D8272827F817F78857D8D7F09
:103CC4008B827E867C827E8079777F857F7A7C84F6
:103CD40084827E767D7580858284838681847E81DC
:103CE400777C81807D7A837D817C7F7A747F787F05
:103CF4007B857D8C8B868E7E827D8A7B7E7B80829B
:103D0400877B7C797C8273886F7E7C828389877EC3
:103D14008B84877F7F82807C82777F76827D7982A5
:103D2400737F75827C807C858B85888288837D8384
:103D34007F74837E7D7D85787E7E7A7B7A7E7B84AC
:103D44008A85828A868A85837B83767B7B7D7A7D5E
:103D54007D76847C7F75788083847E86888587825F
:103D64008D7D84747E7F7988747C79807D77777E7D
:103D74007C7F8486847F838486877B7D7C7A807D38
:103D84007B7E7E85777A7D7A847786798D81858A34
:103D94007F8B7C8475857D79827E84808181788423
:103DA40077817F7C8F7B8F7B8A7F847D758774840A
:103DB400768579807F7E857B7880817D8787808703
:103DC4008B7F857A857C8278817E718877817E7805
:103DD4007B787881807D8380878C827F817F7C82E1
:103DE400838182818D8B8187827E7F8A857C7E7CA4
:103DF4008C737A767275677B747B777E7E82857E20
:103E0400847C878A888E8E8A948883887776757B6B
:103E14006E6570776C657C746E7983807D8C909010
:103E24008A8B998688978987888D7E806E7279655A
:103E34006E6D75696F7B8478718E878A92828B88A8
:103E44008797998D909881888C75736A6F7C686761
:103E5400726F616A7A7E737992908E929B9A998F2F
:103E6400979B879098867B80766A6A6659575766CF
:103E74006B5A7F947679A0A68D99A5A79895A59558
:103E84008B858E7E6B6D66614F555E615B4D628284
:103E94007B7B99A7989EAEACA7989F9B897C8D87C6
:103EA400707972625E54494D585E57677D84909E66
:103EB400A5A5A3ACA4A1938F989085807F73756A00
:103EC400625B50495E6859647F818095A3A6A0A374
:103ED400A8A3918B928A837D757D7E7766605A5BF9
:103EE400616669676D829198A3A4A99996948F8E4F
:103EF4008B8A807A797D7B73656B5E51657A736E8C
:103F04007F8A8F93A7A89A9398988F7F7C7B7479E4
:103F14007B7E72696E6B5E57717C75768B979AA502
:103F2400A89E8E9295897A747171706E757A757186
:103F3400786E535D7B818087939AA1A9AEA68C7F0E
:103F44007F767071686567757D756D727967607469
:103F54008685858D9A9EA4AFA996857E726D706FB5
:103F6400625F6770757575756D62768C8A899197D5
:103F7400A1A8ACAA958A898774625B5D63646C7737
:103F84006E697D72637387858C99A0ACA5ABB8A963
:103F94008077827C6B5C555C646D7D725E676E615C
:103FA4006F8B8F8F9AA4B0B5ADA9A58F7F7D736BEE
:103FB4006658525F6B736F68685A55779797969AED
:103FC4009FABB7BAB59B81828274675F58535169BE
:103FD400766E706A5258839B938D98A7B6B6B4B325
:103FE4009E7D797C6A5C5C5E56546C807E78553527
:103FF4005E9BA096908CAAC6C6B7A07C6E7B7B699C
:104004005855646C6C6A6F77694549849C93989D94
:10401400A2B1B9B3AB9274727B73665E5C6368657C
:104024006F8576484075A19A908F96A9BAC1B78ECC
:104034006D7B897C6A554A5B757D75707364465FD8
:104044009D9E808296ADBCB5B3AA816E7D7C6B6269
:10405400554E66838279795E39528FA2948182A704
:10406400C3BFBDAD7D6779857865524E5F798E8219
:104074006D5E434787A68D83879CC1C5AFA7916FAB
:1040840075837566594B5E7986857C673F4380A648
:1040940097867C8DB5C2B7AA916F708482715A4598
:1040A40058778C907B593E4A84AA98817684AFC60F
:1040B400B8A38F76768787785D46516F838D876A3C
:1040C400464376A79F83737DA6C4BAA59880717C66
:1040D400837C6345486C8B938D7347386CA7A587A5
:1040E40074769EC4C0A6907B737B7F7D6C4D4866BE
:1040F400899A9474483A67A6AF8E737495BEC2A722
:104104008F7B70767F827353486384949580513398
:104114005BA2B3997E7388B0BDA9927D6D737D85D2
:104124007F5F485A7C8F998C5A35559EB69D7D6E1B
:104134007FA3B8AE9880717681827B624B5A7B9163
:104144009D8D64465288AA9D83727699B3AC9A8AEF
:104154007A7073788075544F728C9C9A734E4B703E
:104164009EA58B79728BB3B39E907768757C7B78B0
:104174005E4D6A909F957055516690A694827880A2
:10418400A9B2958C85727579767D6D57627C93960C
:104194007966605C789F9F93826F8AACA3989477CA
:1041A400696F74867E5853718F9B7F6571646290CA
:1041B400A1938D797DA8A99298876A70737682708D
:1041C4005566818F81677C8560638F9B9F8F738920
:1041D400A798979F7D636670808462526D8E8F73FB
:1041E400778C72527499A69E78729CA993958E725C
:1041F40067676F84805F5B7D8C756E919A654E7581
:10420400A3B09B72759B9E959E8E645C687A8F7F2B
:10421400585C7E7D7283A191564481B8AF8A707ECA
:104224009A978D9B9063576A818F785E70786672D7
:1042340095AB974F3E8CBDA78A707095998EA08ED2
:104244005D566A8497795C6E6D6685A2AA8F474233
:1042540094B7A4906869999A91A387555B728793E0
:104264007E65665E6A95A6A1854B488EAEA8976D5D
:1042740068939D919A845D5E7587918A6C55557695
:104284009BA2957D5A5281AFB596695C84A49B8E9E
:1042940084685E78898D9173454D799DA18C7F7B6F
:1042A400666894AA9D7F64719B9B878B7D656E80F5
:1042B4008A997C4247789AA5917984775D7EA79DF7
:1042C400876F6892A07F7E87726F797F978A4C4B45
:1042D4007E91928B7A8D96615B99AD947C67769989
:1042E400867289887375809697593B70938D85770C
:1042F40089AF8A5171A19883766E83846F85A38D6B
:1043040070708294734C5F868E877C85AB9F6256F7
:1043140083988C7F757880787D989A7A6D7E8D7D70
:104324006165808E806E7B9EAB8E5B517D9F938892
:104334007D6A707B899C9771728A80716F748285A3
:104344006A6D909DA39057528898898B7462798482
:104354008DA496757B7C6B737B777E76677F9D9E41
:10436400A4894B538A97908B6A63848990A391752F
:104374007B745F75857E7F7167859C98A48B4A4F9B
:10438400839B9C8B6564838793A18A73796C628514
:1043940090827563678E9D98A28C5351849F9882F6
:1043A400646080878FA19880765F5B8A987E6C6357
:1043B4006A91A19BA58E494786A196815F61898FE9
:1043C40090A2957C6D596494997D70646F929894D1
:1043D400A889424686A69E825E63848C96A4987BB6
:1043E4006658709C997B645D73979693A487454B3C
:1043F40088A4967C5F66878C94A69E8167536E9E84
:104404009B77605972989B9CAA853B4789A7977AAA
:104414005C678E96999F977E65526E9A97786260D4
:104424007997929CAC8338468AABA17F5F6689906A
:10443400989F927B625476A097715A5A7D9994A062
:10444400AC7C3A5391AB9F7D5B6884889AA5907D40
:104454006751719F95705D587C9C9EA8AC6E345DCD
:1044640095A999755A71878CA49E85766250759B1F
:104474008D756565819B9CA8A25B32659DAA9C791C
:104484005D70808EA79D806E6158829A8872616487
:10449400829999AF994E4380A09F906C61788394E0
:1044A400AA9A7D6E605E818D816E60698C9FA5B0D5
:1044B4007C3B5292A39E886769818A9DA6886F6B14
:1044C400626781857F7167768E99A8A26143719C2A
:1044D400A19A7E6573808AA29C756A736A72827FD0
:1044E400776D6B7C95A3AB834B5B90A19A8C6E6AC2
:1044F400777B93A6876A747A6F6F757F7E717485F4
:104504009CAE9D5C4C7C9A97917F70757486A5983F
:104514006B637882776873847C768190A5A56C46FA
:104524006B979C91827A7D70769CA47D606D898C5A
:104534006C63787D767D899FAB7C476296A1927F80
:10454400767C787193A68C676681937A5B6A7B7BB1
:104554007C8896AA8B505690A6988372777D78892A
:10456400A391695C79978D5F5A717E848C939F9136
:1045740056558CAD9F877074817B859A8C68596F72
:10458400989A6B556A7B878F959B8B545796B4A0EA
:10459400826B74837C8999896A606B939E724D5E89
:1045A4007A8A92959E87535A97B3A681646F847DC5
:1045B4008B9B896B5D6A93A3764C56758F9C9A98F6
:1045C40079516099B2A6806573838691967F645C05
:1045D4006D93A082574F6D95A79D855F5374A3B2C9
:1045E400A27D686E7D929B8E705E617E97997F53EB
:1045F4004A6E9BABA2774B5A8AACB096716A7281B1
:104604009CA1876A5B66899992744C4978A4AF9996
:104614005F496E96ACAB8A6B6A7595B19E745E5FAA
:1046240073878D8E71484C85B4B077435886A2AE9B
:10463400A08370687FADB2885F556A84898B866673
:10464400435897BB974B467B9FA8A392846F6C9962
:10465400B79D6F5658778C86837B594F7AA8A76D80
:1046640048618FA6A5988D776785B1AE825E576E37
:104674008083827E6855699AA7785662829FA09546
:1046840094866C79A7B18F60536D83807A7B766E44
:1046940067859B795E687B95A3918D8A757DA0A6BD
:1046A400916D55668080797972797F81847065789F
:1046B400828B9E9589867A84A29F88725F6B7F7BAA
:1046C4007477717E9086716063808E8B93938B81F7
:1046D4007F93A3957F6C67737D7777736C839C8DD1
:1046E4005F4A648E9B928A8C8A7E82A0A98C7369AD
:1046F40075817D6C6F6F6C88A592503F6997A39309
:104704007E81877E8FACAA896D6579877C6A6966AC
:104714006E91AF8F453A6C99A5977C82807798BA51
:10472400AC805F64838D7A69645F729CB9863A3722
:104734006F9CAE9A797E7877A5C2A57754608A91EA
:10474400796B5F5E7EA7B277313D7CA5B09A7C7AA7
:10475400717CB0BF9A695067908F77695C5F86AE51
:10476400A865304982AAB3967D766E8DBDB98D5CFD
:104774004C70948C7667566491B09654325790ADD1
:10478400AD927F71749EC2B17E54567B94887361DE
:10479400556998AC81463B6495B2A8917F6C7AAE1A
:1047A400C4A8744F5C859384745A5375A2A46E3E56
:1047B400446F9EB5A48A736889BDC29E6B4E648E95
:1047C400937D69545982AD9B5B3A507AA8B39A8021
:1047D4006C6C99C2B89160536D8D907F60526894EF
:1047E400B08B4B3B5A83AFAF977A6473ABC4AF843F
:1047F4005551768F897C5C5272A5B3803E3F628EA0
:10480400B4A991775F7AB8C4A6744F597C8C887721
:10481400595679ABB07137446A99B7A892745C80E1
:10482400BFC5A069485E80898879595480B4B16550
:104834002F47749FB4A68F755981C6C99660496382
:1048440087858376585584BAB15D2C4E7DA6B1A276
:104854008E6F5487CAC59057486A8B8385755455A3
:104864008ABFAA552D5582ABB19D8B6D518ECEBF9B
:104874008B58476C8C82867655558DC0AE4D2A5D1B
:1048840087A7B09C896E5090CDBC8A594A6D877EAB
:104894008275565B8BBCB255265C8DA2AD9B8A7526
:1048A4005789CEBE865A4D6D867B7D75555687B821
:1048B400B966265190A0A79D8A7A5C7DC9CB8D5E8E
:1048C4004F67848079785C5178ADB7823442879A97
:1048D400A0A18D7F6D69AECF9D6D5B5D767F767C8B
:1048E400705E6B8FA49C5F3A6F94969F9186896FDC
:1048F40080B6AE87745F667C6F7582746C757F9AC0
:104904009658527F888E968D9C8F6884AEA0877748
:10491400656A6F6880917861627DA89A5A5D827534
:10492400819CA3AD825580B09F8C7B62606372973B
:1049340093624B5F8FBAA15C59726B86B4B6A3685D
:10494400487FB6AC9173565A6A8AA0834A4569A5D2
:10495400C4A5594B66709CC0AF895D4482BEB08BC0
:104964006F505C7D9394734A4E7CA6C0A65F445EF0
:1049740079A7BB9A7D604B7EB7AD8B6E556B8486F1
:1049840080745E627F98B2AB6E4064879CA1907E17
:104994007A5E6CA4AB887871767B646E8281707A5F
:1049A400819BA983596B847D848D8E8E755B7F9FDB
:1049B400968F8F766052678F9B827071829BA083E3
:1049C4006F74666A8A9E98885D5C85A4A8A0734FFC
:1049D400536891A5937066658AB4AD775B585E821F
:1049E4009E9C906E4B6FA8B9A071506173899E9C78
:1049F40080605A7AB1BE8B4F5162708D9C95815AFA
:104A04005C9ABA9676686B7E7F899A92625E7B9D89
:104A1400B29A5F4C64667A9594847C6C809B8C7C9F
:104A240086807D807F888B796E8289959B83595798
:104A3400666F7D8D899191706C7F8C929984817E53
:104A44007172868D8C82738A9A7A56656D6B7889B9
:104A540099AA82506490A0A3997F7B686180A49BEB
:104A64007E63668D9A775C67616283A4AD9A5A47C8
:104A74007EAAACA68F72665C78A9AC7F64586E99E6
:104A84009E71565A59739FAE9676555F94B4ADA4F1
:104A9400825B5C799EAB8C62595F7EA69E644855AE
:104AA400698EAC967A766472A1B3AA96695F7F8F99
:104AB400919179605F6586A8914F496B8597937B47
:104AC4007F846F81ABB09A7D667E92837B806F65B5
:104AD400696F8EA27B485D8389847B7D928E748C02
:104AE400ACA388777D948A6C6E79726A6F7991939E
:104AF4006D4E728D7E6C768C9F937892A18F7F8D94
:104B0400958F76606D7C736B757D8B8E685B81820F
:104B1400646E8A96A58C788F9885909F9184695F3E
:104B24007080737172758B8B6A66816B5D7E959EE6
:104B3400A582739193899EA38977615E778172724E
:104B440072768E886273835F5F8999A8A574789260
:104B54008890B29F816D5462817D71786E7891796D
:104B6400648078556E8F9DB5956E86917E9BB092CC
:104B74007F634F6C847678796C808E6B69876D590E
:104B84007A93A5B28474938C82A5A48A7B565377B6
:104B940081727D7670907C597C8F6562838BADA623
:104BA40076859C8186A99A8D7349597F737386771C
:104BB4007E895B60968A636F7C92B48A7A9C9875CE
:104BC40091A494895C4C717D6D7A827E8A6F4E7F4C
:104BD400997B67757FA1A37B90A489799698927A33
:104BE400575F7972707E8093874C518E8E7F7F776A
:104BF400889F7E7CADA6827F858B8F7461726F6582
:104C04007980959D5C396B8B889C8B7A917A6DA1A8
:104C1400B79488786B8B876F7E7A5C6B7D90A7796D
:104C24003A52787999B19586745987BAA7938D6861
:104C34006377748A946D5E70839F8C50546F637C29
:104C4400AFB2A67C476CABA399A28264575B86A9DA
:104C5400876A6D76918359627D646696ABBEA25570
:104C64005D918E92A9927C6142669E98847F798A36
:104C740070466693776A8791AFAA74748F787B9C29
:104C840092867554597F858B99948D5F3960918490
:104C9400848F87998977A0A76E6C898688746275DA
:104CA4007D6378A2AE9E573560847A94A19791660D
:104CB40065A6BB897676706F636D9493646088AEE5
:104CC400A05D4E71786D88A4B29C5A5C97ACA09894
:104CD400785F564D6C9F9979757B8B7C5E76937962
:104CE400718498B092627B9987949E896F4A3F6BD6
:104CF4008F8286959376485791A288858B98926F78
:104D04007AA59D7B7F80867E575171726A88A5A3A0
:104D14006B3C588E9B9D9B9F9D725F8FB197847750
:104D2400727168697A715E6A8DA680535E787A8E34
:104D3400A2ADB88C5B769D98958C766A56507A9322
:104D44007963748E7E535C8992868594B4A6737F4E
:104D5400A494808281816847577D8286908D7043B8
:104D640044789D9C9B949990758CB1A58B7E7176AB
:104D74006E5A63736A6F91AA8F4E3A5B7F93A0A9B0
:104D8400B18D5B77B0B4A491766A5A4C67867B6D1B
:104D94007C8F83665A6474818B9FB59F7476939DD0
:104DA400A2A2927D5D4256797D849288664B5A8692
:104DB4008E7F82939F90788EAC99878E93876C5167
:104DC4005F747279969B6C3E40749FA69393906F28
:104DD400648BB1B39E7D73796D66787F75798A89AA
:104DE400674E556F869DAEAE8F5C5A86A1A5A89876
:104DF4007B5B4B658E93878C8E6E49506E868A8959
:104E04009BB496656385929497958D6945557F9378
:104E14009DA59662414971929E96989378778B8965
:104E2400858B86847A636172707C9FAF93624556EA
:104E3400748999ABAE825D6B95A3988379725E5544
:104E44006C848583939D815E5C6D7C8C98A9A37C26
:104E540060748798A59B7D63494A6C8492A1A17A6A
:104E640057536F8A99989DA08369758489928F9509
:104E74008F654154687790A8A37B4C4A7094A8AC82
:104E8400AD94695B778E9D98867B776B5F5B637768
:104E94008C988A72615E6C90ACBAB08A66697586C9
:104EA4009EA08D73595876756A7993886A5B6C7F76
:104EB400828AA2BAA87D717D808590988F724D4FA9
:104EC4006F878587897259576C869E9BA2A8927AB0
:104ED4007D85888F8B88816A575765819E9A795B17
:104EE4004F576C8DA7B7AB8C757D898C94958D7A53
:104EF4006B5F6263667FA5A5754F4B556B8EB0C320
:104F0400AF7D687887959FA190715356646D788CB6
:104F14009B9173554F556F90B4C0A67F6C6F7E9B69
:104F2400A9A792694B53637189978F7B6D5E535D1B
:104F34007897B1B19683756D819EACA790695050F6
:104F44005E77969C826C67635B6583A1A9998C8963
:104F5400786B82A0B0A6866857535E829E9A785F6B
:104F64006269696D8A9F9D8C89877C788297A8A4E1
:104F7400856F595466899A90745E636B73798E9BBE
:104F84009082888A807F84929D99887C6654658A01
:104F9400978A72606269798491968C828181838711
:104FA400878F9595867869616D878E82776A60634D
:104FB4007E8C91938C8983787C8B8B8F9290847375
:104FC40069687686897C756C61678393908E8B8C17
:104FD400847A818984889193886F64687984847DD4
:104FE400786C5A6986928C8D8E91857D868B8381AF
:104FF4008F9088726869747F857D776E5C66808E19
:105004008C908E918981858D8584929186726B674F
:10501400707E8880776D61697A81869091958E869D
:1050240084847D86969889766A6666758E8A7F7191
:10503400696A73707C9497969990837D7081999F27
:105044008F816D5B5A678C938374746C6561709304
:105054009C9CA2A287736C7E98A09888755B525C16
:105064007B968B7A7C745E4D618AA6A0A5B09676F9
:105074006A78909F989384624D566485938988805A
:105084005F43527599A6AAB2A8796E7C89929595C8
:105094008C765453616A7B98978A694C4E6B7B92E9
:1050A400B3B2AA937F818C8285918C7C6F605E629F
:1050B4006183A08C69616168687998B2A199A59BA4
:1050C4008C7B7D8184797E80735E5C6D818273725A
:1050D4007A77696D7C8D8F9EB0BB9E847A746F6F76
:1050E40084918C6F696E63546984918A7F79715F4E
:1050F4006190B6BFB0A38A7157637F92908B8D780D
:1051040058414C6D919B9D95815B4B6292AFB5B3B9
:10511400A68563626E83818C9A946C4E4D5A6D821F
:10512400A2AF956B6169717894A7AC95887F7D7304
:105134006D838F93786D6A7067697F949688838393
:105144007A696474888D979FA3877C78766F6B7C6B
:105154008B8F7D76756E657797A394816B62565CB1
:10516400789EADA2A5917C5E5B6D8B96959C8C6DB3
:105174005C5D71949F99856E5554576F8B9FAEAD4E
:1051840099726669768592A09E88736E716E798233
:105194008E836B66686B62748E9D928D9390887D0E
:1051A400808E8F858790907E716C69606D7A828025
:1051B40075736963687B93ADAC9E988975728093AF
:1051C40096999478684F475F898689917A5A4554AD
:1051D40077A4A9B1B8A487747484928F8E938056EF
:1051E400515460728C928A7453535C7194A9A9B41B
:1051F4009A8F968D898A8382826F696C6C626580CE
:105204008D7069626F7B768093A78D8FA7A4A19C14
:1052140088776B69667A887A716F6365686F797E5F
:10522400897D81867B7D9BA9B5B9A488715C5F7FEC
:10523400788E8D7C694A4E5A84908B8C887D645A12
:1052440083A4A3B4BF9C82785A6C828087967F57CC
:105254004F4E6087968E9689616068789E9FABAD4D
:10526400988A7C778179819076765F556D69799893
:1052740095947C606C7E728AA2899C8486A58B7EC0
:105284008D8977706A5D7576698290877B77697896
:10529400808083827C7782A4A69F9A83867D5B65C7
:1052A40076738B798285777369787A8E89746F6760
:1052B400728C9CAFA99C968F6D6570678E8A819065
:1052C4006E5C7476797D8A79716F556A888EA5B71C
:1052D400A99984686C7C7A888B8F7467677B7588DE
:1052E400827F8864595A817F92B1AEB1AB69718073
:1052F4006084A18897845D6B70697A976A6F5A425B
:105304005D6E7596A5A8B490787D79768F8DA394FB
:105314007B7170678296828B6E604B57607E9FAB09
:10532400ADA99670616B788A8C8D94776F5C676297
:105334009389847352695171769EADAEA5A48A8413
:105344008F7C8D979C897E566B6F668F8773584EC2
:105354004F55646E86A3A397998781849F9491A0E7
:105364008691755F7A768FA774664D5D5162607C15
:105374009F8FA69D9A707C7B919C95967F6D75738B
:10538400868F7A906E4C644A537B718AA397989661
:10539400738185838D9195907C6D828E888A768ABF
:1053A400745F5E5964799692AB9D9185847883711C
:1053B4008285878678897D7680957F8360635F5D4B
:1053C40076889FA691A17F6B805E768E87817A63B3
:1053D4006E73888B959F8C797E5F707F7EA694A474
:1053E400847C6758676A7D7E827267636D7286A566
:1053F4009E9F938C8F897899A492A18E824D69592E
:10540400537D5E6C7D615F857583868897A59C7FDF
:105414008F9DA1AD8E9BA47468606F514B6B7D749E
:10542400717474717284929CA09B8985839089A302
:10543400A99A6D5370686A73766261718F857E9ED6
:105444009D9091967B62688DA28776736A6182973C
:1054540081777B867C798F9985A4B48E7371615230
:1054640067677475727E867A54618894ACAC9E8D3D
:10547400869EA8A3A496847F614F48364677877991
:105484007061647B888489A6ACBABBA5A48D89A10C
:10549400956E645144413F4A4E698799A498726A53
:1054A40094B2BBAD9A8D9A998197855D6076684276
:1054B4002E446184A1A6A67F7FB2B99A80746D73CD
:1054C4008B83716B64728C7469666492AA91829AFC
:1054D400968DA0A2826D5B74825D4D545E7A948534
:1054E400696E8F91A4B1A5A4A1ACBA876D6D55580E
:1054F400667256415777715F687F7C88B4AD958931
:105504009EB0B4C4B08F776A6352565C585F6667C6
:1055140064576899A6A194868C8F879AA48F8795DF
:10552400A5927265675E545D716B6E83878B7D8017
:1055340094948E8F79636F777B939C9190827A8019
:10554400727B8D8387867D80837A787158596A74DB
:105554007C8F8B7C837D7B97A39EA39D9185828E7C
:105564008576807E603E43626554678F8F7883AB17
:10557400AC8B8BA6A394A1AB8A636C786569766EB9
:10558400635C5C544E6793AF9C9CB98870A5B391DF
:105594008381786F69717166648891675B636476EF
:1055A40095A2A098A6B19075756971948573655894
:1055B4005C6C87947C6C848C7D808B96A39D9F9C73
:1055C400725F807F607079625C8398715B6F8C938B
:1055D4008DA0966C6D97B59680918A6D61776B4CB2
:1055E40069A19B706E6C698AA490857C68808A79B5
:1055F40091927C95A67F5A536686928776797E929D
:10560400A3938477707B886E525A6E8399977F73C5
:105614007596AB83677F8B90A5A788727E89867009
:105624004F494D4E6F78677CA0BFBE8F7378799ACF
:10563400C0AF8170787B7F83846F4E52624C3E563C
:1056440081ADA98E959891A0BAB0816D7B81848B30
:105654008169536373605C687488796C8B8190B6DC
:10566400ADA68F73798B8D8A876A596D7B87856721
:10567400686D51577D939EA3ADA699857A837B81EE
:10568400775D616F797F80869893727E8D6B646697
:105694006D8798A6ADA7896873756169726A60762B
:1056A40090928C8CA3A2847F7A727B7A7C80706ABD
:1056B4006F85938F8A685C81957B687C8B8699AEB5
:1056C4009C7E7E81827E6E666C7274725F577CA350
:1056D400A9A3836D6E769EA7857C898D8F8D8B752E
:1056E400485C7A6B6C6C798F8E83696A888AA7BDF3
:1056F400988371749DA192795F71715B6766496447
:10570400968B71738596A4B19E766D94B5A08A78B4
:105714005A6F817C866D5065816D4D6475668BB35F
:10572400AB968DA7B39D8B7259638193936F557418
:105734008170646166657EA791697499AAAEBD9B08
:105744006F78716F706574839B96634E6473708514
:10575400956E5A7D99A6A08A899A89849D7A6382D6
:105764008D79505E7A7089A59356467D82819579AC
:105774007283A0BAA487798198885E5D6F5C608427
:10578400887B6A8AAF957B5E5D78728D9B848291FB
:10579400C4AF787A625576827B6662787F82968F10
:1057A4007E979B896E54616D96A460608088A5B0D5
:1057B400BD9344638D73696E877E587F9E7D82B2EC
:1057C400C7953D44584086AD877E718CAD9DA89F9A
:1057D4006057746E5364908998A488878A94A17FD3
:1057E400585C4E5585897562738F91AFBC9D8072EC
:1057F4008989475B9C88848B89817293A6825743ED
:1058040048585E6F887B85A7C1BE95969C8F897C1E
:1058140072665C76847F81707681696D705452748F
:1058240094846E7998AFB4C6C5916B869877625F9D
:105834005F56597D847B747B957241687E7C9AA205
:10584400A88B78A6B3A99E8B7669746E5C5D636839
:105854006F7A6F6A6F7597A0898493959195806E1E
:105864007889968C858B7A788A754D4D707C6683A1
:10587400A2888D9E9F996C6687756771707789A6DB
:10588400A676637E7C7B978C746075938C868987FF
:105894007E777B746A778AA77A4E6571899EA69013
:1058A4006A739087959972787C76726479958C97EF
:1058B400884E587A8E9F947C6564829492957E7704
:1058C4007B6E828B80919B856A516683929D957FC6
:1058D4006871919B836B6068647A948592999384D0
:1058E40064737D84B89C606F6D7E9796936E6160DF
:1058F4006877777A7A7B8A887A84818F9A8B9A8779
:105904007099A69570596B5967846F70728BA488CF
:105914007D7C7D878F9183757E85848B827E757077
:105924008C786279686D84787E7685A7A1AE97714C
:105934007D838E8A6D716652686E728790AA9C60B0
:10594400617288959FA4756E878A999E877862692B
:1059540071708376716956616F7494ADAF95789D5B
:10596400A28EA1936C5C6273787D7F738383727E55
:10597400847C6E6C6F6F7A909DAAA28A7F758284F4
:10598400868C706A7264767C6E8A8F8F8F79868536
:1059940078846F6A817D898A7D8B7B768B86888209
:1059A400748180828D857D787C8B91877F747B75F3
:1059B400626C7B8482828775738A909197918484C8
:1059C400846D5B6E81867B7E8D8E877B736D677045
:1059D400868A8F9D947C6E7C93A0997C615F6B75A5
:1059E4007A7C8D887B787E8B928F826E697D8386AC
:1059F4008C817D8184827A868C766C82806B6571E1
:105A0400857E90A694818992877B7C7C6B6C818651
:105A14007C7471676D88908886928B72768C91897C
:105A24008D928C878A806F667278747D775C4D6402
:105A3400747588A29986939D938E93948D878E8591
:105A4400817E777573787463606E6A5D6278786F4F
:105A54008AA8A89D9A9E9B8E888786817F77758564
:105A6400887A6E625D5D6E7B6F616376848B95A2CE
:105A7400A09897999A94857E7C767E7D7D827578B0
:105A84007E71716A6D7973737778767780919D9F53
:105A94009B9083716F79888C848180848584837CD6
:105AA40068607487817579807D7E858C8A81817E2A
:105AB4007A808581888D8D807E928C747279807BCA
:105AC40071847E747777837D6C70717B82888F8F0D
