:020000040800F2
:1000000000000120B50C0008050D0008050D0008D2
:10001000050D0008050D0008050D00080000000092
:10002000000000000000000000000000050D0008B6
:10003000050D000800000000050D0008C1190008AA
:1000400000000000050D0008050D0008050D000862
:10005000050D0008050D0008E51200080913000849
:100060002D1300085113000875130008050D000832
:10007000050D0008050D0008050D0008050D000818
:10008000050D0008050D0008050D00080000000022
:1000900000000000000000000000000099130008AC
:1000A000050D0008050D0008050D0008050D0008E8
:1000B000050D0008050D0008050D000815150008C0
:1000C000051500080F160008011600083117000872
:1000D0008D170008ED190008050D0008000000004C
:1000E00041140008050D0008050D0008000000007F
:1000F000000000000000000000000000050D0008E6
:1001000000000000050D0008050D0008E9170008B3
:1001100000000000000000000000000000000000DF
:10012000050D0008050D0008050D0008050D000867
:10013000050D0008000000000000000000000000A5
:10014000000000000000000000000000050D000895
:10015000050D0008050D0008050D0008050D000837
:10016000050D0008050D000800000000000000005B
:10017000000000000000000000000000000000007F
:10018000000000000000000000000000000000006F
:04019000050D000851
:1001940010B5054C237833B9044B13B10448AFF3BD
:1001A40000800123237010BD000000200000000027
:1001B400D81C000808B5034B1BB103490348AFF32F
:1001C400008008BD0000000004000020D81C0008C6
:1001D40081F0004102E000BF83F0004330B54FEAF4
:1001E40041044FEA430594EA050F08BF90EA020F61
:1001F4001FBF54EA000C55EA020C7FEA645C7FEAF4
:10020400655C00F0E2804FEA5454D4EB5555B8BF16
:100214006D420CDD2C4480EA020281EA030382EA87
:10022400000083EA010180EA020281EA0303362D19
:1002340088BF30BD11F0004F4FEA01314FF4801CEC
:100244004CEA113102D0404261EB410113F0004FFE
:100254004FEA03334CEA133302D0524263EB4303B5
:1002640094EA050F00F0A780A4F10104D5F1200E53
:100274000DDB02FA0EFC22FA05F2801841F10001AE
:1002840003FA0EF2801843FA05F359410EE0A5F182
:1002940020050EF1200E012A03FA0EFC28BF4CF0B3
:1002A400020C43FA05F3C01851EBE37101F0004569
:1002B40007D54FF0000EDCF1000C7EEB00006EEB76
:1002C4000101B1F5801F1BD3B1F5001F0CD3490800
:1002D4005FEA30004FEA3C0C04F101044FEA445257
:1002E40012F5800F80F09A80BCF1004F08BF5FEADE
:1002F400500C50F1000041EB045141EA050130BDBE
:100304005FEA4C0C404141EB0101013C28BFB1F5CF
:10031400801FE9D291F0000F04BF01460020B1FA1A
:1003240081F308BF2033A3F10B03B3F120020CDAED
:100334000C3208DD02F1140CC2F10C0201FA0CF0CB
:1003440021FA02F10CE002F11402D8BFC2F1200C30
:1003540001FA02F120FA0CFCDCBF41EA0C019040E6
:10036400E41AA2BF01EB0451294330BD6FEA04042F
:100374001F3C1CDA0C340EDC04F11404C4F120021A
:1003840020FA04F001FA02F340EA030021FA04F32C
:1003940045EA030130BDC4F10C04C4F1200220FA83
:1003A40002F001FA04F340EA0300294630BD21FAC1
:1003B40004F0294630BD94F0000F83F4801306BF87
:1003C40081F480110134013D4EE77FEA645C18BF7B
:1003D4007FEA655C29D094EA050F08BF90EA020F12
:1003E40005D054EA000C04BF1946104630BD91EA0A
:1003F400030F1EBF0021002030BD5FEA545C05D10D
:100404004000494128BF41F0004130BD14F580044B
:100414003CBF01F5801130BD01F0004545F0FE41BF
:1004240041F470014FF0000030BD7FEA645C1ABFF4
:10043400194610467FEA655C1CBF0B46024650EA2B
:10044400013406BF52EA033591EA030F41F4002157
:1004540030BD00BF90F0000F04BF0021704730B5DD
:100464004FF4806404F132044FF000054FF00001B2
:1004740050E700BF90F0000F04BF0021704730B573
:100484004FF4806404F1320410F0004548BF404248
:100494004FF000013EE700BF42004FEAE2014FEA9D
:1004A40031014FEA02701FBF12F07F4393F07F4F78
:1004B40081F06051704732F07F4208BF704793F07B
:1004C4007F4F04BF41F40021704730B54FF460748E
:1004D40001F0004521F000411CE700BF50EA010291
:1004E40008BF704730B54FF000050AE050EA01023A
:1004F40008BF704730B511F0004502D5404261EBAA
:1005040041014FF4806404F132045FEA915C3FF4EA
:10051400D8AE4FF003025FEADC0C18BF03325FEA87
:10052400DC0C18BF033202EBDC02C2F1200300FA38
:1005340003FC20FA02F001FA03FE40EA0E0021FA5D
:1005440002F11444BDE600BF70B54FF0FF0C4CF44B
:10055400E06C1CEA11541DBF1CEA135594EA0C0FFD
:1005640095EA0C0F00F0DEF82C4481EA030621EA38
:100574004C5123EA4C5350EA013518BF52EA033573
:1005840041F4801143F4801338D0A0FB02CE4FF025
:100594000005E1FB02E506F00042E0FB03E54FF055
:1005A4000006E1FB03569CF0000F18BF4EF0010E4D
:1005B400A4F1FF04B6F5007F64F5407404D25FEA49
:1005C4004E0E6D4146EB060642EAC62141EA5551FC
:1005D4004FEAC52040EA5E504FEACE2EB4F1FD0C3E
:1005E40088BFBCF5E06F1ED8BEF1004F08BF5FEABC
:1005F400500E50F1000041EB045170BD06F000466E
:1006040046EA010140EA020081EA0301B4EB5C041A
:10061400C2BFD4EB0C0541EA045170BD41F4801112
:100624004FF0000E013C00F3AB8014F1360FDEBF37
:10063400002001F0004170BDC4F10004203C35DA13
:100644000C341BDC04F11404C4F1200500FA05F396
:1006540020FA04F001FA05F240EA020001F0004237
:1006640021F0004110EBD37021FA04F642EB0601AD
:100674005EEA430E08BF20EAD37070BDC4F10C04D7
:10068400C4F1200500FA04F320FA05F001FA04F29B
:1006940040EA020001F0004110EBD37041F1000187
:1006A4005EEA430E08BF20EAD37070BDC4F1200592
:1006B40000FA05F24EEA020E20FA04F301FA05F2FA
:1006C40043EA020321FA04F001F0004121FA04F2A2
:1006D40020EA020000EBD3705EEA430E08BF20EA72
:1006E400D37070BD94F0000F0FD101F000464000AC
:1006F40041EB010111F4801F08BF013CF7D041EA2E
:10070400060195F0000F18BF704703F00046520031
:1007140043EB030313F4801F08BF013DF7D043EA02
:100724000603704794EA0C0F0CEA135518BF95EAB8
:100734000C0F0CD050EA410618BF52EA4306D1D13F
:1007440081EA030101F000414FF0000070BD50EA5E
:10075400410606BF1046194652EA430619D094EAE8
:100764000C0F02D150EA013613D195EA0C0F05D1D2
:1007740052EA03361CBF104619460AD181EA030126
:1007840001F0004141F0FE4141F470014FF00000DE
:1007940070BD41F0FE4141F4780170BD70B54FF079
:1007A400FF0C4CF4E06C1CEA11541DBF1CEA1355F9
:1007B40094EA0C0F95EA0C0F00F0A7F8A4EB0504DB
:1007C40081EA030E52EA03354FEA013100F08880D2
:1007D4004FEA03334FF0805545EA131343EA12639B
:1007E4004FEA022245EA111545EA10654FEA002650
:1007F4000EF000419D4208BF964244F1FD0404F509
:10080400407402D25B084FEA3202B61A65EB030564
:100814005B084FEA32024FF480104FF4002CB6EB21
:10082400020E75EB030E22BFB61A754640EA0C00A1
:100834005B084FEA3202B6EB020E75EB030E22BFE1
:10084400B61A754640EA5C005B084FEA3202B6EB22
:10085400020E75EB030E22BFB61A754640EA9C00E1
:100864005B084FEA3202B6EB020E75EB030E22BFB1
:10087400B61A754640EADC0055EA060E18D04FEA6F
:10088400051545EA16754FEA06164FEAC30343EA0F
:1008940052734FEAC2025FEA1C1CC0D111F4801FDC
:1008A4000BD141EA00014FF000004FF0004CB6E7D5
:1008B40011F4801F04BF01430020B4F1FD0C88BF74
:1008C400BCF5E06F3FF6AFAEB5EB030C04BFB6EB7F
:1008D400020C5FEA500C50F1000041EB045170BD72
:1008E4000EF0004E4EEA113114EB5C04C2BFD4EB9F
:1008F4000C0541EA045170BD41F480114FF0000E23
:10090400013C90E645EA060E8DE60CEA135594EA9E
:100914000C0F08BF95EA0C0F3FF43BAF94EA0C0FA1
:100924000AD150EA01347FF434AF95EA0C0F7FF416
:1009340025AF104619462CE795EA0C0F06D152EA6A
:1009440003353FF4FDAE1046194622E750EA41064E
:1009540018BF52EA43067FF4C5AE50EA41047FF45F
:100964000DAF52EA43057FF4EBAE12E74A0011D211
:1009740012F5001211D20DD56FF47873B3EB6252F5
:100984000ED44FEAC12343F0004343EA505323FA01
:1009940002F070474FF00000704750EA013002D176
:1009A4004FF0FF3070474FF00000704780B400AF45
:1009B4000B4B1B6B0A4A43F001031363084B1B6B7D
:1009C400074A43F002031363054B5B6C044A43F488
:1009D4008043536400BFBD465DF8047B704700BF8D
:1009E4000038024080B58AB000AFAE4B1B68AD4AF8
:1009F40043F48033136000BFAA4B1B6803F4003335
:100A0400002BF9D0A74B9B68A64A23F003039360FD
:100A1400A44B9B68A34A43F00103936000BFA14B1E
:100A24009B6803F00C03042BF9D1FFF7BFFF9E4A28
:100A340007F1100307CA83E8070001233B7701236A
:100A44007B779A4B3B6207F11003184600F03CFC9D
:100A540001233B7000237B703B46184600F0F0FEF8
:100A6400002387F82630002387F827300021002050
:100A740000F000FA00F0F2F9034687F8263097F800
:100A84002630083B562B00F2028101A252F823F0D3
:100A9400110C0008410C0008930C0008930C00088A
:100AA400F90B0008930C0008930C0008930C000841
:100AB400930C0008930C0008930C0008930C000896
:100AC400930C00086B0C0008F10B0008930C000851
:100AD400010C0008930C0008930C0008930C000808
:100AE400190C0008930C0008930C0008930C0008E0
:100AF400930C0008930C0008930C0008930C000856
:100B0400930C0008930C0008930C0008930C000845
:100B1400930C0008930C0008930C0008930C000835
:100B2400930C0008930C0008930C0008930C000825
:100B3400930C0008930C0008930C0008930C000815
:100B4400930C0008930C0008930C0008930C000805
:100B5400930C0008930C0008930C0008930C0008F5
:100B6400930C0008930C0008930C0008930C0008E5
:100B7400930C0008930C0008290C0008930C00083F
:100B8400930C0008930C0008930C0008930C0008C5
:100B9400930C0008930C0008390C0008930C00080F
:100BA400930C0008930C0008930C0008930C0008A5
:100BB400930C0008930C0008310C0008930C0008F7
:100BC400930C0008930C0008930C0008930C000885
:100BD400930C0008930C0008210C0008930C0008E7
:100BE400930C0008930C0008090C0008002387F8F4
:100BF40027304FE0012387F827304BE0022387F8A2
:100C0400273047E0032387F8273043E0042387F89D
:100C140027303FE0052387F827303BE0062387F899
:100C2400273037E0072387F8273033E0082387F895
:100C340027302FE0092387F827302BE02D2000F000
:100C440061FE97F82630092B23D197F82730082B1B
:100C540005D897F82730013387F8273019E00023A7
:100C640087F8273015E02D2000F04CFE97F8263049
:100C7400152B0CD197F82730002B05D097F8273087
:100C8400013B87F8273002E0092387F8273000BFAB
:100C940000E000BF97F827309BB20021184600F00F
:100CA400E9F8E7E600380240F01C0008090D0008E6
:100CB4000D488546AFF300800C480D490D4A0023CA
:100CC40002E0D458C4500433C4188C42F9D30A4AFD
:100CD4000A4C002301E013600432A242FBD300F06B
:100CE400D5FFFFF77FFEFEE7000001200000002093
:100CF40000000020101D000800000020B8010020A2
:100D0400FEE7000098B500AF164B1B78002B07D107
:100D1400144B01221A7014490F2000F025FE1FE025
:100D240000F014FE03461846FFF794FB4FF0000250
:100D34000E4BFFF733FD02460B46104619460C4B8B
:100D44001B785A1CD4B20A4A14701C46FFF70EFED4
:100D54000346084A42F824300349042000F004FE04
:100D640000BF98BD1D0000207D0D00080000094053
:100D74001E0000202000002080B483B000AF334B5D
:100D840000221A700023FB7141E0FB791133304AD1
:100D940052F82330B3F57A7F18D3FB7911332C4AF8
:100DA40052F8233040F2E14293420FD8FB790122FA
:100DB40002FA03F35BB2DB435AB2244B1B785BB2F7
:100DC40013405BB2DAB2214B1A701DE0FB79113388
:100DD4001F4A52F82330B3F5FA6F15D3FB79113358
:100DE4001B4A52F8233040F6911293420CD8FB79F7
:100DF400012202FA03F35AB2144B1B785BB2134379
:100E04005BB2DAB2114B1A70FB790133FB71FB79D7
:100E1400072BBAD90F4B00221A700F4B00221A70FD
:100E24000023BB7107E0BB79094A002142F8231073
:100E3400BB790133BB71BB79312BF4D900BF00BF3F
:100E44000C37BD465DF8047B704700BF1C000020D2
:100E5400200000201E0000201D00002080B400AFF0
:100E6400034B1B781846BD465DF8047B704700BFF2
:100E74001C00002080B584B000AF03460A46FB8006
:100E840013467B71FB88092B13D90023FB730CE0F9
:100E9400FB7B012202FA03F39BB200221946294884
:100EA40000F0CFFEFB7B0133FB73FB7B062BEFD9FA
:100EB40044E07B79012B26D10023BB731FE0FA8821
:100EC400BB7B42FA03F303F00103002B0AD0BB7B84
:100ED400012202FA03F39BB201221946194800F0D9
:100EE400B0FE09E0BB7B012202FA03F39BB20022AD
:100EF4001946144800F0A5FEBB7B0133BB73BB7BD2
:100F0400032BDCD91AE0FB880F4AD35C3B73002324
:100F14007B7310E07B7B99B23A7B7B7B42FA03F3D1
:100F24009BB203F001039BB21A46064800F089FE07
:100F34007B7B01337B737B7B062BEBD91037BD4660
:100F440080BD00BF00000240FC1C000880B483B0D8
:100F540000AF0346FB80FB880F2B54D801A252F844
:100F640023F000BFA90F0008B70F0008C50F000841
:100F7400D30F0008E10F0008EF0F0008EF0F00087F
:100F8400EF0F0008EF0F0008EF0F0008FD0F000837
:100F9400FD0F0008FD0F0008FD0F0008FD0F0008FD
:100FA400FD0F00081B4B1B681A4A43F040031360F3
:100FB40029E0184B1B68174A43F08003136022E0B2
:100FC400144B1B68134A43F4807313601BE0114BEA
:100FD4001B68104A43F40073136014E00D4B1B6844
:100FE4000C4A43F4806313600DE00A4B1B68094A02
:100FF40043F40003136006E0074B1B68064A43F4FE
:101004008073136000BF00BF0C37BD465DF8047BDE
:10101400704700BF00E100E004E100E080B483B069
:1010240000AF0346FB80FB880F2B54D801A252F873
:1010340023F000BF791000088710000895100008FD
:10104400A3100008B1100008BF100008BF1000086A
:10105400BF100008BF100008BF100008CD10000822
:10106400CD100008CD100008CD100008CD100008E8
:10107400CD1000081B4B1B681A4A43F04003136051
:1010840029E0184B1B68174A43F08003136022E0E1
:10109400144B1B68134A43F4807313601BE0114B19
:1010A4001B68104A43F40073136014E00D4B1B6873
:1010B4000C4A43F4806313600DE00A4B1B68094A31
:1010C40043F40003136006E0074B1B68064A43F42D
:1010D4008073136000BF00BF0C37BD465DF8047B0E
:1010E400704700BF80E100E084E100E080B588B093
:1010F40000AF78607B681B89BB810023FB810023E0
:10110400FB827B685B6807F10C021146184600F00D
:1011140099FC7B681B889B089BB2FB777B681B88C8
:10112400DBB203F00303DBB29B00BB775F4AFB7FB8
:10113400023352F82320BB7F0F2101FA03F3DB4370
:1011440018465A49FB7F0240023341F82320574A8C
:10115400FB7F023352F823207B685B6854498B423F
:1011640016D07B685B6853498B420FD07B685B6801
:1011740051498B4208D07B685B6850498B4201D14E
:10118400032306E00F2304E0022302E0012300E02E
:101194000023B97F8B4018464449FB7F0243023346
:1011A40041F82320464B9B687A6812881146012235
:1011B4008A40D2431146424A0B409360404BDB685D
:1011C4007A681288114601228A40D24311463C4A69
:1011D4000B40D3607B685B7B002B0BD1384B9B6847
:1011E4007A681288114601228A401146344A0B4318
:1011F400936029E07B685B7B012B0BD1304BDB6870
:101204007A681288114601228A4011462C4A0B43FF
:10121400D36019E07B685B7B022B15D1284B9B685C
:101224007A681288114601228A401146244A0B43E7
:101234009360234BDB687A681288114601228A4046
:1012440011461F4A0B43D3607B681B8819467B6891
:101254001B691C4A42F821307B681B7B012B10D18F
:10126400174B1B687A681288114601228A4011467E
:10127400134A0B4313607B681B881846FFF766FE0E
:1012840010E00F4B1B687A681288114601228A40CD
:10129400D24311460A4A0B4013607B681B881846E8
:1012A400FFF7BCFE00BF2037BD4680BD00380140BB
:1012B400000002400004024000080240000C02400A
:1012C400003C0140E800002080B582B000AF7860A7
:1012D4007868FFF70BFF00BF0837BD4680BD0000EC
:1012E40080B500AF054B5B69044A43F001035361C9
:1012F400034B1B68984700BF80BD00BF003C014002
:10130400E800002080B500AF054B5B69044A43F058
:1013140002035361034B5B68984700BF80BD00BF65
:10132400003C0140E800002080B500AF054B5B693C
:10133400044A43F004035361034B9B68984700BF7E
:1013440080BD00BF003C0140E800002080B500AF34
:10135400054B5B69044A43F008035361034BDB68A4
:10136400984700BF80BD00BF003C0140E80000205A
:1013740080B500AF054B5B69044A43F01003536129
:10138400034B1B69984700BF80BD00BF003C014070
:10139400E800002080B500AF264B5B6903F0200312
:1013A400002B08D0234B5B69224A43F0200353618E
:1013B400214B5B6998471F4B5B6903F04003002B8B
:1013C40008D01C4B5B691B4A43F0400353611A4B22
:1013D4009B699847174B5B6903F08003002B08D087
:1013E400144B5B69134A43F080035361124BDB696E
:1013F4009847104B5B6903F48073002B08D00D4BA6
:101404005B690C4A43F4807353610B4B1B6A984726
:10141400084B5B6903F40073002B08D0054B5B6930
:10142400044A43F400735361034B5B6A984700BF5B
:1014340080BD00BF003C0140E800002080B500AF43
:101444002D4B5B6903F48063002B08D02A4B5B6946
:10145400294A43F480635361284B9B6A9847264B7F
:101464005B6903F40063002B08D0234B5B69224AB9
:1014740043F400635361214BDB6A98471E4B5B695D
:1014840003F48053002B08D01B4B5B691A4A43F4C6
:1014940080535361194B1B6B9847174B5B6903F4DB
:1014A4000053002B08D0144B5B69134A43F40053D8
:1014B4005361124B5B6B98470F4B5B6903F480439A
:1014C400002B08D00C4B5B690B4A43F480435361F7
:1014D4000A4B9B6B9847084B5B6903F40043002B52
:1014E40008D0054B5B69044A43F400435361034B42
:1014F400DB6B984700BF80BD003C0140E800002042
:1015040080B400AF00BFBD465DF8047B70470000A7
:1015140080B586B000AF00237B60374B7B617B696D
:101524005B6803F400733B617B695B6803F480636D
:10153400FB607B695B6903F01003BB603B69002BB4
:101544000AD0BB68002B07D07B691A687B691A60D4
:101554000021786900F060F87B695B6903F002039D
:10156400BB603B69002B12D0BB68002B0FD07B699A
:101574009B6903F00103002B09D17B695B697B60E4
:101584007B699B697B600121786900F045F87B6980
:101594005B6903F08003BB603B69002B0FD0FB68E1
:1015A400002B0CD0BB68002B09D07B699B6903F02E
:1015B4000103002B03D10421786900F02DF87B6925
:1015C4005B6903F04003BB603B69002B0FD0FB68F1
:1015D400002B0CD0BB68002B09D07B699B6903F0FE
:1015E4000103002B03D10321786900F015F800BF33
:1015F4001837BD4680BD00BF0054004080B400AF22
:1016040000BFBD465DF8047B704780B400AF00BFE7
:10161400BD465DF8047B704780B584B000AF786048
:101624000B46FB700023FB737B683C4A934202D158
:101634000023FB730CE07B68394A934202D10123F7
:10164400FB7305E07B68374A934201D10223FB73A5
:10165400FB78052B5DD801A252F823F0851600080B
:10166400A916000817170008E5160008C116000897
:10167400791600087B689B6903F00403002B41D1B1
:101684007B689B6903F00403002B3DD0FA7B264959
:1016940013469B001344DB000B4424331B680020D7
:1016A400984731E0FA7B204913469B001344DB0042
:1016B4000B4424331B68012098472AE07B689B690C
:1016C40003F00403002B21D0FA7B174913469B0037
:1016D4001344DB000B4424331B680420984715E0B3
:1016E4007B689B6903F00403002B11D1FA7B0E493C
:1016F40013469B001344DB000B4424331B68032074
:10170400984705E000BF04E000BF02E000BF00E02E
:1017140000BF00BF1037BD4680BD00BF005400406D
:1017240000580040005C00402801002080B582B0D1
:1017340000AF134B9B685B0803F00103DAB23B79FB
:1017440062F300033B710E4B9B6803F00103DAB2B2
:101754003B7962F341033B71094B9B681B0903F01E
:101764000103DAB23B7962F382033B71054B1B68D8
:101774005B693879984700BF0837BD4680BD00BF14
:1017840000300140A001002080B582B000AF134BAF
:101794009B685B0803F00103DAB23B7962F3000350
:1017A4003B710E4B9B6803F00103DAB23B7962F3A1
:1017B40041033B71094B9B681B0903F00103DAB237
:1017C4003B7962F382033B71054B5B685B69387953
:1017D400984700BF0837BD4680BD00BF00380040B1
:1017E400A001002080B582B000AF134B9B685B085A
:1017F40003F00103DAB23B7962F300033B710E4B51
:101804009B6803F00103DAB23B7962F341033B7155
:10181400094B9B681B0903F00103DAB23B7962F3BD
:1018240082033B71054B9B685B693879984700BF1D
:101834000837BD4680BD00BF003C0040A001002029
:1018440080B483B000AF7860184B1B68174A23F04C
:10185400010313607B681B78012B06D1134B1B68B3
:10186400124A43F00203136005E0104B1B680F4A51
:1018740023F0020313607B685B78012B06D10B4BCA
:101884001B680A4A43F00403136009E07B685B7831
:10189400002B05D1054B1B68044A23F00403136095
:1018A40000BF0C37BD465DF8047B704710E000E0D4
:1018B40080B483B000AF7860094A7B68013B536011
:1018C400074B00229A60064B1B68054A43F001034C
:1018D400136000BF0C37BD465DF8047B704700BF42
:1018E40010E000E080B400AF054B1B68044A23F00D
:1018F4000103136000BFBD465DF8047B704700BF61
:1019040010E000E080B584B000AF78607B68FB60D5
:101914000D4B00229A60FB68002B10D0FB686FF01F
:101924007F4293420BD2F868FFF7C2FF00BF064B19
:101934001B6803F48033002BF9D0FFF7D3FF00BFFB
:101944001037BD4680BD00BF10E000E080B400AF9A
:10195400044B5A68034B9B68D31A1846BD465DF87E
:10196400047B704710E000E080B584B000AF78607D
:1019740039600F4B01221A707B6840F6354202FB36
:1019840003F3FB600B4A3B6813600B4B00229A6025
:10199400FB68002B07D0FB686FF07F42934202D2B2
:1019A400F868FFF785FF00BF1037BD4680BD00BF54
:1019B400B0010020AC01002010E000E080B500AFD1
:1019C400074B1B68002B02D0054B1B689847054B3F
:1019D4001B78012B01D1FFF785FF00BF80BD00BF3D
:1019E400AC010020B001002080B582B000AF134BE1
:1019F4001B68DB0903F00103DAB23B7962F30003ED
:101A04003B710E4B1B685B0903F00103DAB23B79AF
:101A140062F341033B71094B1B689B0903F001030B
:101A2400DAB23B7962F382033B71054B1B68DB68D6
:101A34003879984700BF0837BD4680BD0010014083
:101A4400B401002080B485B000AF786039603B6891
:101A54001B88FB607B681B68FA685200032101FA4B
:101A640002F2D2431A407B681A607B685B680121EA
:101A7400FA6801FA02F2D2431A407B685A607B6822
:101A84009B68FA685200032101FA02F2D2431A4019
:101A94007B689A607B68DB68FA685200032101FA6C
:101AA40002F2D2431A407B68DA603B685B88032BFE
:101AB40000F09C80032B00F3B080012B02D0022B9A
:101AC4002ED0AAE07B681B68FA685200012101FA53
:101AD40002F21A437B681A607B685B683A68128971
:101AE4001146FA6801FA02F21A437B685A607B686D
:101AF4009B683A6892891146FA68520001FA02F228
:101B04001A437B689A607B68DB683A68528911469D
:101B1400FA68520001FA02F21A437B68DA608AE03A
:101B24007B681B68FA685200022101FA02F21A4328
:101B34007B681A607B685B683A6812891146FA68A8
:101B440001FA02F21A437B685A607B689B683A6820
:101B540092891146FA68520001FA02F21A437B682C
:101B64009A607B68DB683A6852891146FA685200C9
:101B740001FA02F21A437B68DA60FB68072B16D875
:101B84007B681B6AFA6892000F2101FA02F2D243C1
:101B94001A407B681A627B681A6A3B685968FB685A
:101BA4009B0001FA03F31A437B681A6242E0FB6864
:101BB400072B3FD9FB680F2B3CD87B685B6AFA681C
:101BC400083A92000F2101FA02F2D2431A407B68CC
:101BD4005A627B685A6A3B685968FB68083B9B00F9
:101BE40001FA03F31A437B685A6223E07B681B689B
:101BF400FA685200032101FA02F21A437B681A6060
:101C04007B68DB683A6852891146FA68520001FA27
:101C140002F21A437B68DA600DE07B68DB683A689D
:101C240052891146FA68520001FA02F21A437B689B
:101C3400DA6000E000BF00BF1437BD465DF8047BE6
:101C4400704780B483B000AF78600B467B80134646
:101C54003B803B88012B09D17B685B697A88012131
:101C640001FA02F21A437B685A6109E07B685B69F6
:101C74007A88012101FA02F2D2431A407B685A6140
:101C840000BF0C37BD465DF8047B704770B50D4D41
:101C94000D4C641BA4100026A64209D10B4D0C4C1C
:101CA40000F018F8641BA4100026A64205D170BDEC
:101CB40055F8043B98470136EEE755F8043B98473E
:101CC4000136F2E7081D0008081D0008081D000879
:101CD4000C1D0008F8B500BFF8BC08BC9E46704750
:0C1CE400F8B500BFF8BC08BC9E46704775
:101CF0000000000000040240000006003F065B4FA9
:081D0000666D7D077F6F000096
:041D0800B901000815
:041D0C009501000835
:0400000508000CB52E
:00000001FF
