:020000040800F2
:1000000000000120F1100008411100084111000812
:1000100041110008411100084111000800000000D2
:100020000000000000000000000000004111000876
:1000300041110008000000004111000849180008A3
:1000400000000000411100084111000841110008A2
:1000500041110008411100085512000879120008EA
:100060009D120008C1120008E512000841110008A5
:100070004111000841110008411100084111000818
:100080004111000841110008411100080000000062
:10009000000000000000000000000000091300083C
:1000A00041110008411100084111000841110008E8
:1000B00075180008D11800081D190008A5140008BB
:1000C000951400089F1500089115000811170008E5
:1000D0006D170008B5190008411100080000000064
:1000E000B113000841110008411100080000000090
:1000F00000000000000000000000000041110008A6
:10010000000000004111000869190008C917000823
:1001100000000000000000000000000000000000DF
:10012000FD110008291200084111000841110008C2
:100130004111000800000000000000000000000065
:100140000000000000000000000000004111000855
:100150004111000841110008411100084111000837
:1001600041110008411100080000000000000000DB
:10017000000000000000000000000000000000007F
:10018000000000000000000000000000000000006F
:040190004111000811
:1001A00010B5054C237833B9044B13B10448AFF3B1
:1001B00000800123237010BDC80100200000000052
:1001C0001045000808B5034B1BB103490348AFF3C2
:1001D000008008BD00000000CC0100201045000890
:1001E00001F0FF01102A2BDB10F0070F08D010F8E8
:1001F000013B013A8B422DD010F0070F42B3F6D1EC
:10020000F0B441EA012141EA014122F007047FF004
:1002100000070023F0E80256083C85EA010586EA5B
:10022000010685FA47F5A3FA87F586FA47F6A5FA97
:1002300087F68EB9EED1F0BC01F0FF0102F00702A3
:1002400032B110F8013B013A83EA010313B1F8D14E
:100250000020704701387047002D06BF354603382F
:10026000073815F0010F07D1013015F4807F02BF68
:10027000013015F4C03F0130F0BC0138704700BFB9
:10028000034613F8012B002AFBD1181A01387047D6
:1002900081F0004102E000BF83F0004330B54FEA37
:1002A00041044FEA430594EA050F08BF90EA020FA4
:1002B0001FBF54EA000C55EA020C7FEA645C7FEA37
:1002C000655C00F0E2804FEA5454D4EB5555B8BF5A
:1002D0006D420CDD2C4480EA020281EA030382EACB
:1002E000000083EA010180EA020281EA0303362D5D
:1002F00088BF30BD11F0004F4FEA01314FF4801C30
:100300004CEA113102D0404261EB410113F0004F41
:100310004FEA03334CEA133302D0524263EB4303F8
:1003200094EA050F00F0A780A4F10104D5F1200E96
:100330000DDB02FA0EFC22FA05F2801841F10001F1
:1003400003FA0EF2801843FA05F359410EE0A5F1C5
:1003500020050EF1200E012A03FA0EFC28BF4CF0F6
:10036000020C43FA05F3C01851EBE37101F00045AC
:1003700007D54FF0000EDCF1000C7EEB00006EEBB9
:100380000101B1F5801F1BD3B1F5001F0CD3490843
:100390005FEA30004FEA3C0C04F101044FEA44529A
:1003A00012F5800F80F09A80BCF1004F08BF5FEA21
:1003B000500C50F1000041EB045141EA050130BD01
:1003C0005FEA4C0C404141EB0101013C28BFB1F513
:1003D000801FE9D291F0000F04BF01460020B1FA5E
:1003E00081F308BF2033A3F10B03B3F120020CDA31
:1003F0000C3208DD02F1140CC2F10C0201FA0CF00F
:1004000021FA02F10CE002F11402D8BFC2F1200C73
:1004100001FA02F120FA0CFCDCBF41EA0C01904029
:10042000E41AA2BF01EB0451294330BD6FEA040472
:100430001F3C1CDA0C340EDC04F11404C4F120025D
:1004400020FA04F001FA02F340EA030021FA04F36F
:1004500045EA030130BDC4F10C04C4F1200220FAC6
:1004600002F001FA04F340EA0300294630BD21FA04
:1004700004F0294630BD94F0000F83F4801306BFCA
:1004800081F480110134013D4EE77FEA645C18BFBE
:100490007FEA655C29D094EA050F08BF90EA020F55
:1004A00005D054EA000C04BF1946104630BD91EA4D
:1004B000030F1EBF0021002030BD5FEA545C05D150
:1004C0004000494128BF41F0004130BD14F580048F
:1004D0003CBF01F5801130BD01F0004545F0FE4103
:1004E00041F470014FF0000030BD7FEA645C1ABF38
:1004F000194610467FEA655C1CBF0B46024650EA6F
:10050000013406BF52EA033591EA030F41F400219A
:1005100030BD00BF90F0000F04BF0021704730B520
:100520004FF4806404F132044FF000054FF00001F5
:1005300050E700BF90F0000F04BF0021704730B5B6
:100540004FF4806404F1320410F0004548BF40428B
:100550004FF000013EE700BF42004FEAE2014FEAE0
:1005600031014FEA02701FBF12F07F4393F07F4FBB
:1005700081F06051704732F07F4208BF704793F0BE
:100580007F4F04BF41F40021704730B54FF46074D1
:1005900001F0004521F000411CE700BF50EA0102D4
:1005A00008BF704730B54FF000050AE050EA01027D
:1005B00008BF704730B511F0004502D5404261EBED
:1005C00041014FF4806404F132045FEA915C3FF42E
:1005D000D8AE4FF003025FEADC0C18BF03325FEACB
:1005E000DC0C18BF033202EBDC02C2F1200300FA7C
:1005F00003FC20FA02F001FA03FE40EA0E0021FAA1
:1006000002F11444BDE600BF70B54FF0FF0C4CF48E
:10061000E06C1CEA11541DBF1CEA135594EA0C0F40
:1006200095EA0C0F00F0DEF82C4481EA030621EA7B
:100630004C5123EA4C5350EA013518BF52EA0335B6
:1006400041F4801143F4801338D0A0FB02CE4FF068
:100650000005E1FB02E506F00042E0FB03E54FF098
:100660000006E1FB03569CF0000F18BF4EF0010E90
:10067000A4F1FF04B6F5007F64F5407404D25FEA8C
:100680004E0E6D4146EB060642EAC62141EA55513F
:100690004FEAC52040EA5E504FEACE2EB4F1FD0C81
:1006A00088BFBCF5E06F1ED8BEF1004F08BF5FEAFF
:1006B000500E50F1000041EB045170BD06F00046B1
:1006C00046EA010140EA020081EA0301B4EB5C045E
:1006D000C2BFD4EB0C0541EA045170BD41F4801156
:1006E0004FF0000E013C00F3AB8014F1360FDEBF7B
:1006F000002001F0004170BDC4F10004203C35DA57
:100700000C341BDC04F11404C4F1200500FA05F3D9
:1007100020FA04F001FA05F240EA020001F000427A
:1007200021F0004110EBD37021FA04F642EB0601F0
:100730005EEA430E08BF20EAD37070BDC4F10C041A
:10074000C4F1200500FA04F320FA05F001FA04F2DE
:1007500040EA020001F0004110EBD37041F10001CA
:100760005EEA430E08BF20EAD37070BDC4F12005D5
:1007700000FA05F24EEA020E20FA04F301FA05F23D
:1007800043EA020321FA04F001F0004121FA04F2E5
:1007900020EA020000EBD3705EEA430E08BF20EAB5
:1007A000D37070BD94F0000F0FD101F000464000EF
:1007B00041EB010111F4801F08BF013CF7D041EA71
:1007C000060195F0000F18BF704703F00046520075
:1007D00043EB030313F4801F08BF013DF7D043EA46
:1007E0000603704794EA0C0F0CEA135518BF95EAFC
:1007F0000C0F0CD050EA410618BF52EA4306D1D183
:1008000081EA030101F000414FF0000070BD50EAA1
:10081000410606BF1046194652EA430619D094EA2B
:100820000C0F02D150EA013613D195EA0C0F05D115
:1008300052EA03361CBF104619460AD181EA030169
:1008400001F0004141F0FE4141F470014FF0000021
:1008500070BD41F0FE4141F4780170BD70B54FF0BC
:10086000FF0C4CF4E06C1CEA11541DBF1CEA13553C
:1008700094EA0C0F95EA0C0F00F0A7F8A4EB05041E
:1008800081EA030E52EA03354FEA013100F0888015
:100890004FEA03334FF0805545EA131343EA1263DE
:1008A0004FEA022245EA111545EA10654FEA002693
:1008B0000EF000419D4208BF964244F1FD0404F54C
:1008C000407402D25B084FEA3202B61A65EB0305A8
:1008D0005B084FEA32024FF480104FF4002CB6EB65
:1008E000020E75EB030E22BFB61A754640EA0C00E5
:1008F0005B084FEA3202B6EB020E75EB030E22BF25
:10090000B61A754640EA5C005B084FEA3202B6EB65
:10091000020E75EB030E22BFB61A754640EA9C0024
:100920005B084FEA3202B6EB020E75EB030E22BFF4
:10093000B61A754640EADC0055EA060E18D04FEAB2
:10094000051545EA16754FEA06164FEAC30343EA52
:1009500052734FEAC2025FEA1C1CC0D111F4801F1F
:100960000BD141EA00014FF000004FF0004CB6E718
:1009700011F4801F04BF01430020B4F1FD0C88BFB7
:10098000BCF5E06F3FF6AFAEB5EB030C04BFB6EBC2
:10099000020C5FEA500C50F1000041EB045170BDB5
:1009A0000EF0004E4EEA113114EB5C04C2BFD4EBE2
:1009B0000C0541EA045170BD41F480114FF0000E66
:1009C000013C90E645EA060E8DE60CEA135594EAE2
:1009D0000C0F08BF95EA0C0F3FF43BAF94EA0C0FE5
:1009E0000AD150EA01347FF434AF95EA0C0F7FF45A
:1009F00025AF104619462CE795EA0C0F06D152EAAE
:100A000003353FF4FDAE1046194622E750EA410691
:100A100018BF52EA43067FF4C5AE50EA41047FF4A2
:100A20000DAF52EA43057FF4EBAE12E74FF0FF3C07
:100A300006E000BF4FF0010C02E000BF4FF0010CD8
:100A40004DF804CD4FEA410C7FEA6C5C4FEA430C51
:100A500018BF7FEA6C5C1BD001B050EA410C0CBFA0
:100A600052EA430C91EA030F02BF90EA020F002002
:100A7000704710F1000F91EA030F58BF994208BF69
:100A800090422CBFD8176FEAE37040F00100704726
:100A90004FEA410C7FEA6C5C02D150EA013C07D17D
:100AA0004FEA430C7FEA6C5CD6D152EA033CD3D0C8
:100AB0005DF8040B704700BF8446104662468C46C2
:100AC0001946634600E000BF01B5FFF7B7FF0028F5
:100AD00048BF10F1000F01BD4DF808EDFFF7F4FF1E
:100AE0000CBF012000205DF808FB00BF4DF808EDA9
:100AF000FFF7EAFF34BF012000205DF808FB00BFCC
:100B00004DF808EDFFF7E0FF94BF012000205DF8ED
:100B100008FB00BF4DF808EDFFF7CEFF94BF0120A2
:100B200000205DF808FB00BF4DF808EDFFF7C4FF9B
:100B300034BF012000205DF808FB00BF4FEA410CE4
:100B40007FEA6C5C02D150EA013C0AD14FEA430CC7
:100B50007FEA6C5C02D152EA033C02D14FF0000004
:100B600070474FF0010070474FEA410212F5001242
:100B700015D211D56FF47873B3EB625212D94FEAE4
:100B8000C12343F0004343EA505311F0004F23FACE
:100B900002F018BF404270474FF00000704750EA23
:100BA000013005D111F0004008BF6FF000407047E0
:100BB0004FF00000704700BF80B400AF0B4B1B6BC1
:100BC0000A4A43F001031363084B1B6B074A43F0C7
:100BD00002031363054B5B6C044A43F48043536484
:100BE00000BFBD465DF8047B704700BF003802407F
:100BF00080B485B000AF78600023FB6002E0FB6842
:100C00000133FB607B684FF47A7203FB02F2FB68EE
:100C10009A42F4D800BF00BF1437BD465DF8047B8C
:100C2000704780B483B000AF0346FB80FB889B080D
:100C30009BB218460C37BD465DF8047B704790B4F4
:100C400084B000AF0446084611461A462346FB808E
:100C50000346BB800B467B8013463B807A88BB886B
:100C60009A4201D83B8820E0FA88BB889A4201D892
:100C70003B881AE0FA887B889A4201D33B8B14E0C8
:100C8000FA88BB88D31A19463A8B3B88D31A01FBE2
:100C900003F3FB607A88BB88D31A1A46FB68B3FB60
:100CA000F2F39AB23B8813449BB218461037BD4604
:100CB00090BC704780B582B000AF0346FB71054A17
:100CC000FB79137000F070FA034618460837BD46EA
:100CD00080BD00BFF001002080B586B000AF0346A4
:100CE0003960FB7100237B6100233B6115E0FB79D8
:100CF0001846FFF7DFFF03461A467B6913447B6102
:100D00000023FB6003E000BFFB680133FB60FB686E
:100D1000312BF8DD3B6901333B613A693B689A420C
:100D2000E5DB3B687A69B2FBF3F39BB218461837F0
:100D3000BD4680BD80B588B000AF786039604A4B51
:100D40004FF6FF725A80484B5A88474B1A80474BE0
:100D500000225A80454B5A88444B1A807B683A6877
:100D600002FB03F3FB61FB69002B01DC0123FB6148
:100D70003B68002B01DD3B6800E00A233C4A92FB04
:100D8000F3F33B610023BB6134E00023FB7520E0FB
:100D9000FB7D1846FFF78EFF0346BB81FB7D324A81
:100DA00032F81330BA899A4204D2FB7D2E49BA89AF
:100DB00021F81320FB7D2D4A32F81330BA899A426C
:100DC00004D9FB7D2949BA8921F81320FB7D013321
:100DD000FB75FB7D012BDBD90023BB6003E000BF6B
:100DE000BB680133BB60BB683A699A42F7D8BB69FC
:100DF0000133BB61BA69FB699A42C6DB0023BB754C
:100E00002AE0BB7D184A32F81320BB7D174931F820
:100E100013309A421DD34FF40063FB81FB8940F2EB
:100E2000DC52934238BF13469AB2BB7DA2F2DC5229
:100E300091B20D4A22F81310FB8903F2DC5340F6FD
:100E4000FF729A4228BF1A46BB7D91B2074A22F828
:100E50001310BB7D0133BB75BB7D012BD1D900BF06
:100E600000BF2037BD4680BDE4010020E80100201E
:100E700040420F0080B58AB002AF00F0FBFA00F0EC
:100E80001FFCFFF799FE0021324800F05BF90121B9
:100E9000304800F057F9304B1B692F4A23F03F03CD
:100EA00013612D4B1B692C4A43F03F03136114213E
:100EB0000320FFF73FFF04210020FFF70DFF03464B
:100EC000FB8304210120FFF707FF0346BB83234B6D
:100ED0001988234B1A88F88B40F6FF730093002380
:100EE000FFF7ADFE03467B831C4B59881C4B5A8889
:100EF000B88B40F6FF7300930023FFF7A0FE034674
:100F00003B837B8B1846FFF78CFE0346FB823B8BB3
:100F10001846FFF786FE0346BB82FB8B7B82BB8BAA
:100F20003B820E4B1B88FB810D4B1B88BB810B4BFF
:100F30005B887B810A4B5B883B817B8BFB803B8B97
:100F4000BB80FB8A7B80BB8A3B80C820FFF750FEBA
:100F500000BFB0E70000024000200140E401002093
:100F6000E801002080B400AF01231846BD465DF8BB
:100F7000047B704780B582B000AF7860396001F0C3
:100F8000F3FB034616221A604FF0FF33184608376A
:100F9000BD4680BD80B582B000AF78604FF0FF31B4
:100FA0007868FFF7E7FF00BFFDE780B586B000AFC8
:100FB000F860B9607A6000237B610AE0AFF30080DB
:100FC0000146BB685A1CBA60CAB21A707B69013309
:100FD0007B617A697B689A42F0DB7B681846183738
:100FE000BD4680BD80B586B000AFF860B9607A605C
:100FF00000237B6109E0BB685A1CBA601B78184665
:10100000AFF300807B6901337B617A697B689A4228
:10101000F1DB7B6818461837BD4680BD80B483B0CD
:1010200000AF78604FF0FF3318460C37BD465DF8CF
:10103000047B704780B483B000AF786039603B6850
:101040004FF400525A60002318460C37BD465DF835
:10105000047B704780B483B000AF786001231846EA
:101060000C37BD465DF8047B704780B485B000AF97
:10107000F860B9607A60002318461437BD465DF801
:10108000047B704780B586B000AF7860144A154B7A
:10109000D31A7B617B693B61134B1B68002B02D128
:1010A000114B124A1A60104B1A687B6813443A6954
:1010B0009A4207D201F058FB03460C221A604FF007
:1010C000FF3309E0084B1B68FB60074B1A687B681D
:1010D0001344054A1360FB6818461837BD4680BDA7
:1010E0000000012000040000EC0100203804002072
:1010F0000D488546AFF300800C480D490D4A00238A
:1011000002E0D458C4500433C4188C42F9D30A4ABC
:101110000A4C002301E013600432A242FBD301F029
:1011200029FBFFF7A7FEFEE70000012000000020DA
:10113000C8010020AC480008C80100203804002085
:10114000FEE7000080B586B000AF78600B46FB700C
:10115000124AFB781370FB789BB23B8103237B819F
:1011600000237B8207F108031946786800F050FCE1
:101170000B4B5B6C0A4A43F480735364094B9B68C6
:10118000084A43F001039360064B9B68054A23F02D
:101190000203936000BF1837BD4680BDF0010020F8
:1011A000003802400020014080B400AF114B5B6B5F
:1011B000104A23F01F0353630E4B5A6B0E4B1B78E0
:1011C00003F01F030B4913434B630A4B9B68094A07
:1011D00043F08043936000BF064B1B6803F002039B
:1011E000002BF9D0034BDB6C9BB21846BD465DF873
:1011F000047B704700200140F001002080B500AF63
:10120000074B1B68002B02D0054B1B689847054B0A
:101210009B68044A43F03D03936000BF80BD00BF5C
:10122000F40100200064024080B500AF074B5B680A
:10123000002B02D0054B5B689847054B9B68044A1E
:1012400043F47463936000BF80BD00BFF4010020CD
:101250000064024080B500AF054B5B69044A43F06F
:1012600001035361034B1B68984700BF80BD00BF5B
:10127000003C01401402002080B500AF054B5B69C3
:10128000044A43F002035361034B5B68984700BF75
:1012900080BD00BF003C01401402002080B500AFBB
:1012A000054B5B69044A43F004035361034B9B689D
:1012B000984700BF80BD00BF003C014014020020E1
:1012C00080B500AF054B5B69044A43F008035361E6
:1012D000034BDB68984700BF80BD00BF003C014066
:1012E0001402002080B500AF054B5B69044A43F04F
:1012F00010035361034B1B69984700BF80BD00BFBB
:10130000003C01401402002080B500AF264B5B6911
:1013100003F02003002B08D0234B5B69224A43F0E3
:1013200020035361214B5B6998471F4B5B6903F0B6
:101330004003002B08D01C4B5B691B4A43F0400361
:1013400053611A4B9B699847174B5B6903F0800305
:10135000002B08D0144B5B69134A43F080035361A0
:10136000124BDB699847104B5B6903F48073002BC9
:1013700008D00D4B5B690C4A43F4807353610B4BEF
:101380001B6A9847084B5B6903F40073002B08D075
:10139000054B5B69044A43F400735361034B5B6A7A
:1013A000984700BF80BD00BF003C014014020020F0
:1013B00080B500AF2D4B5B6903F48063002B08D030
:1013C0002A4B5B69294A43F480635361284B9B6A2B
:1013D0009847264B5B6903F40063002B08D0234B2E
:1013E0005B69224A43F400635361214BDB6A9847EF
:1013F0001E4B5B6903F48053002B08D01B4B5B69C9
:101400001A4A43F480535361194B1B6B9847174B8F
:101410005B6903F40053002B08D0144B5B69134A3B
:1014200043F400535361124B5B6B98470F4B5B695E
:1014300003F48043002B08D00C4B5B690B4A43F448
:10144000804353610A4B9B6B9847084B5B6903F4DD
:101450000043002B08D0054B5B69044A43F400436A
:101460005361034BDB6B984700BF80BD003C0140DC
:101470001402002080B400AF054B1B68044A43F4FB
:101480007003136000BFBD465DF8047B704700BF6A
:1014900088ED00E080B400AF00BFBD465DF8047B7E
:1014A0007047000080B586B000AF00237B60374BEB
:1014B0007B617B695B6803F400733B617B695B68FC
:1014C00003F48063FB607B695B6903F01003BB601E
:1014D0003B69002B0AD0BB68002B07D07B691A68D8
:1014E0007B691A600021786900F060F87B695B69AC
:1014F00003F00203BB603B69002B12D0BB68002BDA
:101500000FD07B699B6903F00103002B09D17B6934
:101510005B697B607B699B697B600121786900F076
:1015200045F87B695B6903F08003BB603B69002B76
:101530000FD0FB68002B0CD0BB68002B09D07B6957
:101540009B6903F00103002B03D10421786900F0AB
:101550002DF87B695B6903F04003BB603B69002B9E
:101560000FD0FB68002B0CD0BB68002B09D07B6927
:101570009B6903F00103002B03D10321786900F07C
:1015800015F800BF1837BD4680BD00BF00540040AD
:1015900080B400AF00BFBD465DF8047B704780B4E7
:1015A00000AF00BFBD465DF8047B704780B584B0D6
:1015B00000AF78600B46FB700023FB737B683C4AEE
:1015C000934202D10023FB730CE07B68394A9342BB
:1015D00002D10123FB7305E07B68374A934201D1B6
:1015E0000223FB73FB78052B5DD801A252F823F090
:1015F0001516000839160008A71600087516000809
:1016000051160008091600087B689B6903F0040363
:10161000002B41D17B689B6903F00403002B3DD074
:10162000FA7B264913469B001344DB000B4424330A
:101630001B680020984731E0FA7B204913469B0045
:101640001344DB000B4424331B68012098472AE035
:101650007B689B6903F00403002B21D0FA7B1749B8
:1016600013469B001344DB000B4424331B68042007
:10167000984715E07B689B6903F00403002B11D1A8
:10168000FA7B0E4913469B001344DB000B442433C2
:101690001B680320984705E000BF04E000BF02E09C
:1016A00000BF00E000BF00BF1037BD4680BD00BFD7
:1016B0000054004000580040005C004054020020EC
:1016C00080B400AF114B1B68104A23F480231360D1
:1016D0000E4B1B680D4A43F48033136000BF0B4B65
:1016E0001B6803F40033002BF9D0084B9B68074AB2
:1016F00023F002039360054B9B68044A43F0010307
:10170000936000BFBD465DF8047B7047003802401F
:1017100080B582B000AF134B9B685B0803F00103F8
:10172000DAB23B7962F300033B710E4B9B6803F026
:101730000103DAB23B7962F341033B71094B9B68C9
:101740001B0903F00103DAB23B7962F382033B71B8
:10175000054B1B685B693879984700BF0837BD4661
:1017600080BD00BF00300140CC02002080B582B0B7
:1017700000AF134B9B685B0803F00103DAB23B79BF
:1017800062F300033B710E4B9B6803F00103DAB276
:101790003B7962F341033B71094B9B681B0903F0E2
:1017A0000103DAB23B7962F382033B71054B5B685C
:1017B0005B693879984700BF0837BD4680BD00BFD8
:1017C00000380040CC02002080B582B000AF134B3F
:1017D0009B685B0803F00103DAB23B7962F3000314
:1017E0003B710E4B9B6803F00103DAB23B7962F365
:1017F00041033B71094B9B681B0903F00103DAB2FB
:101800003B7962F382033B71054B9B685B693879D6
:10181000984700BF0837BD4680BD00BF003C004070
:10182000CC02002080B400AF064B1B68054A23F0B1
:1018300001031360034B00229A6000BFBD465DF8B0
:10184000047B704710E000E080B500AF074B1B68D9
:10185000002B02D0054B1B689847054B1B78012BCA
:1018600001D1FFF7DFFF00BF80BD00BFD80200201D
:10187000DC02002080B400AF124B1B681B6903F030
:101880000103002B18D00F4B1B681A690D4B1B6806
:1018900022F001021A610C4B00221A70094B1B68DE
:1018A0001A68084B1B6822F001021A60074B1B687C
:1018B000064A43F08053136000BFBD465DF8047BC9
:1018C000704700BFE0020020E402002080E100E059
:1018D00080B400AF0E4B1B681A690D4B1B6822F0D9
:1018E00001021A610B4B00221A700B4B1B680A4A4B
:1018F00043F000531360064B1B681A68044B1B68C7
:1019000022F001021A6000BFBD465DF8047B7047FB
:10191000E0020020E402002080E100E080B400AF9B
:101920000E4B1B681A690D4B1B6822F001021A61ED
:101930000B4B00221A700B4B1B680A4A43F0804382
:101940001360064B1B681A68044B1B6822F00102E7
:101950001A6000BFBD465DF8047B7047E0020020BE
:10196000E402002080E100E080B400AF0E4B1B6871
:101970001A690D4B1B6822F001021A610B4B002201
:101980001A700B4B1B680A4A43F480231360064B02
:101990001B681A68044B1B6822F001021A6000BF22
:1019A000BD465DF8047B7047E0020020E4020020A1
:1019B00084E100E080B582B000AF134B1B68DB0907
:1019C00003F00103DAB23B7962F300033B710E4B83
:1019D0001B685B0903F00103DAB23B7962F3410350
:1019E0003B71094B1B689B0903F00103DAB23B7999
:1019F00062F382033B71054B1B68DB6838799847BB
:101A000000BF0837BD4680BD00100140E80200203D
:101A100080B485B000AF786039603B681B88FB609C
:101A20007B681B68FA685200032101FA02F2D24374
:101A30001A407B681A607B685B680121FA6801FACA
:101A400002F2D2431A407B685A607B689B68FA684E
:101A50005200032101FA02F2D2431A407B689A60D5
:101A60007B68DB68FA685200032101FA02F2D24374
:101A70001A407B68DA603B685B88032B00F09C802F
:101A8000032B00F3B080012B02D0022B2ED0AAE052
:101A90007B681B68FA685200012101FA02F21A43BE
:101AA0007B681A607B685B683A6812891146FA683D
:101AB00001FA02F21A437B685A607B689B683A68B5
:101AC00092891146FA68520001FA02F21A437B68C1
:101AD0009A607B68DB683A6852891146FA6852005E
:101AE00001FA02F21A437B68DA608AE07B681B68BD
:101AF000FA685200022101FA02F21A437B681A6066
:101B00007B685B683A6812891146FA6801FA02F24A
:101B10001A437B685A607B689B683A6892891146D1
:101B2000FA68520001FA02F21A437B689A607B68F5
:101B3000DB683A6852891146FA68520001FA02F2EB
:101B40001A437B68DA60FB68072B16D87B681B6A30
:101B5000FA6892000F2101FA02F2D2431A407B6820
:101B60001A627B681A6A3B685968FB689B0001FA35
:101B700003F31A437B681A6242E0FB68072B3FD9E4
:101B8000FB680F2B3CD87B685B6AFA68083A9200C6
:101B90000F2101FA02F2D2431A407B685A627B6835
:101BA0005A6A3B685968FB68083B9B0001FA03F3DB
:101BB0001A437B685A6223E07B681B68FA6852000C
:101BC000032101FA02F21A437B681A607B68DB6822
:101BD0003A6852891146FA68520001FA02F21A4331
:101BE0007B68DA600DE07B68DB683A6852891146F1
:101BF000FA68520001FA02F21A437B68DA6000E0E8
:101C000000BF00BF1437BD465DF8047B70472DE967
:101C1000FF4757EC106B002F0C4619463B46BBBFE5
:101C200007F100431F4600232D230B700D9BDDF8A9
:101C300030A0914623F02008BCBF32461646B8F1CA
:101C4000460F05D0B8F1450F00D10134022100E064
:101C5000032103AB019302AB009347EC106B534697
:101C6000224600F039FEB8F1470F054619D119F0A8
:101C7000010F0ED000EB0409002200233046394644
:101C8000FEF72AFF08B1CDF80C903022039B4B459C
:101C90001ED3039B0E9A5B1B2846136004B0BDE85D
:101CA000F087B8F1460F00EB0409E5D10378302B3B
:101CB0000AD10022002330463946FEF70DFF18B93D
:101CC000C4F10104CAF80040DAF800309944D3E7BF
:101CD000591C03911A70D9E7F7B50029BABF4942D8
:101CE0002D232B2309290270437029DD0DF10703F1
:101CF0001D460A271A46B1FBF7F607FB16143034C7
:101D000002F8014C0C46632C03F1FF333146F1DC41
:101D10003031941E03F8011C411C2346AB420AD308
:101D20000DF109039B1AAC4288BF00230233034420
:101D3000181A03B0F0BD13F8016B01F8016FEDE75D
:101D4000302330318370C170031DF1E72DE9F04F6E
:101D50008DB00C46DDF8588016461F46054600F04B
:101D6000B9FC036804931846FEF78AFA00230A9325
:101D7000D8F800300590073323F0070303F1080279
:101D800094F818A0D4F800B0C8F80020D3E900896E
:101D900029F000430793CDF81880C4E91289DDE9E2
:101DA00006019C4B4FF0FF32FEF7C8FE70BBDDE929
:101DB0000601984B4FF0FF32FEF7A2FE30BB002227
:101DC000002340464946FEF791FE10B12D2384F8CA
:101DD0004330914A914BBAF1470F8CBF90469846D9
:101DE000032323612BF0040323604FF000090097C5
:101DF00033460BAA2146284600F0D2F9013040F0C4
:101E00008D804FF0FF300DB0BDE8F08F42464B465D
:101E100040464946FEF792FE40B14B46002BBCBF00
:101E20002D2384F843307E4A7E4BD4E763680AF062
:101E3000DF0206925A1C3BD1062363604BF480629A
:101E40000023226003930AABCDE901A309AB009301
:101E5000616849EC108B0DF123032846FFF7D7FE8C
:101E6000069B0999472B804629D1C81C02DB636871
:101E7000994241DDAAF1020A5FFA8AFA0139524613
:101E800004F150000991FFF727FF0A9A1318012A5D
:101E90008146236102DC2268D20701D50133236128
:101EA0009DF82330002BA2D02D2384F843309EE7E9
:101EB000069A472AC2D1002BC0D10123BDE7BAF14F
:101EC000650FDBD9BAF1660F18D1002963680BDD05
:101ED000216113B92268D00702D501330B44236175
:101EE000A1654FF00009DBE713B92268D20701D5DD
:101EF0000233F4E70123F2E74FF0670A0A9B9942A5
:101F000005DB23682161D807EAD54B1CE7E70029E8
:101F1000D4BFC1F1020201221344E0E723685A054D
:101F200007D42369424631462846B84701302BD1B1
:101F300067E7BAF1650F40F2DD80D4E912010022B3
:101F40000023FEF7C9FD002833D0374A012331466C
:101F50002846B84701303FF454AFDDE9093843451E
:101F600002DB2368D8070FD5DDE904233146284674
:101F7000B84701303FF445AF4FF0000908F1FF3892
:101F800004F11A0AC84509DC23689B0700F10381A4
:101F9000E0680B9B9842B8BF184634E701235246CD
:101FA00031462846B84701303FF42BAF09F101090B
:101FB000E8E7099B002B39DC1B4A01233146284600
:101FC000B84701303FF41DAFDDE9093959EA030391
:101FD00002D12368D907D7D5DDE904233146284645
:101FE000B84701303FF40DAF4FF0000A04F11A0B6F
:101FF000099B5B42534501DC4B4693E701235A465C
:1020000031462846B84701303FF4FBAE0AF1010AD9
:10201000EEE700BFFFFFEF7F2C45000828450008D2
:10202000344500083045000838450008A36DDDF848
:1020300028A05345A8BF5346002B994636DC4FF0E5
:10204000000B29EAE97904F11A02A36D0693A3EBC8
:1020500009035B4531DC099B9A453ADC2368DA07C2
:1020600037D4099BAAEB0309069BAAEB0303994506
:10207000A8BF9946B9F1000F33DC4FF0000829EAF8
:10208000E97904F11A0B099BAAEB0303A3EB0903FB
:1020900043457FF779AF01235A4631462846B84772
:1020A00001303FF4AEAE08F10108ECE7424631469C
:1020B0002846B8470130C2D1A3E60123314628465D
:1020C0000692B84701303FF49CAE069A0BF1010B23
:1020D000BBE7DDE9042331462846B8470130C0D1CB
:1020E0008FE6069A4B46424431462846B8470130AF
:1020F000C3D186E6DDF828A0BAF1010F01DCDB07C9
:1021000036D50123424631462846B84701303FF4D0
:1021100078AEDDE9042331462846B84701303FF464
:1021200070AED4E91201002200230AF1FF3AFEF753
:10213000D3FCC0B9534608F1010231462846B847DE
:1021400001300CD15DE601235A4631462846B84796
:1021500001303FF456AE08F10108D045F3DB4B46A1
:1021600004F15002DFE64FF0000804F11A0BF4E727
:1021700001234246E1E701234A4631462846B84753
:1021800001303FF43EAE08F10108E3680B995B1A99
:102190004345F0DCFCE64FF0000804F11909F4E7D0
:1021A0002DE9F047164698468A680B69DDF82090BD
:1021B0009342B8BF1346336091F8432007460C465C
:1021C0000AB1013333602368990642BF3368023392
:1021D0003360256815F0060506D104F1190AE36895
:1021E00032689B1AAB4226DC94F843302268003BED
:1021F00018BF012392062BD404F14302414638460E
:10220000C84701301ED02368226903F00603042B5F
:1022100002BFE5683368ED1AA3680CBF25EAE575CF
:1022200000259342C4BF9B1AED1800261A34B5420C
:102230001AD1002008E00123524641463846C847DB
:10224000013003D14FF0FF30BDE8F0870135C6E71C
:10225000E1185A1C302081F84300224494F84510BC
:1022600082F843100233C7E701232246414638462D
:10227000C8470130E6D00136D9E700002DE9FF4715
:102280000F7E0C9E782F914680460C469A4601F1AF
:10229000430207D8622F0AD8002F00F0D180582FB0
:1022A00000F0B88004F1420684F842703AE0A7F1E9
:1022B0006303152BF6D801A151F823F0152300086C
:1022C00029230008A5220008A5220008A52200084D
:1022D000A522000829230008A5220008A52200083D
:1022E000A5220008A522000827240008532300087F
:1022F000E1230008A5220008A522000849240008BF
:10230000A522000853230008A5220008A5220008E2
:10231000E923000833681A1D1B68326004F1420685
:1023200084F8423001239CE033682068191D316035
:10233000060601D51D6803E04506FBD5B3F900503C
:10234000002D03DA2D236D4284F8433058480A23C8
:1023500011E021683368080653F8045B02D449068B
:1023600048BFADB26F2F5248336014BF0A23082311
:10237000002184F843106668A660002E05DB216802
:102380002E4321F0040121604BD01646B5FBF3F13A
:1023900003FB1157C75D06F8017D2F46BB420D4672
:1023A000F4D9082B0BD12368DF0708D523696168AE
:1023B0009942DEBF302306F8013C06F1FF36921B3E
:1023C0002261CDF800A04B4603AA21464046FFF704
:1023D000E7FE01304AD14FF0FF3004B0BDE8F0878E
:1023E000236843F0200323603248782784F845703F
:1023F000236831681F0651F8045B02D45F0648BFAA
:10240000ADB23160D90744BF43F0200323601DB152
:102410001023ADE72648E9E7236823F02003236073
:10242000F6E71646BDE7336825686169181D306018
:102430002E061B6801D5196002E06806FBD51980DD
:10244000002323611646BCE733681A1D32601E68FC
:10245000626800213046FDF7C3FE08B1801B606052
:1024600063682361002384F84330AAE72369324676
:1024700049464046D0470130ADD023689B0713D46E
:10248000E068039B9842B8BF1846A6E7012332468E
:1024900049464046D04701309DD00135E368039955
:1024A0005B1AAB42F2DCEBE7002504F11906F5E715
:1024B0003A4500084B450008002310B50446C0E922
:1024C0000033C0E90433836081814366C281836144
:1024D000194608225C3000F0F4F80D4B63620D4B96
:1024E000A3620D4BE3620D4B23630D4B24629C42B0
:1024F00006D003F16802944202D0D0339C4205D149
:1025000004F15800BDE8104000F058B910BD00BFFC
:102510003D2600085F26000897260008BB26000815
:10252000EC020020024A0349034800F069B800BFEA
:1025300000000020753E00081000002041680C4B90
:10254000994210B5044601D001F094FCA168094BF2
:10255000994202D0204601F08DFCE168064B994279
:1025600004D02046BDE8104001F084BC10BD00BF7F
:10257000EC02002054030020BC03002010B50B4BDC
:102580000B4C0C4A1A60204600220421FFF794FFEE
:1025900004F1680001220921FFF78EFF04F1D00049
:1025A0000222BDE810401221FFF786BF240400205C
:1025B000EC02002025250008014800F000B900BF0A
:1025C0002D040020014800F0FBB800BF2D040020BE
:1025D00010B50446FFF7F0FF236A1BB1BDE81040B9
:1025E000FFF7F0BF044B2362044B1B68002BF5D1AF
:1025F000FFF7C4FFF2E700BF3D25000824040020D8
:102600002DE9F8430746884614460026D4E901958B
:10261000B9F1010905D52468002CF7D13046BDE891
:10262000F883AB89012B07D9B5F90E30013303D0FC
:1026300029463846C04706436835E9E710B50C46D9
:10264000B1F90E1000F06CF80028ABBF636DA389E0
:102650001B1823F48053ACBF6365A38110BD2DE923
:10266000F0411F468B89DB0505460C46164605D50D
:10267000B1F90E100223002200F040F8A389B4F94A
:102680000E1023F48053A38132463B462846BDE812
:10269000F04100F057B810B50C46B1F90E1000F03B
:1026A0002DF8431CA38915BF606523F4805343F4C0
:1026B0008053A38118BFA38110BDB1F90E1000F0A3
:1026C0000DB802440346934200D1704703F8011B42
:1026D000F9E70000004870474C01002038B5064D6E
:1026E0000023044608462B60FEF798FC431C02D1E9
:1026F0002B6803B1236038BD2804002038B5074D8E
:1027000004460846114600222A601A46FEF7ADFC30
:10271000431C02D12B6803B1236038BD280400207C
:1027200038B5074D04460846114600222A601A466D
:10273000FEF73BFC431C02D12B6803B1236038BD7C
:102740002804002038B5074D0446084611460022EB
:102750002A601A46FEF746FC431C02D12B6803B1DF
:10276000236038BD28040020014B1868704700BF63
:102770000C00002070B50D4D0D4C641BA4100026FC
:10278000A64209D10B4D0C4C01F0C2FE641BA410F3
:102790000026A64205D170BD55F8043B9847013686
:1027A000EEE755F8043B98470136F2E7A4480008E5
:1027B000A4480008A4480008A848000870477047CB
:1027C00070472DE9F74F03690C69A34207467EDB8A
:1027D000013C01F11408A30000F11405009305EB7E
:1027E0008403019358F8243055F8242001339A4289
:1027F00008EB8409B2FBF3F62ED34FF0000AC4466F
:10280000AE46D3465CF8043B98B206FB00A0020C2F
:102810001B0C06FB0323DEF8002080B292B2121AD2
:102820005A44DEF800004FEA134A9BB2C3EB22433E
:1028300003EB104392B242EA0342E1454EF8042B07
:102840004FEA234BDED2009BEB582BB9019B043B94
:102850009D421A462FD33C61384601F07FF900288B
:1028600025DB2946002058F8042BD1F800C01FFAB8
:1028700082FE1FFA8CF3A3EB0E030344120CC2EB8F
:10288000234202EB1C429BB243EA0243C14541F89A
:10289000043B4FEA2240E6D255F8242005EB84039E
:1028A00022B9043B9D421A460BD33C6101363046A7
:1028B00003B0BDE8F08F1268043B002ACBD1013C85
:1028C000C6E71268043B002AEFD1013CEAE700208A
:1028D000EEE70000000000002DE9F04FC76997B057
:1028E0008DED040B55EC104B209E079181460C9208
:1028F00011937FB9102000F009FE0246C9F81C00B0
:1029000020B9A94BEF21A94801F0FAFAC0E90177F3
:102910000760C760D9F81C30196859B15A684A6015
:10292000012393408B60484600F0E6FED9F81C3046
:1029300000221A602B1EB9BF23F000430593002329
:102940003360059F9A4BBCBF01223260BB4312D15A
:10295000119A42F20F731360C7F31303234300F07D
:102960005A85219BDFF85CA2002B00F05C850AF100
:10297000030300F056BD9DED047B002251EC170BC4
:1029800000238DED0A7BFEF7A7F8804658B1119A17
:1029900001231360219B13B1219A864B1360DFF84A
:1029A00028A200F040BD9DED0A0B14AA15A94846C7
:1029B00001F084F9C7F30A560290002E78D00B9BE1
:1029C000CDF84880C3F31303DDE90A0143F07F53D8
:1029D00043F44013A6F2FF3619460022764BFDF76A
:1029E0005BFC6BA3D3E90023FDF70EFE6AA3D3E9DA
:1029F0000023FDF753FC044630460D46FDF79AFDD3
:102A000067A3D3E90023FDF7FFFD02460B462046EE
:102A10002946FDF743FC04460D46FEF7A5F80022C3
:102A20000746002320462946FEF760F840B13846A5
:102A3000FDF780FD22462B46FEF74EF800B9013F18
:102A4000162F52D85D4B03EBC703D3E90023DDE912
:102A50000A01FEF74BF8002849D0013F00231093EC
:102A6000149B9B1B5A1E45BFC3F101030093002317
:102A70000023069254BF00930693002F39DB069B78
:102A80000D973B44069300230893079B092B63D8BB
:102A9000052BC4BF043B0793079BA3F10203CCBFE4
:102AA00000240124032B63D8DFE803F05254372BB2
:102AB000DDE914631E4406F23243202BC1BFC3F18B
:102AC00040039F4006F2124324FA03F3D6BFC3F13A
:102AD000200347EA030004FA03F0FDF71BFD01227F
:102AE000A1F1F873013E129276E70123B7E7109047
:102AF000B6E7009BDB1B00937B42089300230D93FA
:102B0000C3E7012309930C9B07EB030B0BF10103B4
:102B1000012B0393B8BF012306E0012309930C9B0B
:102B2000002B28DD9B460393D9F81C0000210422CA
:102B300002F114059D4226D94160484600F09CFDF3
:102B40008246002842D11E4B024640F2AF11DAE61F
:102B50000023E3E70023D5E701240023079309942A
:102B60004FF0FF3B0022CDF80CB012230C92DBE7B4
:102B700001230993F4E74FF0010BCDF80CB05B464D
:102B8000CDF830B0D0E701315200D1E7AFF300808B
:102B900061436F63A787D23FB3C8608B288AC63F63
:102BA000FB799F501344D33F6945000880450008D6
:102BB0000000F07F394500080000F83FD0460008CB
:102BC000D84500086545000838450008D9F81C308C
:102BD0001860039B0E2B00F2A180002C00F09E8059
:102BE000002F33DD9C4B07F00F0203EBC20393ED84
:102BF000007BF8058DED0E7B4FEA271416D5974B19
:102C0000DDE90A01D3E90823FDF728FECDE9040137
:102C100004F00F040326914D54B9DDE90E23DDE9DC
:102C20000401FDF71BFECDE9040128E00226F2E7CE
:102C3000E10708D5DDE90E01D5E90023FDF7E4FC45
:102C4000CDE90E01013664100835E5E700F0AF80EC
:102C50007C42814B814D04F00F0203EBC203D3E9A8
:102C60000023DDE90A01FDF7CFFCCDE904012411C1
:102C700000230226002C40F08F80002BD3D1109B24
:102C8000DDE90445002B00F09480754B00222046BE
:102C90002946FDF72BFF002800F08B80039B002BBB
:102CA00000F08780BBF1000F34DD20466D4B002221
:102CB0002946FDF7A9FCCDE9040107F1FF380136EB
:102CC0005C463046FDF736FCDDE90423FDF79CFC4D
:102CD000654B0022FDF7E2FA0546A1F15076002C83
:102CE0006AD1DDE90401614B0022FDF7D5FA024605
:102CF0000B46CDE904232A463346FDF715FF00288D
:102D000040F09882DDE904012A4606F10043FDF710
:102D1000EDFE38BBDDE90A34CDE90434159B002B08
:102D2000C0F257810E2F00F354814B4B03EBC703C6
:102D300093ED007B0C9B002B8DED007B80F2E580FA
:102D4000039B002B00F3E1800CD1484B002251EC97
:102D5000170BFDF759FCDDE90423FDF7DBFE002826
:102D600000F06682002425460C9B56466FEA030855
:102D700000272146484600F0BFFC002D00F0BD8032
:102D80002FB1AF4203D03946484600F0B5FC294682
:102D9000484600F0B1FCB0E0E20705D5D5E90023D4
:102DA000FDF732FC013601236410083562E7022684
:102DB00065E7039CB84684E7274B099903EBC403F6
:102DC00053E902235444002954D029490020FDF737
:102DD00045FD33462A46FDF75FFACDE90E0156461A
:102DE000DDE90401FDF7C0FE0546FDF7A3FB024641
:102DF0000B46DDE90401FDF74FFA303502460B467C
:102E0000CDE9042306F8015BDDE90E23FDF76EFE34
:102E1000002872D1DDE9042311490020FDF73CFAB6
:102E2000DDE90E23FDF762FE002840F0B480A642E3
:102E30003FF470AFDDE90E010A4B0022FDF7E4FB21
:102E4000084BCDE90E010022DDE90401FDF7DCFBB2
:102E5000CDE90401C4E700BFD0460008A846000839
:102E60000000F03F0000244000001C40000014401F
:102E70000000E03F31462846FDF7C6FBCDE90E01D4
:102E800013945646DDE90401FDF76EFE0546FDF795
:102E900051FB02460B46DDE90401FDF7FDF9303533
:102EA00006F8015B02460B46A642CDE904234FF02B
:102EB000000224D1AF4BDDE90E01FDF7EFF9024628
:102EC0000B46DDE90401FDF72FFE002863D1DDE9A3
:102ED0000E23A8490020FDF7DFF902460B46DDE985
:102EE0000401FDF703FE00283FF414AF139E731E88
:102EF000139316F8013C302BF8D047463BE09E4B2D
:102F0000FDF782FBCDE90401BCE7DDE90445564647
:102F1000DDE9002320462946FDF7A0FCFDF724FE4D
:102F20008046FDF707FBDDE90023FDF76DFB024658
:102F30000B462046294608F13004FDF7ADF906F8A6
:102F4000014B039DA6EB0A04A54202460B4633D172
:102F5000FDF7A4F9DDE9002304460D46FDF7E4FD85
:102F6000C0B9DDE9002320462946FDF7B5FD10B1C3
:102F700018F0010F0ED10299484600F0BDFB002366
:102F80003370119B01371F60219B002B00F04B8297
:102F90001E6048E2B84633461E4613F8012D392A12
:102FA00006D19A45F8D1302208F101088AF80020AC
:102FB0001A7801321A70A0E76F4B0022FDF724FB4C
:102FC0000022002304460D46FDF786FD00289FD011
:102FD000D1E7099A002A00F0EA80079A012A00F353
:102FE000CD80129A002A00F0C18003F23343089C7E
:102FF000009E009A1A440092069A01211A444846FB
:10300000069200F02DFC054666B1069B002B09DDFB
:10301000B342009AA8BF3346D21A0092069AF61A13
:10302000D31A0693089B0BB3099B002B00F0C680B4
:10303000002C00F0C08029462246484600F0C8FC1B
:10304000029A01460546484600F020FC0299804657
:10305000484600F051FB089B1B1B089300F0B18011
:10306000089A4146484600F0B3FC029001214846C8
:1030700000F0F6FB0D9B0446002B00F0D8811A46A9
:103080000146484600F0A4FC079B012B044600F3D0
:103090009F80049B002B40F09780059BC3F3130394
:1030A000002B40F09380059B23F000431B0D1B0574
:1030B00033B1009B01330093069B01330693012338
:1030C00008930D9B002B00F0B881236904EB830368
:1030D000186900F079FBC0F12000069B184410F03D
:1030E0001F0000F08280C0F12003042B73DD009BE1
:1030F000C0F11C0003440093069B0344064406935E
:10310000009B002B05DD02991A46484600F0BAFCE8
:103110000290069B002B05DD21461A46484600F02A
:10312000B1FC0446109B002B61D00298214600F0B0
:1031300015FD00285BDA002302990A22484600F0B8
:10314000FDFA099B029007F1FF38002B00F0778110
:10315000294600230A22484600F0F0FABBF1000F8E
:1031600005466FDC079B022B49DC6BE0149BC3F127
:1031700036033CE70000E03F00002440039B5C1E58
:10318000089BA34209DB1C1B039B002BBFF630AF3F
:10319000009B039A9E1A00232BE7089B0D9A089424
:1031A000E31A1A44009E039B0D92002421E7089C19
:1031B000009E099D28E7DDF8088051E7089A0299EA
:1031C00050E7CDF8088051E7002379E7049B77E7C3
:1031D0000023089379E793D0009A1C331A44009295
:1031E000069A1A441E4406928AE70346F4E7039BB4
:1031F000002BB84620DC9B46079B022B1EDDBBF153
:10320000000F7FF4B1AD21465B460522484600F031
:1032100095FA01460446029800F0A0FC00287FF7CA
:10322000A3AD5646312306F8013B08F101089FE59E
:10323000039CB8462546F4E7DDF80CB0099B002B4B
:1032400000F00181002E05DD29463246484600F097
:1032500019FC0546089B002B5CD06968484600F0C5
:103260000BFA064628B9824B024640F2EF21FFF7DF
:103270004ABB2A690232920005F10C010C3000F0C1
:1032800031FE01223146484600F0FCFB0AF1010301
:1032900000930AEB0B030893049B03F001032F46F2
:1032A00006930546009B0298214603F1FF3BFFF77A
:1032B00088FA03463033039039460298099300F0A8
:1032C0004DFC2A4604902146484600F063FCC26843
:1032D000099B064602BB0146029800F03FFC099B91
:1032E0000246314648460C92099300F005FA079BC6
:1032F0000C9A009E42EA0301069B1943099B0DD1DB
:10330000392B27D0049A002A01DD039B31338BF837
:1033100000302EE52846B9E70122E2E704990029AA
:1033200004DB079801430698014320D1002AEEDD13
:10333000029900930122484600F0A4FB2146029026
:1033400000F00CFC0028009B02DCE0D1DA07DED59F
:10335000392BDAD139238BF8003033461E46013B36
:1033600016F8012C392A4ED001321A7001E5002AD4
:1033700003DD392BEED00133C9E7009A089902F832
:10338000013C8A4228D0029900230A22484600F0D4
:10339000D5F9AF4202904FF000034FF00A023946D0
:1033A000484607D100F0CAF907460546009B01339D
:1033B000009377E700F0C2F92946074600230A2266
:1033C000484600F0BBF90546F0E7BBF1000FCCBF63
:1033D0005E46012656440027029900930122484682
:1033E00000F050FB2146029000F0B8FB0028B4DC4E
:1033F00002D1009BDB07B0D433461E4613F8012DE3
:10340000302AFAD0B5E49A45A8D1312308F1010851
:103410008AF80030ADE4219BDFF858A01BB10AF117
:103420000803219A1360504617B0BDE8F08F079B40
:10343000012B7FF72EAE0D9B089301204DE6BBF1CB
:10344000000F7FF7D9AE564602982146FFF7B9F92B
:1034500000F1300306F8013BA6EB0A029345B4DD08
:10346000029900230A22484600F068F90290EBE72F
:10347000D84500085C45000838B50546002941D00C
:1034800051F8043C0C1F002BB8BFE41800F0E8F81A
:103490001D4A136833B9636014602846BDE838409C
:1034A00000F0E4B8A34208D9206821188B4201BF7C
:1034B00019685B6809182160EDE71A465B680BB173
:1034C000A342FAD911685018A0420BD120680144D8
:1034D000501883421160E0D118685B68536008445B
:1034E0001060DAE702D90C232B60D6E72068211898
:1034F0008B4204BF19685B68636004BF09182160D0
:103500005460CAE738BD00BF34040020024B0146B6
:10351000186800F025B800BF0C00002070B50F4EF1
:103520000C463168054611B900F0CCFC30602146EC
:10353000284600F0C7FC431C03D14FF0FF3420465F
:1035400070BDC41C24F00304A042F8D0211A284600
:1035500000F0B8FC0130F2D1EFE700BF30040020EA
:103560002DE9F843CD1C25F0030508350C2D38BF97
:103570000C25002D064601DBA94204D90C2333603B
:103580000020BDE8F883DFF8D48000F069F8D8F8AF
:1035900000301C4644BB29463046FFF7BFFF431CA2
:1035A000044658D1D8F800402746002F43D1002CBC
:1035B0004BD023683946304604EB030900F082FC07
:1035C000814542D121686D1A29463046FFF7A6FF92
:1035D00001303AD023682B442360D8F800305A6871
:1035E00062BBC8F800700FE02268521B20D40B2A7F
:1035F00017D96119A342256018BF5960636808BFD5
:10360000C8F8001062514B60304600F02FF804F10A
:103610000B00231D20F00700C21A1CBF1B1AA35069
:10362000AFE76268A3420CBFC8F800205A60EBE71E
:1036300023466468AEE73C467F68B6E71A465B6897
:10364000A342FBD100235360DEE70C2333603046F6
:1036500000F00CF894E70560D6E700BF34040020C2
:103660000148FFF7ACB800BF2C0400200148FFF769
:10367000A7B800BF2C04002070B5C66904460D46EB
:1036800076B91020FFF742FF0246E06120B9184BDF
:1036900018486B2100F034FCC0E901660660C66082
:1036A000E669F36883B1E369DB6853F82500B8B9CC
:1036B000012101FA05F6721D9200204600F03EFC41
:1036C00060B1C0E901560EE021220421204600F03D
:1036D00035FCE369F060DB68002BE4D1002070BDAD
:1036E000026843F825200023C0E90333F7E700BF51
:1036F00069450008E945000870B5C66905460C46ED
:1037000076B91020FFF702FF0246E86120B9094BA5
:1037100009488F2100F0F4FBC0E901660660C6602D
:103720003CB1EB696268DB6853F82210216043F812
:10373000224070BD69450008E94500082DE9F041C7
:103740000D6907460C461E4601F1140C0020DCF8FA
:10375000003099B202FB01611E0C0B0C02FB063318
:1037600089B2013001EB034185424CF8041B4FEA5A
:103770001346ECDC0EB3A368AB4219DC6168384633
:103780000131FFF779FF804628B902460C4B0D48FE
:10379000BA2100F0B5FB2269023204F10C0192005B
:1037A0000C3000F09FFB21463846FFF7A5FF44464A
:1037B00004EB850301355E6125612046BDE8F0819B
:1037C000D8450008E9450008B0F5803F034636BFFC
:1037D000030400201020B3F1807F3CBF1B0208309F
:1037E000B3F1805F3CBF1B010430B3F1804F3CBF9D
:1037F0009B000230002B05DB13F0804F00F101002D
:1038000008BF202070470368024613F007000BD062
:10381000D90721D4980749BF5B089B080120136092
:103820005CBF13600220704799B209B91B0C1020CD
:10383000D9B209B908301B0A190704BF1B090430A3
:10384000990704BF9B080230D90703D45B0800F135
:10385000010003D01360704700207047202070479C
:1038600010B50C460121FFF707FF024628B9054BAA
:10387000054840F2451100F043FB01234461036118
:1038800010BD00BFD8450008E94500082DE9F04FFC
:1038900017460A693B699A42A8BF3B468946A4BFBE
:1038A0000F4699463D69D9F810A0BB68796805EBC9
:1038B0000A06B34285B0B8BF0131FFF7DDFE30B96B
:1038C0000246414B41484FF4B17100F019FB00F141
:1038D000140404EB860E23460022734520D307F11F
:1038E000140809F1140108EB850501EB8A03029322
:1038F000EB1B153B23F0030304331537BD4238BFE0
:1039000004230193029B03918B420CD8002E03DD0C
:103910005EF8043D002B55D0066105B0BDE8F08F80
:1039200043F8042BD9E7B1F800A0BAF1000F1FD07B
:10393000C446A14600275CF8042BD9F800301FFAD2
:1039400082FB9BB20AFB0B333B44D9F80070120C8C
:103950003F0C0AFB027202EB13429BB243EA0243A2
:10396000654549F8043B4FEA1247E4D8019BE7500C
:10397000039BB3F802900431B9F1000F20D0236803
:103980004746A4464FF0000AB7F800B0BCF8022042
:1039900009FB0B2252449BB243EA02434CF8043B1E
:1039A00057F8043B4FEA134ABCF8003009FB0A33CE
:1039B00003EB1243BD424FEA134AE5D8019AA350E4
:1039C00004349FE7013EA1E7D8450008E945000817
:1039D0002DE9F843154612F0030207460E4607D0BC
:1039E000254C013A002354F82220FFF7A7FE064693
:1039F000AD103DD0FC697CB91020FFF787FD024671
:103A0000F86128B91D4B1E4840F2B31100F078FA56
:103A1000C0E901440460C460D7F81C80D8F80840AD
:103A20004CB940F271213846FFF71AFF0023C8F85D
:103A30000800044603604FF00009EB070AD5314641
:103A400022463846FFF722FF314680463846FFF7C8
:103A500053FE46466D100BD0206838B922462146E9
:103A60003846FFF713FF2060C0F800900446E4E7F3
:103A70003046BDE8F88300BF9C4600086945000851
:103A8000E94500082DE9F0470C464968236903EB36
:103A90006218A368074691464FEA621A08F10106C8
:103AA000B3420BDB3846FFF7E7FD054648B902464F
:103AB000284B29484FF4EF7100F022FA01315B00E6
:103AC000EEE7002300F1140100F1100218465345FF
:103AD00033DB20692AEAEA7A04F1140319F01F099A
:103AE00001EB8A0103EB800C2BD0C9F1200E8A4632
:103AF0000022186800FA09F010434AF8040B53F842
:103B0000042B9C4522FA0EF2F3D8ACEB0403153BD0
:103B100023F00303043304F11500604588BF042338
:103B2000CA500AB108F10206013E38462E6121460C
:103B3000FFF7E2FD2846BDE8F08742F8040F0133A5
:103B4000C5E7043953F8042B41F8042F9C45F9D8F4
:103B5000EAE700BFD8450008E94500080A690346BE
:103B60000069801A30B50ED11433143103EB82048E
:103B700001EB820154F8045D51F8042D954203D005
:103B800005D24FF0FF3030BDA342F3D3FBE7012055
:103B9000F9E700002DE9F74F8946064611464846E9
:103BA0001446FFF7DBFF051E12D129463046FFF70A
:103BB00063FD024628B93F4B40F237213E4800F0F2
:103BC0009FF90123C0E90435104603B0BDE8F08F2A
:103BD000BCBF4B46A1463046D9F80410BABF1C46BC
:103BE00001250025FFF748FD024618B9314B40F288
:103BF0004521E3E7D9F810702669C56009F1100383
:103C000009F1140504F1140E00F1140B05EB8708FB
:103C10000EEB86060193D9464FF0000C019B5EF82F
:103C2000040B53F804AF01931FFA8AF3194683B2C9
:103C3000CB1A000C6344C0EB1A4000EB23409BB24C
:103C400043EA0043764549F8043B4FEA204CE5D867
:103C5000331B153B23F0030315340433A64238BF4E
:103C600004231D445B441E462C4644450ED308F1F4
:103C70000301491B21F00301033DA84538BF002182
:103C80000B4453F8041D91B117619DE754F8041BD0
:103C9000E646080C1CFA81FC714400EB2C4089B20A
:103CA00041EA004146F8041B4FEA204CDDE7013FA2
:103CB000E7E700BFD8450008E94500082DE9F743CC
:103CC0000F46012159EC108B1646FFF7D5FC044630
:103CD00030B90246234B244840F20F3100F010F96E
:103CE000C9F30A55C9F313030DB143F480130193CB
:103CF000B8F1000323D068460093FFF784FDDDE9A7
:103D00000012D0B1C0F1200302FA03F30B43C2400A
:103D100063610192019BA361002B0CBF012202226F
:103D20002261A5B1A5F2334505443D60C0F13500DF
:103D30003060204603B0BDE8F0836161EAE701A886
:103D4000FFF761FD019B636120300122E8E704EB8E
:103D50008203A0F2324038601869FFF735FDC0EBEE
:103D60004210E5E7D8450008E9450008B1F90C2004
:103D70002DE9F041160705460C4654D44B68002B3C
:103D800002DC0B6C002B48DDE66A002E45D00023D8
:103D900012F480522F68216A2B6030D0626DA389A3
:103DA000590705D56368D21A636B0BB1236CD21A1D
:103DB0000023E66A216A2846B047431CA38906D13E
:103DC00029681D292BD82A4ACA40D60727D50022A0
:103DD0006260D9042269226004D5421C01D12B689B
:103DE00003B96065616B2F60B9B104F14403994276
:103DF00002D02846FFF740FB002363630DE0012358
:103E00002846B0470246501CC9D12B68002BC6D0AB
:103E10001D2B01D0162B1ED12F60002022E043F075
:103E200040031BB21BE00F69002FF6D093070E680A
:103E300008BF4B690F6018BF0023A6EB07088B6013
:103E4000B8F1000FE9DD216AA66A43463A462846E2
:103E5000B047002808DCB4F90C3043F04003A381DC
:103E60004FF0FF30BDE8F0810744A8EB0008E7E71A
:103E70000100402038B50B6905460C4613B90025F2
:103E8000284638BD18B1036A0BB9FEF7A1FBB4F997
:103E90000C30002BF3D0626ED00704D4990502D405
:103EA000A06DFEF78CFC28462146FFF75FFF636E8E
:103EB000DA070546E4D4A3899B05E1D4A06DFEF79B
:103EC0007FFCDDE738B5064D0023044608462B602D
:103ED000FDF7D8F8431C02D12B6803B1236038BD2D
:103EE000280400200A44914200F1FF3300D17047BA
:103EF00010B511F8014B03F8014F9142F9D110BDF3
:103F00001FB514461A46094B1B680546D8684CB1C4
:103F1000074B0091CDE9013406492B4600F042F8E9
:103F200000F052F8044B1C46F3E700BF0C000020E1
:103F30004C460008594600088746000870B5A1FBAA
:103F4000025434B92946FFF70BFB064628B9304620
:103F500070BD0C2202600026F9E72A462146FEF7D2
:103F6000B0FBF4E782B001B901A942B14BB11378BB
:103F70000B601278101E18BF012002B07047104667
:103F8000FBE76FF00100F8E70346084641B1FF2A5E
:103F900004D98A221A604FF0FF3070470A7001205E
:103FA000704700000EB403B5014603AB054853F853
:103FB000042B0068019300F037F802B05DF804EBC1
:103FC00003B070470C00002008B5062000F000FA8E
:103FD0000120FCF7DFFF9368013B002B10B49360D6
:103FE00008DA9469A34201DB0A2903D15DF8044B86
:103FF00000F032B91368581C1060197008465DF85B
:10400000044B7047F8B506460F461446D518AC4227
:1040100001D1002007E014F8011B3A463046FFF7B3
:10402000DAFF431CF3D1F8BD2DE9F04F0D469DB0EA
:1040300014469846064618B1036A0BB9FEF7C8FA4B
:104040006B6ED90705D4AB899A0502D4A86DFEF72B
:10405000B6FBAB891B0701D52B699BB929463046B6
:1040600000F038F970B16B6EDC0704D54FF0FF300B
:104070001DB0BDE8F08FAB899805F7D4A86DFEF7A9
:104080009FFBF3E70023099320238DF82930CDF817
:104090000C803023DFF8AC818DF82A304FF0010915
:1040A00023469A4613F8012B0AB1252AF9D1BAEB17
:1040B000040B0BD05B46224629463046FFF7A2FF91
:1040C000013000F0A780099A5A4409929AF800300A
:1040D000002B00F09F8000234FF0FF32CDE9052335
:1040E0000AF1010A049307938DF853301A9354464A
:1040F000052214F8011B5348FCF772F8049AD8B94A
:10410000D10644BF20238DF85330130744BF2B231F
:104110008DF853309AF800302A2B15D0079A544660
:1041200000204FF00A0C214611F8013B303B092BCF
:104130004BD9B0B1079214E0A0EB080309FA03F3DE
:1041400013430493A246D2E7039B191D1B680391F6
:10415000002BBBBF5B4242F0020207930793B8BF3C
:10416000049223782E2B0AD163782A2B32D1039B19
:104170001A1D1B68039243EAE37302340593DFF8C8
:10418000D4A0217803225046FCF72AF838B1049BCA
:10419000A0EB0A004022824013430134049314F838
:1041A000011B29488DF828100622FCF719F8002871
:1041B0003FD0264B1BBB039B073323F00703083379
:1041C0000393099B3B4409936AE70CFB02320C46BC
:1041D0000120A8E700230134059319464FF00A0C8B
:1041E000204610F8012B303A092A03D9002BC6D0FB
:1041F0000591C4E70CFB012104460123F0E703AB62
:1042000000932A46124B04A93046FDF79FFD07464E
:10421000781CD6D16B6ED90705D4AB899A0502D428
:10422000A86DFEF7CDFAAB895B063FF51FAF099885
:104230001EE703AB00932A46054B04A93046FEF760
:104240001DF8E4E788460008924600084D1D000866
:10425000054000088E460008F8B50E46144605468F
:1042600018B1036A0BB9FEF7B3F9A369A360A38978
:104270001A0701D5236943B92146284600F02AF8D8
:1042800018B14FF0FF373846F8BD23682269981AF5
:104290006369F6B28342374605DC21462846FFF7BC
:1042A000E9FD0028EDD1A368013BA36023685A1CF7
:1042B00022601E706269431C9A4204D0A389DB0706
:1042C000E1D50A2EDFD121462846FFF7D3FD00288D
:1042D000D9D0D6E738B5294B054618680C4618B131
:1042E000036A0BB9FEF774F9B4F90C30190722D43C
:1042F000DA0607D409222A6043F04003A3814FF075
:10430000FF3033E0580712D5616B41B104F144032B
:10431000994202D02846FFF7AFF800236363A389D0
:1043200023F02403A3810023636023692360A3890E
:1043300043F00803A38123694BB9A38903F42073D5
:10434000B3F5007F03D02146284600F083F8B4F986
:104350000C3013F001020AD00022A26062695242BE
:10436000A261226942B913F08000C5D138BD990716
:1043700058BF6269A260F4E70020F7E70C00002054
:104380001F2938B505460C4604D9162303604FF0A3
:10439000FF3038BDC26B12B152F821304BB92846FC
:1043A00000F030F8224601462846BDE8384000F0CB
:1043B00017B8012B0AD0591C03D116230360012022
:1043C000E7E7002142F82410204698470020E0E764
:1043D000024B01461868FFF7D3BF00BF0C00002056
:1043E00038B5074D00230446084611462B60FCF7FC
:1043F000C1FD431C02D12B6803B1236038BD00BF4F
:1044000028040020FCF7AEBD70B50C46B1F90E10C3
:10441000002996B015461E460DDAA38913F0800FC9
:104420004FF0000114BF40234FF48063002031603F
:104430002B6016B070BD6A4600F048F80028ECDB2F
:10444000019901F47041A1F50053594259414FF4CB
:104450008063EBE78B89F7B59D0706460C4607D5C9
:1044600004F14703236023610123636103B0F0BDBE
:1044700001AB6A46FFF7C8FF009F05463946304644
:10448000FFF76EF848B9B4F90C309A05EED423F072
:10449000030343F00203A381E2E7A389206043F012
:1044A0008003A381019BC4E904075BB1B4F90E103A
:1044B000304600F01DF828B1A38923F0030343F030
:1044C0000103A381A3891D43A581CFE738B5074D1B
:1044D00000230446084611462B60FCF7ABFD431C45
:1044E00002D12B6803B1236038BD00BF280400202F
:1044F00038B5064D0023044608462B60FCF7AAFD9C
:10450000431C02D12B6803B1236038BD280400206E
:10451000F8B500BFF8BC08BC9E467047F8B500BFB0
:08452000F8BC08BC9E46704780
:10452800494E4600696E66004E414E006E616E004F
:10453800300030313233343536373839414243442C
:1045480045460030313233343536373839616263A5
:1045580064656600496E66696E697479004E614EDD
:10456800005245454E54206D616C6C6F6320737525
:1045780063636565646564002F6275696C642F67A1
:104588006E752D746F6F6C732D666F722D73746DED
:1045980033325F31332E332E72656C312E32303226
:1045A80034303932362D313731352F7372632F6EEF
:1045B80065776C69622F6E65776C69622F6C6962CA
:1045C800632F7374646C69622F64746F612E630067
:1045D80042616C6C6F6320737563636565646564C1
:1045E800002F6275696C642F676E752D746F6F6C20
:1045F800732D666F722D73746D33325F31332E33C2
:104608002E72656C312E32303234303932362D31DB
:104618003731352F7372632F6E65776C69622F6E31
:1046280065776C69622F6C6962632F7374646C6957
:10463800622F6D707265632E63004300504F5349BB
:1046480058002E002C2066756E6374696F6E3A20D0
:1046580000617373657274696F6E2022257322205E
:104668006661696C65643A2066696C652022257309
:10467800222C206C696E65202564257325730A0039
:10468800232D302B2000686C4C0065666745464733
:104698000000000005000000190000007D00000077
:1046A8000080E03779C34143176E05B5B5B8934626
:1046B800F5F93FE9034F384D321D30F94877825AF2
:1046C8003CBF737FDD4F1575000000000000F03F10
:1046D80000000000000024400000000000005940D5
:1046E8000000000000408F40000000000088C34028
:1046F80000000000006AF8400000000080842E419D
:1047080000000000D01263410000000084D79741E8
:104718000000000065CDCD41000000205FA00242EE
:10472800000000E876483742000000A2941A6D4263
:10473800000040E59C30A2420000901EC4BCD64256
:1047480000003426F56B0C430080E03779C3414301
:1047580000A0D8855734764300C84E676DC1AB4377
:10476800003D9160E458E143408CB5781DAF154495
:1047780050EFE2D6E41A4B4492D54D06CFF0804470
:10478800F64AE1C7022DB544B49DD9794378EA4485
:104798000020202020202020202028282828282009
:1047A8002020202020202020202020202020202001
:1047B8002088101010101010101010101010101069
:1047C8001004040404040404040404101010101059
:1047D8001010414141414141010101010101010123
:1047E8000101010101010101010101011010101075
:1047F80010104242424242420202020202020202F5
:104808000202020202020202020202021010101048
:104818002000000000000000000000000000000070
:104828000000000000000000000000000000000080
:104838000000000000000000000000000000000070
:104848000000000000000000000000000000000060
:104858000000000000000000000000000000000050
:104868000000000000000000000000000000000040
:104878000000000000000000000000000000000030
:104888000000000000000000000000000000000020
:04489800000000001C
:08489C0044B9FF7F0100000098
:0448A400C501000842
:0448A800A101000862
:1048AC000000000003000000EC02002010000020BB
:1048BC0000000000EC02002054030020BC03002088
:1048CC0000000000000000000000000000000000DC
:1048DC0000000000000000000000000000000000CC
:1048EC0000000000000000000000000000000000BC
:1048FC000000000000000000000000004300000069
:10490C00000000000000000000000000000000009B
:10491C000000000000000000000000004300000048
:10492C00000000000000000000000000000000007B
:10493C000000000000000000000000004300000028
:10494C00000000000000000000000000000000005B
:10495C000000000000000000000000004300000008
:10496C00000000000000000000000000000000003B
:10497C0000000000000000000000000043000000E8
:10498C00000000000000000000000000000000001B
:10499C0000000000000000000000000043000000C8
:1049AC0000000000000000000000000000000000FB
:1049BC0000000000000000000000000043000000A8
:1049CC0000000000000000000000000000000000DB
:1049DC00000000000000000000000000893F0008FB
:1049EC00653F000800000000984700084A46000890
:1049FC008746000887460008874600088746000857
:104A0C008746000887460008874600088746000846
:104A1C0087460008FFFFFFFFFFFFFFFFFFFFFFFFC1
:104A2C00FFFF000001004153434949000000000012
:104A3C00000000000000000000000000000000006A
:104A4C0000000000000041534349490000000000F1
:104A5C00000000000000000000000000000000004A
:084A6C00000000000000000042
:04000005080010F1EE
:00000001FF
