:020000040800F2
:1000000000000120990F0008E90F0008E90F00081F
:10001000E90F0008E90F0008E90F000800000000E0
:10002000000000000000000000000000E90F0008D0
:10003000E90F000800000000E90F0008951D000806
:1000400000000000E90F0008E90F0008E90F0008B0
:10005000E90F0008E90F0008F5130008191400085B
:100060003D1400086114000885140008E90F000819
:10007000E90F0008E90F0008E90F0008E90F000880
:10008000E90F0008E90F0008E90F00080000000070
:10009000000000000000000000000000A91400089B
:1000A000E90F0008E90F0008E90F0008E90F000850
:1000B000C11D00081D1E0008691E00082516000845
:1000C000151600081F17000811170008411800082E
:1000D0009D180008011F0008E90F0008000000003B
:1000E00051150008E90F0008E90F000800000000A2
:1000F000000000000000000000000000E90F000800
:1001000000000000E90F0008B51E0008F9180008FB
:1001100000000000000000000000000000000000DF
:10012000E90F0008E90F0008E90F0008E90F0008CF
:10013000E90F0008000000000000000000000000BF
:10014000000000000000000000000000E90F0008AF
:10015000E90F0008E90F0008E90F0008E90F00089F
:10016000E90F0008E90F000800000000000000008F
:10017000000000000000000000000000000000007F
:10018000000000000000000000000000000000006F
:04019000E90F00086B
:1001A00010B5054C237833B9044B13B10448AFF3B1
:1001B00000800123237010BDCC010020000000004E
:1001C000D04A000808B5034B1BB103490348AFF3FD
:1001D000008008BD00000000D0010020D04A0008C7
:1001E00001F0FF01102A2BDB10F0070F08D010F8E8
:1001F000013B013A8B422DD010F0070F42B3F6D1EC
:10020000F0B441EA012141EA014122F007047FF004
:1002100000070023F0E80256083C85EA010586EA5B
:10022000010685FA47F5A3FA87F586FA47F6A5FA97
:1002300087F68EB9EED1F0BC01F0FF0102F00702A3
:1002400032B110F8013B013A83EA010313B1F8D14E
:100250000020704701387047002D06BF354603382F
:10026000073815F0010F07D1013015F4807F02BF68
:10027000013015F4C03F0130F0BC0138704700BFB9
:10028000034613F8012B002AFBD1181A01387047D6
:1002900081F0004102E000BF83F0004330B54FEA37
:1002A00041044FEA430594EA050F08BF90EA020FA4
:1002B0001FBF54EA000C55EA020C7FEA645C7FEA37
:1002C000655C00F0E2804FEA5454D4EB5555B8BF5A
:1002D0006D420CDD2C4480EA020281EA030382EACB
:1002E000000083EA010180EA020281EA0303362D5D
:1002F00088BF30BD11F0004F4FEA01314FF4801C30
:100300004CEA113102D0404261EB410113F0004F41
:100310004FEA03334CEA133302D0524263EB4303F8
:1003200094EA050F00F0A780A4F10104D5F1200E96
:100330000DDB02FA0EFC22FA05F2801841F10001F1
:1003400003FA0EF2801843FA05F359410EE0A5F1C5
:1003500020050EF1200E012A03FA0EFC28BF4CF0F6
:10036000020C43FA05F3C01851EBE37101F00045AC
:1003700007D54FF0000EDCF1000C7EEB00006EEBB9
:100380000101B1F5801F1BD3B1F5001F0CD3490843
:100390005FEA30004FEA3C0C04F101044FEA44529A
:1003A00012F5800F80F09A80BCF1004F08BF5FEA21
:1003B000500C50F1000041EB045141EA050130BD01
:1003C0005FEA4C0C404141EB0101013C28BFB1F513
:1003D000801FE9D291F0000F04BF01460020B1FA5E
:1003E00081F308BF2033A3F10B03B3F120020CDA31
:1003F0000C3208DD02F1140CC2F10C0201FA0CF00F
:1004000021FA02F10CE002F11402D8BFC2F1200C73
:1004100001FA02F120FA0CFCDCBF41EA0C01904029
:10042000E41AA2BF01EB0451294330BD6FEA040472
:100430001F3C1CDA0C340EDC04F11404C4F120025D
:1004400020FA04F001FA02F340EA030021FA04F36F
:1004500045EA030130BDC4F10C04C4F1200220FAC6
:1004600002F001FA04F340EA0300294630BD21FA04
:1004700004F0294630BD94F0000F83F4801306BFCA
:1004800081F480110134013D4EE77FEA645C18BFBE
:100490007FEA655C29D094EA050F08BF90EA020F55
:1004A00005D054EA000C04BF1946104630BD91EA4D
:1004B000030F1EBF0021002030BD5FEA545C05D150
:1004C0004000494128BF41F0004130BD14F580048F
:1004D0003CBF01F5801130BD01F0004545F0FE4103
:1004E00041F470014FF0000030BD7FEA645C1ABF38
:1004F000194610467FEA655C1CBF0B46024650EA6F
:10050000013406BF52EA033591EA030F41F400219A
:1005100030BD00BF90F0000F04BF0021704730B520
:100520004FF4806404F132044FF000054FF00001F5
:1005300050E700BF90F0000F04BF0021704730B5B6
:100540004FF4806404F1320410F0004548BF40428B
:100550004FF000013EE700BF42004FEAE2014FEAE0
:1005600031014FEA02701FBF12F07F4393F07F4FBB
:1005700081F06051704732F07F4208BF704793F0BE
:100580007F4F04BF41F40021704730B54FF46074D1
:1005900001F0004521F000411CE700BF50EA0102D4
:1005A00008BF704730B54FF000050AE050EA01027D
:1005B00008BF704730B511F0004502D5404261EBED
:1005C00041014FF4806404F132045FEA915C3FF42E
:1005D000D8AE4FF003025FEADC0C18BF03325FEACB
:1005E000DC0C18BF033202EBDC02C2F1200300FA7C
:1005F00003FC20FA02F001FA03FE40EA0E0021FAA1
:1006000002F11444BDE600BF70B54FF0FF0C4CF48E
:10061000E06C1CEA11541DBF1CEA135594EA0C0F40
:1006200095EA0C0F00F0DEF82C4481EA030621EA7B
:100630004C5123EA4C5350EA013518BF52EA0335B6
:1006400041F4801143F4801338D0A0FB02CE4FF068
:100650000005E1FB02E506F00042E0FB03E54FF098
:100660000006E1FB03569CF0000F18BF4EF0010E90
:10067000A4F1FF04B6F5007F64F5407404D25FEA8C
:100680004E0E6D4146EB060642EAC62141EA55513F
:100690004FEAC52040EA5E504FEACE2EB4F1FD0C81
:1006A00088BFBCF5E06F1ED8BEF1004F08BF5FEAFF
:1006B000500E50F1000041EB045170BD06F00046B1
:1006C00046EA010140EA020081EA0301B4EB5C045E
:1006D000C2BFD4EB0C0541EA045170BD41F4801156
:1006E0004FF0000E013C00F3AB8014F1360FDEBF7B
:1006F000002001F0004170BDC4F10004203C35DA57
:100700000C341BDC04F11404C4F1200500FA05F3D9
:1007100020FA04F001FA05F240EA020001F000427A
:1007200021F0004110EBD37021FA04F642EB0601F0
:100730005EEA430E08BF20EAD37070BDC4F10C041A
:10074000C4F1200500FA04F320FA05F001FA04F2DE
:1007500040EA020001F0004110EBD37041F10001CA
:100760005EEA430E08BF20EAD37070BDC4F12005D5
:1007700000FA05F24EEA020E20FA04F301FA05F23D
:1007800043EA020321FA04F001F0004121FA04F2E5
:1007900020EA020000EBD3705EEA430E08BF20EAB5
:1007A000D37070BD94F0000F0FD101F000464000EF
:1007B00041EB010111F4801F08BF013CF7D041EA71
:1007C000060195F0000F18BF704703F00046520075
:1007D00043EB030313F4801F08BF013DF7D043EA46
:1007E0000603704794EA0C0F0CEA135518BF95EAFC
:1007F0000C0F0CD050EA410618BF52EA4306D1D183
:1008000081EA030101F000414FF0000070BD50EAA1
:10081000410606BF1046194652EA430619D094EA2B
:100820000C0F02D150EA013613D195EA0C0F05D115
:1008300052EA03361CBF104619460AD181EA030169
:1008400001F0004141F0FE4141F470014FF0000021
:1008500070BD41F0FE4141F4780170BD70B54FF0BC
:10086000FF0C4CF4E06C1CEA11541DBF1CEA13553C
:1008700094EA0C0F95EA0C0F00F0A7F8A4EB05041E
:1008800081EA030E52EA03354FEA013100F0888015
:100890004FEA03334FF0805545EA131343EA1263DE
:1008A0004FEA022245EA111545EA10654FEA002693
:1008B0000EF000419D4208BF964244F1FD0404F54C
:1008C000407402D25B084FEA3202B61A65EB0305A8
:1008D0005B084FEA32024FF480104FF4002CB6EB65
:1008E000020E75EB030E22BFB61A754640EA0C00E5
:1008F0005B084FEA3202B6EB020E75EB030E22BF25
:10090000B61A754640EA5C005B084FEA3202B6EB65
:10091000020E75EB030E22BFB61A754640EA9C0024
:100920005B084FEA3202B6EB020E75EB030E22BFF4
:10093000B61A754640EADC0055EA060E18D04FEAB2
:10094000051545EA16754FEA06164FEAC30343EA52
:1009500052734FEAC2025FEA1C1CC0D111F4801F1F
:100960000BD141EA00014FF000004FF0004CB6E718
:1009700011F4801F04BF01430020B4F1FD0C88BFB7
:10098000BCF5E06F3FF6AFAEB5EB030C04BFB6EBC2
:10099000020C5FEA500C50F1000041EB045170BDB5
:1009A0000EF0004E4EEA113114EB5C04C2BFD4EBE2
:1009B0000C0541EA045170BD41F480114FF0000E66
:1009C000013C90E645EA060E8DE60CEA135594EAE2
:1009D0000C0F08BF95EA0C0F3FF43BAF94EA0C0FE5
:1009E0000AD150EA01347FF434AF95EA0C0F7FF45A
:1009F00025AF104619462CE795EA0C0F06D152EAAE
:100A000003353FF4FDAE1046194622E750EA410691
:100A100018BF52EA43067FF4C5AE50EA41047FF4A2
:100A20000DAF52EA43057FF4EBAE12E74FF0FF3C07
:100A300006E000BF4FF0010C02E000BF4FF0010CD8
:100A40004DF804CD4FEA410C7FEA6C5C4FEA430C51
:100A500018BF7FEA6C5C1BD001B050EA410C0CBFA0
:100A600052EA430C91EA030F02BF90EA020F002002
:100A7000704710F1000F91EA030F58BF994208BF69
:100A800090422CBFD8176FEAE37040F00100704726
:100A90004FEA410C7FEA6C5C02D150EA013C07D17D
:100AA0004FEA430C7FEA6C5CD6D152EA033CD3D0C8
:100AB0005DF8040B704700BF8446104662468C46C2
:100AC0001946634600E000BF01B5FFF7B7FF0028F5
:100AD00048BF10F1000F01BD4DF808EDFFF7F4FF1E
:100AE0000CBF012000205DF808FB00BF4DF808EDA9
:100AF000FFF7EAFF34BF012000205DF808FB00BFCC
:100B00004DF808EDFFF7E0FF94BF012000205DF8ED
:100B100008FB00BF4DF808EDFFF7CEFF94BF0120A2
:100B200000205DF808FB00BF4DF808EDFFF7C4FF9B
:100B300034BF012000205DF808FB00BF4FEA410CE4
:100B40007FEA6C5C02D150EA013C0AD14FEA430CC7
:100B50007FEA6C5C02D152EA033C02D14FF0000004
:100B600070474FF0010070474FEA410212F5001242
:100B700015D211D56FF47873B3EB625212D94FEAE4
:100B8000C12343F0004343EA505311F0004F23FACE
:100B900002F018BF404270474FF00000704750EA23
:100BA000013005D111F0004008BF6FF000407047E0
:100BB0004FF00000704700BF4A0011D212F500123A
:100BC00011D20DD56FF47873B3EB62520ED44FEAA5
:100BD000C12343F0004343EA505323FA02F0704725
:100BE0004FF00000704750EA013002D14FF0FF3063
:100BF00070474FF00000704780B485B000AF786058
:100C00000023FB600CE00023BB6002E0BB68013303
:100C1000BB60BB68B3F5FA6FF8D3FB680133FB60C8
:100C2000FA687B689A42EED300BF00BF1437BD4616
:100C30005DF8047B70470000B0B598B000AF6E4B14
:100C40001B6B6D4A43F0010313636B4B5B6C6A4A89
:100C500043F4805353640023A7F84C300123A7F8D2
:100C60004E300023A7F854300023A7F85830002353
:100C7000A7F8563007F14C031946604801F06EF9A9
:100C8000002200215D4801F068FA0423BB8600239E
:100C9000FB8600237B8700233B871023A7F8423085
:100CA0000023FB870023BB874FF44073A7F8403035
:100CB0000023A7F844300023BB6407F1340319462E
:100CC0004F4800F0C2FA4F4A07F12C0392E80300A4
:100CD000186004331980202387F82B304C2387F8C1
:100CE0002A30002387F8293007F129010023012247
:100CF000062000F07AFA002387F8283007F128014F
:100D000000230122002000F041FA97F8283043F038
:100D10000403DBB287F8283007F128010023012201
:100D2000002000F062FA07F12C01002305221020B8
:100D300000F05BFA07F12C01002305220A2000F0E5
:100D400054FA07F12B0100230122112000F04DFA83
:100D500007F12A0100230122052000F046FA0123B1
:100D600087F8273007F1270100230122022000F035
:100D70003CFA07F1270100230122012000F035FA97
:100D8000214B3C1D1D460FCD0FC495E80F0007C435
:100D9000238000237B840021002000F069FA97F86B
:100DA0002B103B1D0022184600F0AAFA034687F8D4
:100DB0005F3097F85F30012B18D100210F4801F008
:100DC000F1F93220FFF718FF00210C4801F0EAF991
:100DD0003220FFF711FF0021084801F0E3F932202B
:100DE000FFF70AFF0021054801F0DCF94FF47A70A3
:100DF000FFF702FFD3E700BF0038024000000240C7
:100E000000300140E84A0008F04A000880B400AF12
:100E100001231846BD465DF8047B704780B582B05B
:100E200000AF7860396001F07FFF034616221A6038
:100E30004FF0FF3318460837BD4680BD80B582B0FD
:100E400000AF78604FF0FF317868FFF7E7FF00BF31
:100E5000FDE780B586B000AFF860B9607A60002326
:100E60007B610AE0AFF300800146BB685A1CBA60A0
:100E7000CAB21A707B6901337B617A697B689A42D6
:100E8000F0DB7B6818461837BD4680BD80B586B05C
:100E900000AFF860B9607A6000237B6109E0BB684D
:100EA0005A1CBA601B781846AFF300807B69013387
:100EB0007B617A697B689A42F1DB7B681846183758
:100EC000BD4680BD80B483B000AF78604FF0FF3383
:100ED00018460C37BD465DF8047B704780B483B07C
:100EE00000AF786039603B684FF400525A600023CD
:100EF00018460C37BD465DF8047B704780B483B05C
:100F000000AF7860012318460C37BD465DF8047BBE
:100F1000704780B485B000AFF860B9607A60002394
:100F200018461437BD465DF8047B704780B586B01F
:100F300000AF7860144A154BD31A7B617B693B6123
:100F4000134B1B68002B02D1114B124A1A60104B35
:100F50001A687B6813443A699A4207D201F0E4FEAA
:100F600003460C221A604FF0FF3309E0084B1B6860
:100F7000FB60074B1A687B681344054A1360FB68E3
:100F800018461837BD4680BD00000120000400004F
:100F9000E8010020180400200D488546AFF30080CA
:100FA0000C480D490D4A002302E0D458C4500433C4
:100FB000C4188C42F9D30A4A0A4C002301E013609A
:100FC0000432A242FBD301F0B5FEFFF735FEFEE787
:100FD0000000012000000020CC010020944E0008F9
:100FE000CC01002018040020FEE7000080B500AF0F
:100FF00000220421024801F0B0F800BF80BD00BF0C
:101000000000024080B500AF01220421024801F037
:10101000A4F800BF80BD00BF0000024080B500AF53
:1010200001220321024801F098F800BF80BD00BFF3
:101030000000024080B500AF00220321024801F009
:101040008CF800BF80BD00BF0000024080B584B0B6
:1010500000AF0346FB71FB79FB7307F10F0300211F
:10106000184600F04FFDFB7B18461037BD4680BD8B
:1010700080B584B000AF04233B8001237B80002334
:101080003B810223BB8101237B813B4619460D48EE
:1010900000F064FF03233B8001237B8000233B811E
:1010A0000223BB8100237B813B461946054800F0A3
:1010B00055FFFFF7BFFFFFF7A5FF00BF1037BD4685
:1010C00080BD00BF0000024080B582B000AF034683
:1010D000FB71FFF78BFFFB791846FFF7B7FFFFF7B0
:1010E00091FF00BF0837BD4680BD80B582B000AF1C
:1010F000FFF7A0FFFFF786FF0823FB71F91D002310
:101100000122002000F071F83F23FB71F91D00233C
:101110000122012000F069F80023FB71F91D002372
:101120000122022000F061F80323FB71F91D002366
:101130000122032000F059F80223FB71F91D00235E
:101140000122052000F051F80E23FB71F91D002348
:101150000122062000F049F80E23FB71F91D00233F
:101160000122072000F041F87023FB71F91D0023D4
:101170000122072000F039F8E120FFF7A5FFE22067
:10118000FFF7A2FF00BF0837BD4680BD90B585B010
:1011900000AF396011461A460346FB710B46BB711E
:1011A00013467B71FB79BB73FFF720FFBB7B1846AF
:1011B000FFF74CFF0023FB730AE0FB7B3A68D4186F
:1011C000FF20FFF743FF03462370FB7B0133FB73D4
:1011D000FA7BBB799A42F0D37B79002B01D1FFF7E0
:1011E00011FF00BF1437BD4690BD80B584B000AF7D
:1011F000396011461A460346FB710B46BB71134614
:101200007B71FB7943F02003BB73FFF7EFFEBB7BE1
:101210001846FFF71BFF0023FB7309E0FB7B3A68CE
:1012200013441B781846FFF711FFFB7B0133FB7358
:10123000FA7BBB799A42F1D37B79002B01D1FFF77E
:10124000E1FE00BF1037BD4680BD80B582B000AF63
:10125000786039603968786800F07CFBFFF708FF38
:10126000962000F061FD00BF0837BD4680BD00003C
:1012700080B584B000AF03460A46FB711346BB71CC
:10128000BB79012B01D1FFF730FF022000F04CFDAC
:1012900007F10F01002301220020FFF777FFFB7BFE
:1012A00043F00203DBB2FB73FB79002B0AD1FB7B1B
:1012B00023F00103DBB2FB73104B03221A70FFF71C
:1012C000B9FE09E0FB7B43F00103DBB2FB730B4B80
:1012D00004221A70FFF7A2FE07F10F01002301227A
:1012E0000020FFF782FF054AFB791370022000F00F
:1012F0001BFD00BF1037BD4680BD00BF00000020B1
:1013000080B584B000AF78600B46FB701346BB70AD
:10131000374B1B78002B01D0002364E007F10D014F
:10132000002301220720FFF731FF7B7B03F001033D
:10133000002B01D0002356E0BB78012B02D15823AB
:10134000FB7301E0A023FB73FFF750FEFB7B184605
:10135000FFF77CFE0023BB7309E0BB7B7A68134474
:101360001B781846FFF772FEBB7B0133BB73BA7B59
:10137000FB789A42F1D3FFF745FEFFF74FFE0120BD
:1013800000F0D2FCFFF756FE07F10D010023012209
:101390000720FFF7FBFE7B7B03F02003002B0DD023
:1013A0007B7B43F02003DBB27B7307F10D0100234D
:1013B00001220720FFF719FF012314E07B7B03F0D4
:1013C0001003002BE0D07B7B43F01003DBB27B7378
:1013D00007F10D01002301220720FFF706FFE1209E
:1013E000FFF772FEFF2318461037BD4680BD00BFD1
:1013F0000000002080B500AF054B5B69044A43F054
:1014000001035361034B1B68984700BF80BD00BFB9
:10141000003C0140EC01002080B500AF054B5B694A
:10142000044A43F002035361034B5B68984700BFD3
:1014300080BD00BF003C0140EC01002080B500AF42
:10144000054B5B69044A43F004035361034B9B68FB
:10145000984700BF80BD00BF003C0140EC01002068
:1014600080B500AF054B5B69044A43F00803536144
:10147000034BDB68984700BF80BD00BF003C0140C4
:10148000EC01002080B500AF054B5B69044A43F0D6
:1014900010035361034B1B69984700BF80BD00BF19
:1014A000003C0140EC01002080B500AF264B5B6999
:1014B00003F02003002B08D0234B5B69224A43F042
:1014C00020035361214B5B6998471F4B5B6903F015
:1014D0004003002B08D01C4B5B691B4A43F04003C0
:1014E00053611A4B9B699847174B5B6903F0800364
:1014F000002B08D0144B5B69134A43F080035361FF
:10150000124BDB699847104B5B6903F48073002B27
:1015100008D00D4B5B690C4A43F4807353610B4B4D
:101520001B6A9847084B5B6903F40073002B08D0D3
:10153000054B5B69044A43F400735361034B5B6AD8
:10154000984700BF80BD00BF003C0140EC01002077
:1015500080B500AF2D4B5B6903F48063002B08D08E
:101560002A4B5B69294A43F480635361284B9B6A89
:101570009847264B5B6903F40063002B08D0234B8C
:101580005B69224A43F400635361214BDB6A98474D
:101590001E4B5B6903F48053002B08D01B4B5B6927
:1015A0001A4A43F480535361194B1B6B9847174BEE
:1015B0005B6903F40053002B08D0144B5B69134A9A
:1015C00043F400535361124B5B6B98470F4B5B69BD
:1015D00003F48043002B08D00C4B5B690B4A43F4A7
:1015E000804353610A4B9B6B9847084B5B6903F43C
:1015F0000043002B08D0054B5B69044A43F40043C9
:101600005361034BDB6B984700BF80BD003C01403A
:10161000EC01002080B400AF00BFBD465DF8047B44
:101620007047000080B586B000AF00237B60374B69
:101630007B617B695B6803F400733B617B695B687A
:1016400003F48063FB607B695B6903F01003BB609C
:101650003B69002B0AD0BB68002B07D07B691A6856
:101660007B691A600021786900F060F87B695B692A
:1016700003F00203BB603B69002B12D0BB68002B58
:101680000FD07B699B6903F00103002B09D17B69B3
:101690005B697B607B699B697B600121786900F0F5
:1016A00045F87B695B6903F08003BB603B69002BF5
:1016B0000FD0FB68002B0CD0BB68002B09D07B69D6
:1016C0009B6903F00103002B03D10421786900F02A
:1016D0002DF87B695B6903F04003BB603B69002B1D
:1016E0000FD0FB68002B0CD0BB68002B09D07B69A6
:1016F0009B6903F00103002B03D10321786900F0FB
:1017000015F800BF1837BD4680BD00BF005400402B
:1017100080B400AF00BFBD465DF8047B704780B465
:1017200000AF00BFBD465DF8047B704780B584B054
:1017300000AF78600B46FB700023FB737B683C4A6C
:10174000934202D10023FB730CE07B68394A934239
:1017500002D10123FB7305E07B68374A934201D134
:101760000223FB73FB78052B5DD801A252F823F00E
:1017700095170008B917000827180008F517000882
:10178000D1170008891700087B689B6903F00403E0
:10179000002B41D17B689B6903F00403002B3DD0F3
:1017A000FA7B264913469B001344DB000B44243389
:1017B0001B680020984731E0FA7B204913469B00C4
:1017C0001344DB000B4424331B68012098472AE0B4
:1017D0007B689B6903F00403002B21D0FA7B174937
:1017E00013469B001344DB000B4424331B68042086
:1017F000984715E07B689B6903F00403002B11D127
:10180000FA7B0E4913469B001344DB000B44243340
:101810001B680320984705E000BF04E000BF02E01A
:1018200000BF00E000BF00BF1037BD4680BD00BF55
:101830000054004000580040005C00402C02002092
:1018400080B582B000AF134B9B685B0803F00103C7
:10185000DAB23B7962F300033B710E4B9B6803F0F5
:101860000103DAB23B7962F341033B71094B9B6898
:101870001B0903F00103DAB23B7962F382033B7187
:10188000054B1B685B693879984700BF0837BD4630
:1018900080BD00BF00300140A402002080B582B0AE
:1018A00000AF134B9B685B0803F00103DAB23B798E
:1018B00062F300033B710E4B9B6803F00103DAB245
:1018C0003B7962F341033B71094B9B681B0903F0B1
:1018D0000103DAB23B7962F382033B71054B5B682B
:1018E0005B693879984700BF0837BD4680BD00BFA7
:1018F00000380040A402002080B582B000AF134B36
:101900009B685B0803F00103DAB23B7962F30003E2
:101910003B710E4B9B6803F00103DAB23B7962F333
:1019200041033B71094B9B681B0903F00103DAB2C9
:101930003B7962F382033B71054B9B685B693879A5
:10194000984700BF0837BD4680BD00BF003C00403F
:10195000A402002080B584B000AF78603960614A8D
:101960007B6813600023FB810023BB817B685E4A98
:1019700093420FD15D4A3B6813605D4B5B6C5C4AE0
:1019800043F480535364584800F0ECF8594B00225C
:101990001A7026E07B68584A93420FD1534A3B683D
:1019A0005360534B5B6C524A43F480535364524828
:1019B00000F0D8F84F4B01221A7012E07B684F4AB2
:1019C00093420ED1494A3B689360494B1B6C484A8D
:1019D00043F400431364494800F0C4F8454B022225
:1019E0001A707B6800221A607B6800225A603B688C
:1019F0001A88FB891343FB813B685A88FB89134390
:101A0000FB813B689A88FB891343FB813B68DA883A
:101A1000FB891343FB813B681A89FB891343FB81D4
:101A20003B685A89FB891343FB813B689B89002BE8
:101A30000AD13B689B891BB2DB431AB2B7F90C3061
:101A400013401BB2BB810EE03B689B89042B05D180
:101A50003B689A89BB891343BB8104E03B689A8940
:101A6000FB891343FB813B68DA89FB891343FB81C4
:101A70003B681B8A002B24D03B681A8ABB8913431E
:101A8000BB817B68184A934206D11D4B1B681C4AD8
:101A900043F00803136014E07B68174A934206D1B1
:101AA000174B1B68164A43F01003136009E07B686C
:101AB000124A934205D1124B1B68114A43F400238A
:101AC0001360FA897B681A60BA897B685A607B6800
:101AD0001B6843F040027B681A6000BF1037BD46A8
:101AE00080BD00BFB402002000300140A4020020ED
:101AF00000380240B002002000380040003C0040A6
:101B000004E100E080B483B000AF78600B46FB7066
:101B1000FB78002B07D100BF114B1B689B6803F0BB
:101B20000203002BF8D07B681A780D4B1B68DA6033
:101B3000FB78002B07D100BF094B1B689B6803F0A3
:101B40000103002BF8D0064B1B68DB68DAB27B6818
:101B50001A7000BF0C37BD465DF8047B704700BFAC
:101B6000B402002080B586B000AF786000233B82CD
:101B70000223BB8200237B827B68504A934230D190
:101B800007233B8102237B810523FB6007F10803C8
:101B900019464B4800F0E2F906233B8102237B8182
:101BA0000523FB6007F108031946454800F0D6F904
:101BB00005233B8102237B810523FB6007F108039A
:101BC00019463F4800F0CAF904233B8102237B8178
:101BD0000523FB6007F108031946394800F0BEF9F8
:101BE00068E07B68374A934230D10E233B81022361
:101BF0007B810523FB6007F108031946324800F09A
:101C0000ADF90D233B8102237B810523FB6007F1A6
:101C1000080319462C4800F0A1F90C233B8102234C
:101C20007B810523FB6007F108031946264800F075
:101C300095F90C233B8102237B810523FB6007F18F
:101C400008031946204800F089F933E07B681F4AF1
:101C500093422FD105233B8102237B810523FB6027
:101C600007F108031946184800F078F904233B816E
:101C700002237B810523FB6007F108031946124804
:101C800000F06CF903233B8102237B810523FB6079
:101C900007F1080319460C4800F060F90E233B8158
:101CA00002237B810523FB6007F1080319460448E2
:101CB00000F054F900BF1837BD4680BD0030014028
:101CC000000002400038004000040240003C004098
:101CD00080B483B000AF7860084A7B685360074BDC
:101CE00000229A60054B1B68044A43F0010313600D
:101CF00000BF0C37BD465DF8047B704710E000E084
:101D000080B400AF064B1B68054A23F00103136043
:101D1000034B00229A6000BFBD465DF8047B70470C
:101D200010E000E00000000080B584B000AF7860F3
:101D30007868FEF7EFFB15A3D3E90023FEF764FCF8
:101D400002460B4610461946FEF736FF0346FB6077
:101D50000D4B00229A60FB68002B10D0FB686FF0DF
:101D60007F4293420BD2F868FFF7B2FF00BF064BE9
:101D70001B6803F48033002BF9D0FFF7C1FF00BFCD
:101D80001037BD4680BD00BF10E000E0000000003D
:101D9000006AA84080B500AF074B1B68002B02D03B
:101DA000054B1B689847054B1B78012B01D1FFF7AA
:101DB000A7FF00BF80BD00BFB8020020BC0200200A
:101DC00080B400AF124B1B681B6903F00103002BAA
:101DD00018D00F4B1B681A690D4B1B6822F00102CB
:101DE0001A610C4B00221A70094B1B681A68084BC9
:101DF0001B6822F001021A60074B1B68064A43F079
:101E00008053136000BFBD465DF8047B704700BF80
:101E1000C0020020C402002080E100E080B400AFD6
:101E20000E4B1B681A690D4B1B6822F001021A61E8
:101E30000B4B00221A700B4B1B680A4A43F00053ED
:101E40001360064B1B681A68044B1B6822F00102E2
:101E50001A6000BFBD465DF8047B7047C0020020D9
:101E6000C402002080E100E080B400AF0E4B1B688C
:101E70001A690D4B1B6822F001021A610B4B0022FC
:101E80001A700B4B1B680A4A43F080431360064BE1
:101E90001B681A68044B1B6822F001021A6000BF1D
:101EA000BD465DF8047B7047C0020020C4020020DC
:101EB00080E100E080B400AF0E4B1B681A690D4B47
:101EC0001B6822F001021A610B4B00221A700B4BA7
:101ED0001B680A4A43F480231360064B1B681A6888
:101EE000044B1B6822F001021A6000BFBD465DF87A
:101EF000047B7047C0020020C402002084E100E09F
:101F000080B582B000AF134B1B68DB0903F00103FF
:101F1000DAB23B7962F300033B710E4B1B685B093D
:101F200003F00103DAB23B7962F341033B71094BE1
:101F30001B689B0903F00103DAB23B7962F3820369
:101F40003B71054B1B68DB683879984700BF083741
:101F5000BD4680BD00100140C802002080B485B09D
:101F600000AF786039603B681B88FB607B681B684A
:101F7000FA685200032101FA02F2D2431A407B6848
:101F80001A607B685B680121FA6801FA02F2D243A9
:101F90001A407B685A607B689B68FA68520003218C
:101FA00001FA02F2D2431A407B689A607B68DB68D0
:101FB000FA685200032101FA02F2D2431A407B6808
:101FC000DA603B685B88032B00F09C80032B00F3F6
:101FD000B080012B02D0022B2ED0AAE07B681B68B8
:101FE000FA685200012101FA02F21A437B681A6072
:101FF0007B685B683A6812891146FA6801FA02F256
:102000001A437B685A607B689B683A6892891146DC
:10201000FA68520001FA02F21A437B689A607B6800
:10202000DB683A6852891146FA68520001FA02F2F6
:102030001A437B68DA608AE07B681B68FA685200A2
:10204000022101FA02F21A437B681A607B685B681E
:102050003A6812891146FA6801FA02F21A437B685B
:102060005A607B689B683A6892891146FA68520008
:1020700001FA02F21A437B689A607B68DB683A686F
:1020800052891146FA68520001FA02F21A437B683B
:10209000DA60FB68072B16D87B681B6AFA68920027
:1020A0000F2101FA02F2D2431A407B681A627B6860
:1020B0001A6A3B685968FB689B0001FA03F31A43EC
:1020C0007B681A6242E0FB68072B3FD9FB680F2B45
:1020D0003CD87B685B6AFA68083A92000F2101FAE3
:1020E00002F2D2431A407B685A627B685A6A3B68A4
:1020F0005968FB68083B9B0001FA03F31A437B68AD
:102100005A6223E07B681B68FA685200032101FAD7
:1021100002F21A437B681A607B68DB683A6852896E
:102120001146FA68520001FA02F21A437B68DA603B
:102130000DE07B68DB683A6852891146FA68520004
:1021400001FA02F21A437B68DA6000E000BF00BFC8
:102150001437BD465DF8047B704780B483B000AF90
:1021600078600B467B8013463B803B88012B09D16E
:102170007B685B697A88012101FA02F21A437B6865
:102180005A6109E07B685B697A88012101FA02F2F1
:10219000D2431A407B685A6100BF0C37BD465DF8D8
:1021A000047B704780B483B000AF78600B467B80BF
:1021B0007B685B697A88012101FA02F25A407B68E8
:1021C0005A6100BF0C37BD465DF8047B70472DE9AE
:1021D000FF4757EC106B002F0C4619463B46BBBF20
:1021E00007F100431F4600232D230B700D9BDDF8E4
:1021F00030A0914623F02008BCBF32461646B8F105
:10220000460F05D0B8F1450F00D10134022100E09E
:10221000032103AB019302AB009347EC106B5346D1
:10222000224600F039FEB8F1470F054619D119F0E2
:10223000010F0ED000EB040900220023304639467E
:10224000FEF74AFC08B1CDF80C903022039B4B45B9
:102250001ED3039B0E9A5B1B2846136004B0BDE897
:10226000F087B8F1460F00EB0409E5D10378302B75
:102270000AD10022002330463946FEF72DFC18B95A
:10228000C4F10104CAF80040DAF800309944D3E7F9
:10229000591C03911A70D9E7F7B50029BABF494212
:1022A0002D232B2309290270437029DD0DF107032B
:1022B0001D460A271A46B1FBF7F607FB1614303401
:1022C00002F8014C0C46632C03F1FF333146F1DC7C
:1022D0003031941E03F8011C411C2346AB420AD343
:1022E0000DF109039B1AAC4288BF0023023303445B
:1022F000181A03B0F0BD13F8016B01F8016FEDE798
:10230000302330318370C170031DF1E72DE9F04FA8
:102310008DB00C46DDF8588016461F46054600F085
:10232000B9FC036804931846FDF7AAFF00230A933B
:10233000D8F800300590073323F0070303F10802B3
:1023400094F818A0D4F800B0C8F80020D3E90089A8
:1023500029F000430793CDF81880C4E91289DDE91C
:1023600006019C4B4FF0FF32FEF7E8FB70BBDDE946
:102370000601984B4FF0FF32FEF7C2FB30BB002244
:10238000002340464946FEF7B1FB10B12D2384F8E7
:102390004330914A914BBAF1470F8CBF9046984613
:1023A000032323612BF0040323604FF000090097FF
:1023B00033460BAA2146284600F0D2F9013040F0FE
:1023C0008D804FF0FF300DB0BDE8F08F42464B4698
:1023D00040464946FEF7B2FB40B14B46002BBCBF1E
:1023E0002D2384F843307E4A7E4BD4E763680AF09D
:1023F000DF0206925A1C3BD1062363604BF48062D5
:102400000023226003930AABCDE901A309AB00933B
:10241000616849EC108B0DF123032846FFF7D7FEC6
:10242000069B0999472B804629D1C81C02DB6368AB
:10243000994241DDAAF1020A5FFA8AFA013952464D
:1024400004F150000991FFF727FF0A9A1318012A97
:102450008146236102DC2268D20701D50133236162
:102460009DF82330002BA2D02D2384F843309EE723
:10247000069A472AC2D1002BC0D10123BDE7BAF189
:10248000650FDBD9BAF1660F18D1002963680BDD3F
:10249000216113B92268D00702D501330B442361AF
:1024A000A1654FF00009DBE713B92268D20701D517
:1024B0000233F4E70123F2E74FF0670A0A9B9942DF
:1024C00005DB23682161D807EAD54B1CE7E7002923
:1024D000D4BFC1F1020201221344E0E723685A0588
:1024E00007D42369424631462846B84701302BD1EC
:1024F00067E7BAF1650F40F2DD80D4E912010022EE
:102500000023FEF7E9FA002833D0374A0123314689
:102510002846B84701303FF454AFDDE90938434558
:1025200002DB2368D8070FD5DDE9042331462846AE
:10253000B84701303FF445AF4FF0000908F1FF38CC
:1025400004F11A0AC84509DC23689B0700F10381DE
:10255000E0680B9B9842B8BF184634E70123524607
:1025600031462846B84701303FF42BAF09F1010945
:10257000E8E7099B002B39DC1B4A0123314628463A
:10258000B84701303FF41DAFDDE9093959EA0303CB
:1025900002D12368D907D7D5DDE90423314628467F
:1025A000B84701303FF40DAF4FF0000A04F11A0BA9
:1025B000099B5B42534501DC4B4693E701235A4696
:1025C00031462846B84701303FF4FBAE0AF1010A14
:1025D000EEE700BFFFFFEF7F144B0008104B000831
:1025E0001C4B0008184B0008204B0008A36DDDF8B9
:1025F00028A05345A8BF5346002B994636DC4FF020
:10260000000B29EAE97904F11A02A36D0693A3EB02
:1026100009035B4531DC099B9A453ADC2368DA07FC
:1026200037D4099BAAEB0309069BAAEB0303994540
:10263000A8BF9946B9F1000F33DC4FF0000829EA32
:10264000E97904F11A0B099BAAEB0303A3EB090335
:1026500043457FF779AF01235A4631462846B847AC
:1026600001303FF4AEAE08F10108ECE742463146D6
:102670002846B8470130C2D1A3E601233146284697
:102680000692B84701303FF49CAE069A0BF1010B5D
:10269000BBE7DDE9042331462846B8470130C0D105
:1026A0008FE6069A4B46424431462846B8470130E9
:1026B000C3D186E6DDF828A0BAF1010F01DCDB0703
:1026C00036D50123424631462846B84701303FF40B
:1026D00078AEDDE9042331462846B84701303FF49F
:1026E00070AED4E91201002200230AF1FF3AFEF78E
:1026F000F3F9C0B9534608F1010231462846B847FC
:1027000001300CD15DE601235A4631462846B847D0
:1027100001303FF456AE08F10108D045F3DB4B46DB
:1027200004F15002DFE64FF0000804F11A0BF4E761
:1027300001234246E1E701234A4631462846B8478D
:1027400001303FF43EAE08F10108E3680B995B1AD3
:102750004345F0DCFCE64FF0000804F11909F4E70A
:102760002DE9F047164698468A680B69DDF82090F7
:102770009342B8BF1346336091F8432007460C4696
:102780000AB1013333602368990642BF33680233CC
:102790003360256815F0060506D104F1190AE368CF
:1027A00032689B1AAB4226DC94F843302268003B27
:1027B00018BF012392062BD404F143024146384648
:1027C000C84701301ED02368226903F00603042B9A
:1027D00002BFE5683368ED1AA3680CBF25EAE5750A
:1027E00000259342C4BF9B1AED1800261A34B54247
:1027F0001AD1002008E00123524641463846C84716
:10280000013003D14FF0FF30BDE8F0870135C6E756
:10281000E1185A1C302081F84300224494F84510F6
:1028200082F843100233C7E7012322464146384667
:10283000C8470130E6D00136D9E700002DE9FF474F
:102840000F7E0C9E782F914680460C469A4601F1E9
:10285000430207D8622F0AD8002F00F0D180582FEA
:1028600000F0B88004F1420684F842703AE0A7F123
:102870006303152BF6D801A151F823F0D5280008E1
:10288000E928000865280008652800086528000870
:1028900065280008E9280008652800086528000860
:1028A0006528000865280008E729000813290008A2
:1028B000A12900086528000865280008092A0008E1
:1028C0006528000813290008652800086528000805
:1028D000A929000833681A1D1B68326004F14206FA
:1028E00084F8423001239CE033682068191D316070
:1028F000060601D51D6803E04506FBD5B3F9005077
:10290000002D03DA2D236D4284F8433058480A2302
:1029100011E021683368080653F8045B02D44906C5
:1029200048BFADB26F2F5248336014BF0A2308234B
:10293000002184F843106668A660002E05DB21683C
:102940002E4321F0040121604BD01646B5FBF3F174
:1029500003FB1157C75D06F8017D2F46BB420D46AC
:10296000F4D9082B0BD12368DF0708D523696168E8
:102970009942DEBF302306F8013C06F1FF36921B78
:102980002261CDF800A04B4603AA21464046FFF73E
:10299000E7FE01304AD14FF0FF3004B0BDE8F087C8
:1029A000236843F0200323603248782784F8457079
:1029B000236831681F0651F8045B02D45F0648BFE4
:1029C000ADB23160D90744BF43F0200323601DB18D
:1029D0001023ADE72648E9E7236823F020032360AE
:1029E000F6E71646BDE7336825686169181D306053
:1029F0002E061B6801D5196002E06806FBD5198018
:102A0000002323611646BCE733681A1D32601E6836
:102A1000626800213046FDF7E3FB08B1801B60606F
:102A200063682361002384F84330AAE723693246B0
:102A300049464046D0470130ADD023689B0713D4A8
:102A4000E068039B9842B8BF1846A6E701233246C8
:102A500049464046D04701309DD00135E36803998F
:102A60005B1AAB42F2DCEBE7002504F11906F5E74F
:102A7000224B0008334B0008002310B50446C0E980
:102A80000033C0E90433836081814366C28183617E
:102A9000194608225C3000F0F4F80D4B63620D4BD0
:102AA000A3620D4BE3620D4B23630D4B24629C42EA
:102AB00006D003F16802944202D0D0339C4205D183
:102AC00004F15800BDE8104000F058B910BD00BF37
:102AD000FD2B00081F2C0008572C00087B2C000839
:102AE000CC020020024A0349034800F069B800BF45
:102AF00004000020354400081400002041680C4BFD
:102B0000994210B5044601D001F094FCA168094B2C
:102B1000994202D0204601F08DFCE168064B9942B3
:102B200004D02046BDE8104001F084BC10BD00BFB9
:102B3000CC020020340300209C03002010B50B4B76
:102B40000B4C0C4A1A60204600220421FFF794FF28
:102B500004F1680001220921FFF78EFF04F1D00083
:102B60000222BDE810401221FFF786BF04040020B6
:102B7000CC020020E52A0008014800F000B900BF9F
:102B80000D040020014800F0FBB800BF0D04002038
:102B900010B50446FFF7F0FF236A1BB1BDE81040F3
:102BA000FFF7F0BF044B2362044B1B68002BF5D1E9
:102BB000FFF7C4FFF2E700BFFD2A0008040400206D
:102BC0002DE9F8430746884614460026D4E90195C6
:102BD000B9F1010905D52468002CF7D13046BDE8CC
:102BE000F883AB89012B07D9B5F90E30013303D037
:102BF00029463846C04706436835E9E710B50C4614
:102C0000B1F90E1000F06CF80028ABBF636DA3891A
:102C10001B1823F48053ACBF6365A38110BD2DE95D
:102C2000F0411F468B89DB0505460C46164605D547
:102C3000B1F90E100223002200F040F8A389B4F984
:102C40000E1023F48053A38132463B462846BDE84C
:102C5000F04100F057B810B50C46B1F90E1000F075
:102C60002DF8431CA38915BF606523F4805343F4FA
:102C70008053A38118BFA38110BDB1F90E1000F0DD
:102C80000DB802440346934200D1704703F8011B7C
:102C9000F9E70000004870475001002038B5064DA4
:102CA0000023044608462B60FEF70CF9431C02D1B2
:102CB0002B6803B1236038BD0804002038B5074DE8
:102CC00004460846114600222A601A46FEF721F9FA
:102CD000431C02D12B6803B1236038BD08040020D7
:102CE00038B5074D04460846114600222A601A46A8
:102CF000FEF7AFF8431C02D12B6803B1236038BD47
:102D00000804002038B5074D044608461146002245
:102D10002A601A46FEF7BAF8431C02D12B6803B1A9
:102D2000236038BD08040020014B1868704700BFBD
:102D30001000002070B50D4D0D4C641BA410002632
:102D4000A64209D10B4D0C4C01F0C2FE641BA4102D
:102D50000026A64205D170BD55F8043B98470136C0
:102D6000EEE755F8043B98470136F2E78C4E000831
:102D70008C4E00088C4E0008904E0008704770473B
:102D800070472DE9F74F03690C69A34207467EDBC4
:102D9000013C01F11408A30000F11405009305EBB8
:102DA0008403019358F8243055F8242001339A42C3
:102DB00008EB8409B2FBF3F62ED34FF0000AC446A9
:102DC000AE46D3465CF8043B98B206FB00A0020C6A
:102DD0001B0C06FB0323DEF8002080B292B2121A0D
:102DE0005A44DEF800004FEA134A9BB2C3EB224379
:102DF00003EB104392B242EA0342E1454EF8042B42
:102E00004FEA234BDED2009BEB582BB9019B043BCE
:102E10009D421A462FD33C61384601F07FF90028C5
:102E200025DB2946002058F8042BD1F800C01FFAF2
:102E300082FE1FFA8CF3A3EB0E030344120CC2EBC9
:102E4000234202EB1C429BB243EA0243C14541F8D4
:102E5000043B4FEA2240E6D255F8242005EB8403D8
:102E600022B9043B9D421A460BD33C6101363046E1
:102E700003B0BDE8F08F1268043B002ACBD1013CBF
:102E8000C6E71268043B002AEFD1013CEAE70020C4
:102E9000EEE70000000000002DE9F04FC76997B091
:102EA0008DED040B55EC104B209E079181460C9242
:102EB00011937FB9102000F009FE0246C9F81C00EA
:102EC00020B9A94BEF21A94801F0FAFAC0E901772E
:102ED0000760C760D9F81C30196859B15A684A6050
:102EE000012393408B60484600F0E6FED9F81C3081
:102EF00000221A602B1EB9BF23F000430593002364
:102F00003360059F9A4BBCBF01223260BB4312D194
:102F1000119A42F20F731360C7F31303234300F0B7
:102F20005A85219BDFF85CA2002B00F05C850AF13A
:102F3000030300F056BD9DED047B002251EC170BFE
:102F400000238DED0A7BFDF7C7FD804658B1119A2D
:102F500001231360219B13B1219A864B1360DFF884
:102F600028A200F040BD9DED0A0B14AA15A9484601
:102F700001F084F9C7F30A560290002E78D00B9B1B
:102F8000CDF84880C3F31303DDE90A0143F07F5312
:102F900043F44013A6F2FF3619460022764BFDF7A4
:102FA0007BF96BA3D3E90023FDF72EFB6AA3D3E9DA
:102FB0000023FDF773F9044630460D46FDF7BAFAD3
:102FC00067A3D3E90023FDF71FFB02460B4620460B
:102FD0002946FDF763F904460D46FDF7C5FD0022BD
:102FE0000746002320462946FDF780FD40B13846BC
:102FF000FDF7A0FA22462B46FDF76EFD00B9013F12
:10300000162F52D85D4B03EBC703D3E90023DDE94C
:103010000A01FDF76BFD002849D0013F0023109302
:10302000149B9B1B5A1E45BFC3F101030093002351
:103030000023069254BF00930693002F39DB069BB2
:103040000D973B44069300230893079B092B63D8F5
:10305000052BC4BF043B0793079BA3F10203CCBF1E
:1030600000240124032B63D8DFE803F05254372BEC
:10307000DDE914631E4406F23243202BC1BFC3F1C5
:1030800040039F4006F2124324FA03F3D6BFC3F174
:10309000200347EA030004FA03F0FDF73BFA01229C
:1030A000A1F1F873013E129276E70123B7E7109081
:1030B000B6E7009BDB1B00937B42089300230D9334
:1030C000C3E7012309930C9B07EB030B0BF10103EF
:1030D000012B0393B8BF012306E0012309930C9B46
:1030E000002B28DD9B460393D9F81C000021042205
:1030F00002F114059D4226D94160484600F09CFD2E
:103100008246002842D11E4B024640F2AF11DAE659
:103110000023E3E70023D5E7012400230793099464
:103120004FF0FF3B0022CDF80CB012230C92DBE7EE
:1031300001230993F4E74FF0010BCDF80CB05B4687
:10314000CDF830B0D0E701315200D1E7AFF30080C5
:1031500061436F63A787D23FB3C8608B288AC63F9D
:10316000FB799F501344D33F514B0008684B000834
:103170000000F07F214B00080000F83FB84C000829
:10318000C04B00084D4B0008204B0008D9F81C30FC
:103190001860039B0E2B00F2A180002C00F09E8093
:1031A000002F33DD9C4B07F00F0203EBC20393EDBE
:1031B000007BF8058DED0E7B4FEA271416D5974B53
:1031C000DDE90A01D3E90823FDF748FBCDE9040155
:1031D00004F00F040326914D54B9DDE90E23DDE917
:1031E0000401FDF73BFBCDE9040128E00226F2E7EC
:1031F000E10708D5DDE90E01D5E90023FDF704FA62
:10320000CDE90E01013664100835E5E700F0AF8026
:103210007C42814B814D04F00F0203EBC203D3E9E2
:103220000023DDE90A01FDF7EFF9CDE904012411DE
:1032300000230226002C40F08F80002BD3D1109B5E
:10324000DDE90445002B00F09480754B00222046F8
:103250002946FDF74BFC002800F08B80039B002BD8
:1032600000F08780BBF1000F34DD20466D4B00225B
:103270002946FDF7C9F9CDE9040107F1FF38013608
:103280005C463046FDF756F9DDE90423FDF7BCF94D
:10329000654B0022FDF702F80546A1F15076002C9F
:1032A0006AD1DDE90401614B0022FCF7F5FF02461B
:1032B0000B46CDE904232A463346FDF735FC0028AA
:1032C00040F09882DDE904012A4606F10043FDF74B
:1032D0000DFC38BBDDE90A34CDE90434159B002B25
:1032E000C0F257810E2F00F354814B4B03EBC70301
:1032F00093ED007B0C9B002B8DED007B80F2E58035
:10330000039B002B00F3E1800CD1484B002251ECD1
:10331000170BFDF779F9DDE90423FDF7FBFB002826
:1033200000F06682002425460C9B56466FEA03088F
:1033300000272146484600F0BFFC002D00F0BD806C
:103340002FB1AF4203D03946484600F0B5FC2946BC
:10335000484600F0B1FCB0E0E20705D5D5E900230E
:10336000FDF752F9013601236410083562E70226A1
:1033700065E7039CB84684E7274B099903EBC40330
:1033800053E902235444002954D029490020FDF771
:1033900065FA33462A46FCF77FFFCDE90E01564613
:1033A000DDE90401FDF7E0FB0546FDF7C3F8024641
:1033B0000B46DDE90401FCF76FFF303502460B4692
:1033C000CDE9042306F8015BDDE90E23FDF78EFB52
:1033D000002872D1DDE9042311490020FCF75CFFCD
:1033E000DDE90E23FDF782FB002840F0B480A64201
:1033F0003FF470AFDDE90E010A4B0022FDF704F93E
:10340000084BCDE90E010022DDE90401FDF7FCF8CF
:10341000CDE90401C4E700BFB84C0008904C000897
:103420000000F03F0000244000001C400000144059
:103430000000E03F31462846FDF7E6F8CDE90E01F1
:1034400013945646DDE90401FDF78EFB0546FDF7B2
:1034500071F802460B46DDE90401FCF71DFF30352B
:1034600006F8015B02460B46A642CDE904234FF065
:10347000000224D1AF4BDDE90E01FCF70FFF02463D
:103480000B46DDE90401FDF74FFB002863D1DDE9C0
:103490000E23A8490020FCF7FFFE02460B46DDE99B
:1034A0000401FDF723FB00283FF414AF139E731EA5
:1034B000139316F8013C302BF8D047463BE09E4B67
:1034C000FDF7A2F8CDE90401BCE7DDE90445564665
:1034D000DDE9002320462946FDF7C0F9FDF744FB4E
:1034E0008046FDF727F8DDE90023FDF78DF8024659
:1034F0000B462046294608F13004FCF7CDFE06F8BD
:10350000014B039DA6EB0A04A54202460B4633D1AC
:10351000FCF7C4FEDDE9002304460D46FDF704FB7D
:10352000C0B9DDE9002320462946FDF7D5FA10B1E0
:1035300018F0010F0ED10299484600F0BDFB0023A0
:103540003370119B01371F60219B002B00F04B82D1
:103550001E6048E2B84633461E4613F8012D392A4C
:1035600006D19A45F8D1302208F101088AF80020E6
:103570001A7801321A70A0E76F4B0022FDF744F869
:103580000022002304460D46FDF7A6FA00289FD02E
:10359000D1E7099A002A00F0EA80079A012A00F38D
:1035A000CD80129A002A00F0C18003F23343089CB8
:1035B000009E009A1A440092069A01211A44484635
:1035C000069200F02DFC054666B1069B002B09DD36
:1035D000B342009AA8BF3346D21A0092069AF61A4E
:1035E000D31A0693089B0BB3099B002B00F0C680EF
:1035F000002C00F0C08029462246484600F0C8FC56
:10360000029A01460546484600F020FC0299804691
:10361000484600F051FB089B1B1B089300F0B1804B
:10362000089A4146484600F0B3FC02900121484602
:1036300000F0F6FB0D9B0446002B00F0D8811A46E3
:103640000146484600F0A4FC079B012B044600F30A
:103650009F80049B002B40F09780059BC3F31303CE
:10366000002B40F09380059B23F000431B0D1B05AE
:1036700033B1009B01330093069B01330693012372
:1036800008930D9B002B00F0B881236904EB8303A2
:10369000186900F079FBC0F12000069B184410F077
:1036A0001F0000F08280C0F12003042B73DD009B1B
:1036B000C0F11C0003440093069B03440644069398
:1036C000009B002B05DD02991A46484600F0BAFC23
:1036D0000290069B002B05DD21461A46484600F065
:1036E000B1FC0446109B002B61D00298214600F0EB
:1036F00015FD00285BDA002302990A22484600F0F3
:10370000FDFA099B029007F1FF38002B00F077814A
:10371000294600230A22484600F0F0FABBF1000FC8
:1037200005466FDC079B022B49DC6BE0149BC3F161
:1037300036033CE70000E03F00002440039B5C1E92
:10374000089BA34209DB1C1B039B002BBFF630AF79
:10375000009B039A9E1A00232BE7089B0D9A08945E
:10376000E31A1A44009E039B0D92002421E7089C53
:10377000009E099D28E7DDF8088051E7089A029924
:1037800050E7CDF8088051E7002379E7049B77E7FD
:103790000023089379E793D0009A1C331A440092CF
:1037A000069A1A441E4406928AE70346F4E7039BEE
:1037B000002BB84620DC9B46079B022B1EDDBBF18D
:1037C000000F7FF4B1AD21465B460522484600F06C
:1037D00095FA01460446029800F0A0FC00287FF705
:1037E000A3AD5646312306F8013B08F101089FE5D9
:1037F000039CB8462546F4E7DDF80CB0099B002B86
:1038000000F00181002E05DD29463246484600F0D1
:1038100019FC0546089B002B5CD06968484600F0FF
:103820000BFA064628B9824B024640F2EF21FFF719
:103830004ABB2A690232920005F10C010C3000F0FB
:1038400031FE01223146484600F0FCFB0AF101033B
:1038500000930AEB0B030893049B03F001032F462C
:1038600006930546009B0298214603F1FF3BFFF7B4
:1038700088FA03463033039039460298099300F0E2
:103880004DFC2A4604902146484600F063FCC2687D
:10389000099B064602BB0146029800F03FFC099BCB
:1038A0000246314648460C92099300F005FA079B00
:1038B0000C9A009E42EA0301069B1943099B0DD115
:1038C000392B27D0049A002A01DD039B31338BF872
:1038D00000302EE52846B9E70122E2E704990029E5
:1038E00004DB079801430698014320D1002AEEDD4E
:1038F000029900930122484600F0A4FB2146029061
:1039000000F00CFC0028009B02DCE0D1DA07DED5D9
:10391000392BDAD139238BF8003033461E46013B70
:1039200016F8012C392A4ED001321A7001E5002A0E
:1039300003DD392BEED00133C9E7009A089902F86C
:10394000013C8A4228D0029900230A22484600F00E
:10395000D5F9AF4202904FF000034FF00A0239460A
:10396000484607D100F0CAF907460546009B0133D7
:10397000009377E700F0C2F92946074600230A22A0
:10398000484600F0BBF90546F0E7BBF1000FCCBF9D
:103990005E460126564400270299009301224846BC
:1039A00000F050FB2146029000F0B8FB0028B4DC88
:1039B00002D1009BDB07B0D433461E4613F8012D1D
:1039C000302AFAD0B5E49A45A8D1312308F101088C
:1039D0008AF80030ADE4219BDFF858A01BB10AF152
:1039E0000803219A1360504617B0BDE8F08F079B7B
:1039F000012B7FF72EAE0D9B089301204DE6BBF106
:103A0000000F7FF7D9AE564602982146FFF7B9F965
:103A100000F1300306F8013BA6EB0A029345B4DD42
:103A2000029900230A22484600F068F90290EBE769
:103A3000C04B0008444B000838B50546002941D06A
:103A400051F8043C0C1F002BB8BFE41800F0E8F854
:103A50001D4A136833B9636014602846BDE83840D6
:103A600000F0E4B8A34208D9206821188B4201BFB6
:103A700019685B6809182160EDE71A465B680BB1AD
:103A8000A342FAD911685018A0420BD12068014412
:103A9000501883421160E0D118685B685360084495
:103AA0001060DAE702D90C232B60D6E720682118D2
:103AB0008B4204BF19685B68636004BF091821600A
:103AC0005460CAE738BD00BF14040020024B014611
:103AD000186800F025B800BF1000002070B50F4E28
:103AE0000C463168054611B900F0CCFC3060214627
:103AF000284600F0C7FC431C03D14FF0FF3420469A
:103B000070BDC41C24F00304A042F8D0211A28463A
:103B100000F0B8FC0130F2D1EFE700BF1004002044
:103B20002DE9F843CD1C25F0030508350C2D38BFD1
:103B30000C25002D064601DBA94204D90C23336075
:103B40000020BDE8F883DFF8D48000F069F8D8F8E9
:103B500000301C4644BB29463046FFF7BFFF431CDC
:103B6000044658D1D8F800402746002F43D1002CF6
:103B70004BD023683946304604EB030900F082FC41
:103B8000814542D121686D1A29463046FFF7A6FFCC
:103B900001303AD023682B442360D8F800305A68AB
:103BA00062BBC8F800700FE02268521B20D40B2AB9
:103BB00017D96119A342256018BF5960636808BF0F
:103BC000C8F8001062514B60304600F02FF804F145
:103BD0000B00231D20F00700C21A1CBF1B1AA350A4
:103BE000AFE76268A3420CBFC8F800205A60EBE759
:103BF00023466468AEE73C467F68B6E71A465B68D2
:103C0000A342FBD100235360DEE70C233360304630
:103C100000F00CF894E70560D6E700BF140400201C
:103C20000148FFF7ACB800BF0C0400200148FFF7C3
:103C3000A7B800BF0C04002070B5C66904460D4645
:103C400076B91020FFF742FF0246E06120B9184B19
:103C500018486B2100F034FCC0E901660660C660BC
:103C6000E669F36883B1E369DB6853F82500B8B906
:103C7000012101FA05F6721D9200204600F03EFC7B
:103C800060B1C0E901560EE021220421204600F077
:103C900035FCE369F060DB68002BE4D1002070BDE7
:103CA000026843F825200023C0E90333F7E700BF8B
:103CB000514B0008D14B000870B5C66905460C464B
:103CC00076B91020FFF702FF0246E86120B9094BE0
:103CD00009488F2100F0F4FBC0E901660660C66068
:103CE0003CB1EB696268DB6853F82210216043F84D
:103CF000224070BD514B0008D14B00082DE9F04126
:103D00000D6907460C461E4601F1140C0020DCF834
:103D1000003099B202FB01611E0C0B0C02FB063352
:103D200089B2013001EB034185424CF8041B4FEA94
:103D30001346ECDC0EB3A368AB4219DC616838466D
:103D40000131FFF779FF804628B902460C4B0D4838
:103D5000BA2100F0B5FB2269023204F10C01920095
:103D60000C3000F09FFB21463846FFF7A5FF444684
:103D700004EB850301355E6125612046BDE8F081D5
:103D8000C04B0008D14B0008B0F5803F034636BF5A
:103D9000030400201020B3F1807F3CBF1B020830D9
:103DA000B3F1805F3CBF1B010430B3F1804F3CBFD7
:103DB0009B000230002B05DB13F0804F00F1010067
:103DC00008BF202070470368024613F007000BD09D
:103DD000D90721D4980749BF5B089B0801201360CD
:103DE0005CBF13600220704799B209B91B0C102008
:103DF000D9B209B908301B0A190704BF1B090430DE
:103E0000990704BF9B080230D90703D45B0800F16F
:103E1000010003D0136070470020704720207047D6
:103E200010B50C460121FFF707FF024628B9054BE4
:103E3000054840F2451100F043FB01234461036152
:103E400010BD00BFC04B0008D14B00082DE9F04F5A
:103E500017460A693B699A42A8BF3B468946A4BFF8
:103E60000F4699463D69D9F810A0BB68796805EB03
:103E70000A06B34285B0B8BF0131FFF7DDFE30B9A5
:103E80000246414B41484FF4B17100F019FB00F17B
:103E9000140404EB860E23460022734520D307F159
:103EA000140809F1140108EB850501EB8A0302935C
:103EB000EB1B153B23F0030304331537BD4238BF1A
:103EC00004230193029B03918B420CD8002E03DD47
:103ED0005EF8043D002B55D0066105B0BDE8F08FBB
:103EE00043F8042BD9E7B1F800A0BAF1000F1FD0B6
:103EF000C446A14600275CF8042BD9F800301FFA0D
:103F000082FB9BB20AFB0B333B44D9F80070120CC6
:103F10003F0C0AFB027202EB13429BB243EA0243DC
:103F2000654549F8043B4FEA1247E4D8019BE75046
:103F3000039BB3F802900431B9F1000F20D023683D
:103F40004746A4464FF0000AB7F800B0BCF802207C
:103F500009FB0B2252449BB243EA02434CF8043B58
:103F600057F8043B4FEA134ABCF8003009FB0A3308
:103F700003EB1243BD424FEA134AE5D8019AA3501E
:103F800004349FE7013EA1E7C04B0008D14B000875
:103F90002DE9F843154612F0030207460E4607D0F6
:103FA000254C013A002354F82220FFF7A7FE0646CD
:103FB000AD103DD0FC697CB91020FFF787FD0246AB
:103FC000F86128B91D4B1E4840F2B31100F078FA91
:103FD000C0E901440460C460D7F81C80D8F80840E8
:103FE0004CB940F271213846FFF71AFF0023C8F898
:103FF0000800044603604FF00009EB070AD531467C
:1040000022463846FFF722FF314680463846FFF702
:1040100053FE46466D100BD0206838B92246214623
:104020003846FFF713FF2060C0F800900446E4E72D
:104030003046BDE8F88300BF844C0008514B0008AF
:10404000D14B00082DE9F0470C464968236903EB82
:104050006218A368074691464FEA621A08F1010602
:10406000B3420BDB3846FFF7E7FD054648B9024689
:10407000284B29484FF4EF7100F022FA01315B0020
:10408000EEE7002300F1140100F110021846534539
:1040900033DB20692AEAEA7A04F1140319F01F09D4
:1040A00001EB8A0103EB800C2BD0C9F1200E8A466C
:1040B0000022186800FA09F010434AF8040B53F87C
:1040C000042B9C4522FA0EF2F3D8ACEB0403153B0B
:1040D00023F00303043304F11500604588BF042373
:1040E000CA500AB108F10206013E38462E61214647
:1040F000FFF7E2FD2846BDE8F08742F8040F0133E0
:10410000C5E7043953F8042B41F8042F9C45F9D82E
:10411000EAE700BFC04B0008D14B00080A6903461C
:104120000069801A30B50ED11433143103EB8204C8
:1041300001EB820154F8045D51F8042D954203D03F
:1041400005D24FF0FF3030BDA342F3D3FBE701208F
:10415000F9E700002DE9F74F894606461146484623
:104160001446FFF7DBFF051E12D129463046FFF744
:1041700063FD024628B93F4B40F237213E4800F02C
:104180009FF90123C0E90435104603B0BDE8F08F64
:10419000BCBF4B46A1463046D9F80410BABF1C46F6
:1041A00001250025FFF748FD024618B9314B40F2C2
:1041B0004521E3E7D9F810702669C56009F11003BD
:1041C00009F1140504F1140E00F1140B05EB870836
:1041D0000EEB86060193D9464FF0000C019B5EF86A
:1041E000040B53F804AF01931FFA8AF3194683B204
:1041F000CB1A000C6344C0EB1A4000EB23409BB287
:1042000043EA0043764549F8043B4FEA204CE5D8A1
:10421000331B153B23F0030315340433A64238BF88
:1042200004231D445B441E462C4644450ED308F12E
:104230000301491B21F00301033DA84538BF0021BC
:104240000B4453F8041D91B117619DE754F8041B0A
:10425000E646080C1CFA81FC714400EB2C4089B244
:1042600041EA004146F8041B4FEA204CDDE7013FDC
:10427000E7E700BFC04B0008D14B00082DE9F7432A
:104280000F46012159EC108B1646FFF7D5FC04466A
:1042900030B90246234B244840F20F3100F010F9A8
:1042A000C9F30A55C9F313030DB143F48013019305
:1042B000B8F1000323D068460093FFF784FDDDE9E1
:1042C0000012D0B1C0F1200302FA03F30B43C24045
:1042D00063610192019BA361002B0CBF01220222AA
:1042E0002261A5B1A5F2334505443D60C0F135001A
:1042F0003060204603B0BDE8F0836161EAE701A8C1
:10430000FFF761FD019B636120300122E8E704EBC8
:104310008203A0F2324038601869FFF735FDC0EB28
:104320004210E5E7C04B0008D14B0008B1F90C2062
:104330002DE9F041160705460C4654D44B68002B76
:1043400002DC0B6C002B48DDE66A002E45D0002312
:1043500012F480522F68216A2B6030D0626DA389DD
:10436000590705D56368D21A636B0BB1236CD21A57
:104370000023E66A216A2846B047431CA38906D178
:1043800029681D292BD82A4ACA40D60727D50022DA
:104390006260D9042269226004D5421C01D12B68D5
:1043A00003B96065616B2F60B9B104F144039942B0
:1043B00002D02846FFF740FB002363630DE0012392
:1043C0002846B0470246501CC9D12B68002BC6D0E6
:1043D0001D2B01D0162B1ED12F60002022E043F0B0
:1043E00040031BB21BE00F69002FF6D093070E6845
:1043F00008BF4B690F6018BF0023A6EB07088B604E
:10440000B8F1000FE9DD216AA66A43463A4628461C
:10441000B047002808DCB4F90C3043F04003A38116
:104420004FF0FF30BDE8F0810744A8EB0008E7E754
:104430000100402038B50B6905460C4613B900252C
:10444000284638BD18B1036A0BB9FEF7A1FBB4F9D1
:104450000C30002BF3D0626ED00704D4990502D43F
:10446000A06DFEF78CFC28462146FFF75FFF636EC8
:10447000DA070546E4D4A3899B05E1D4A06DFEF7D5
:104480007FFCDDE738B5064D0023044608462B6067
:10449000FCF74CFD431C02D12B6803B1236038BDEF
:1044A000080400200A44914200F1FF3300D1704714
:1044B00010B511F8014B03F8014F9142F9D110BD2D
:1044C0001FB514461A46094B1B680546D8684CB1FF
:1044D000074B0091CDE9013406492B4600F042F824
:1044E00000F052F8044B1C46F3E700BF1000002018
:1044F000344C0008414C00086F4C000870B5A1FB1B
:10450000025434B92946FFF70BFB064628B930465A
:1045100070BD0C2202600026F9E72A462146FEF70C
:10452000B0FBF4E782B001B901A942B14BB11378F5
:104530000B601278101E18BF012002B070471046A1
:10454000FBE76FF00100F8E70346084641B1FF2A98
:1045500004D98A221A604FF0FF3070470A70012098
:10456000704700000EB403B5014603AB054853F88D
:10457000042B0068019300F037F802B05DF804EBFB
:1045800003B070471000002008B5062000F000FAC4
:104590000120FCF753FC9368013B002B10B493609F
:1045A00008DA9469A34201DB0A2903D15DF8044BC0
:1045B00000F032B91368581C1060197008465DF895
:1045C000044B7047F8B506460F461446D518AC4262
:1045D00001D1002007E014F8011B3A463046FFF7EE
:1045E000DAFF431CF3D1F8BD2DE9F04F0D469DB025
:1045F00014469846064618B1036A0BB9FEF7C8FA86
:104600006B6ED90705D4AB899A0502D4A86DFEF765
:10461000B6FBAB891B0701D52B699BB929463046F0
:1046200000F038F970B16B6EDC0704D54FF0FF3045
:104630001DB0BDE8F08FAB899805F7D4A86DFEF7E3
:104640009FFBF3E70023099320238DF82930CDF851
:104650000C803023DFF8AC818DF82A304FF001094F
:1046600023469A4613F8012B0AB1252AF9D1BAEB51
:10467000040B0BD05B46224629463046FFF7A2FFCB
:10468000013000F0A780099A5A4409929AF8003044
:10469000002B00F09F8000234FF0FF32CDE905236F
:1046A0000AF1010A049307938DF853301A93544684
:1046B000052214F8011B5348FBF792FD049AD8B960
:1046C000D10644BF20238DF85330130744BF2B235A
:1046D0008DF853309AF800302A2B15D0079A54469B
:1046E00000204FF00A0C214611F8013B303B092B0A
:1046F0004BD9B0B1079214E0A0EB080309FA03F319
:1047000013430493A246D2E7039B191D1B68039130
:10471000002BBBBF5B4242F0020207930793B8BF76
:10472000049223782E2B0AD163782A2B32D1039B53
:104730001A1D1B68039243EAE37302340593DFF802
:10474000D4A0217803225046FBF74AFD38B1049BE0
:10475000A0EB0A004022824013430134049314F872
:10476000011B29488DF828100622FBF739FD002887
:104770003FD0264B1BBB039B073323F007030833B3
:104780000393099B3B4409936AE70CFB02320C46F6
:104790000120A8E700230134059319464FF00A0CC5
:1047A000204610F8012B303A092A03D9002BC6D035
:1047B0000591C4E70CFB012104460123F0E703AB9C
:1047C00000932A46124B04A93046FDF79FFD074689
:1047D000781CD6D16B6ED90705D4AB899A0502D463
:1047E000A86DFEF7CDFAAB895B063FF51FAF0998C0
:1047F0001EE703AB00932A46054B04A93046FEF79B
:104800001DF8E4E7704C00087A4C00080D230008FE
:10481000C5450008764C0008F8B50E461446054616
:1048200018B1036A0BB9FEF7B3F9A369A360A389B2
:104830001A0701D5236943B92146284600F02AF812
:1048400018B14FF0FF373846F8BD23682269981A2F
:104850006369F6B28342374605DC21462846FFF7F6
:10486000E9FD0028EDD1A368013BA36023685A1C31
:1048700022601E706269431C9A4204D0A389DB0740
:10488000E1D50A2EDFD121462846FFF7D3FD0028C7
:10489000D9D0D6E738B5294B054618680C4618B16B
:1048A000036A0BB9FEF774F9B4F90C30190722D476
:1048B000DA0607D409222A6043F04003A3814FF0AF
:1048C000FF3033E0580712D5616B41B104F1440366
:1048D000994202D02846FFF7AFF800236363A3890B
:1048E00023F02403A3810023636023692360A38949
:1048F00043F00803A38123694BB9A38903F4207310
:10490000B3F5007F03D02146284600F083F8B4F9C0
:104910000C3013F001020AD00022A26062695242F8
:10492000A261226942B913F08000C5D138BD990750
:1049300058BF6269A260F4E70020F7E7100000208A
:104940001F2938B505460C4604D9162303604FF0DD
:10495000FF3038BDC26B12B152F821304BB9284636
:1049600000F030F8224601462846BDE8384000F005
:1049700017B8012B0AD0591C03D11623036001205C
:10498000E7E7002142F82410204698470020E0E79E
:10499000024B01461868FFF7D3BF00BF100000208C
:1049A00038B5074D00230446084611462B60FCF736
:1049B00035FA431C02D12B6803B1236038BD00BF18
:1049C00008040020FCF722BA70B50C46B1F90E10AD
:1049D000002996B015461E460DDAA38913F0800F04
:1049E0004FF0000114BF40234FF48063002031607A
:1049F0002B6016B070BD6A4600F048F80028ECDB6A
:104A0000019901F47041A1F50053594259414FF405
:104A10008063EBE78B89F7B59D0706460C4607D503
:104A200004F14703236023610123636103B0F0BDF8
:104A300001AB6A46FFF7C8FF009F0546394630467E
:104A4000FFF76EF848B9B4F90C309A05EED423F0AC
:104A5000030343F00203A381E2E7A389206043F04C
:104A60008003A381019BC4E904075BB1B4F90E1074
:104A7000304600F01DF828B1A38923F0030343F06A
:104A80000103A381A3891D43A581CFE738B5074D55
:104A900000230446084611462B60FCF71FFA431C0E
:104AA00002D12B6803B1236038BD00BF0804002089
:104AB00038B5064D0023044608462B60FCF71EFA65
:104AC000431C02D12B6803B1236038BD08040020C9
:104AD000F8B500BFF8BC08BC9E467047F8B500BFEB
:084AE000F8BC08BC9E467047BB
:104AE8006F6D61723100000048656C6C6F206672F2
:104AF8006F6D2053544D33322120284352432046B2
:104B08006978656429000000494E4600696E6600B0
:104B18004E414E006E616E00300030313233343514
:104B28003637383941424344454600303132333410
:104B3800353637383961626364656600496E66697F
:104B48006E697479004E614E005245454E54206D91
:104B5800616C6C6F6320737563636565646564007D
:104B68002F6275696C642F676E752D746F6F6C7327
:104B78002D666F722D73746D33325F31332E332E81
:104B880072656C312E32303234303932362D31374D
:104B980031352F7372632F6E65776C69622F6E657E
:104BA800776C69622F6C6962632F7374646C6962D5
:104BB8002F64746F612E630042616C6C6F632073A5
:104BC8007563636565646564002F6275696C642F3D
:104BD800676E752D746F6F6C732D666F722D73749D
:104BE8006D33325F31332E332E72656C312E323095
:104BF8003234303932362D313731352F7372632FD5
:104C08006E65776C69622F6E65776C69622F6C6967
:104C180062632F7374646C69622F6D707265632EA2
:104C280063004300504F534958002E002C206675EE
:104C38006E6374696F6E3A2000617373657274698C
:104C48006F6E2022257322206661696C65643A20A4
:104C580066696C6520222573222C206C696E65209C
:104C68002564257325730A00232D302B2000686CDA
:104C78004C006566674546470000000005000000D7
:104C8800190000007D0000000080E03779C341432F
:104C9800176E05B5B5B89346F5F93FE9034F384D9A
:104CA800321D30F94877825A3CBF737FDD4F157546
:104CB800000000000000F03F000000000000244059
:104CC80000000000000059400000000000408F4034
:104CD800000000000088C34000000000006AF8409F
:104CE8000000000080842E4100000000D0126341C3
:104CF8000000000084D797410000000065CDCD4139
:104D0800000000205FA00242000000E87648374219
:104D1800000000A2941A6D42000040E59C30A242B7
:104D28000000901EC4BCD64200003426F56B0C432C
:104D38000080E03779C3414300A0D88557347643D3
:104D480000C84E676DC1AB43003D9160E458E14334
:104D5800408CB5781DAF154450EFE2D6E41A4B44A9
:104D680092D54D06CFF08044F64AE1C7022DB544EE
:104D7800B49DD9794378EA440020202020202020BF
:104D880020202828282828202020202020202020F3
:104D98002020202020202020208810101010101003
:104DA800101010101010101010040404040404044F
:104DB80004040410101010101010414141414141E9
:104DC80001010101010101010101010101010101CB
:104DD80001010101101010101010424242424242DB
:104DE800020202020202020202020202020202029B
:104DF8000202020210101010200000000000000043
:104E0800000000000000000000000000000000009A
:104E1800000000000000000000000000000000008A
:104E2800000000000000000000000000000000007A
:104E3800000000000000000000000000000000006A
:104E4800000000000000000000000000000000005A
:104E5800000000000000000000000000000000004A
:104E6800000000000000000000000000000000003A
:0C4E78000000000000000000000000002E
:084E84005CB3FF7F0100000098
:044E8C00C501000854
:044E9000A101000874
:104E9400050000000000000003000000CC02002018
:104EA4001400002000000000CC0200203403002085
:104EB4009C0300200000000000000000000000002F
:104EC40000000000000000000000000000000000DE
:104ED40000000000000000000000000000000000CE
:104EE40000000000000000000000000000000000BE
:104EF400430000000000000000000000000000006B
:104F0400000000000000000000000000000000009D
:104F1400430000000000000000000000000000004A
:104F2400000000000000000000000000000000007D
:104F3400430000000000000000000000000000002A
:104F4400000000000000000000000000000000005D
:104F5400430000000000000000000000000000000A
:104F6400000000000000000000000000000000003D
:104F740043000000000000000000000000000000EA
:104F8400000000000000000000000000000000001D
:104F940043000000000000000000000000000000CA
:104FA40000000000000000000000000000000000FD
:104FB40043000000000000000000000000000000AA
:104FC40000000000000000000000000000000000DD
:104FD400494500082545000800000000804D0008F0
:104FE400324C00086F4C00086F4C00086F4C0008EE
:104FF4006F4C00086F4C00086F4C00086F4C0008A1
:105004006F4C00086F4C0008FFFFFFFFFFFFFFFF1E
:10501400FFFFFFFFFFFF0000010041534349490028
:10502400000000000000000000000000000000007C
:105034000000000000000000000041534349490003
:10504400000000000000000000000000000000005C
:0C50540000000000000000000000000050
:0400000508000F9947
:00000001FF
