:020000040800F2
:1000000000000120210400087104000871040008A8
:100010007104000871040008710400080000000069
:100020000000000000000000000000007104000853
:100030007104000800000000710400086510000849
:100040000000000071040008710400087104000839
:100050007104000871040008B5090008D9090008F6
:10006000FD090008210A0008450A0008710400087B
:10007000710400087104000871040008710400088C
:1000800071040008710400087104000800000000F9
:10009000000000000000000000000000690A0008E5
:1000A000710400087104000871040008710400085C
:1000B00095120008F11200083D130008050C000815
:1000C000F50B0008FF0C0008F10C0008710E000889
:1000D000CD0E0008D51300087104000800000000D0
:1000E000110B0008710400087104000800000000F2
:1000F0000000000000000000000000007104000883
:10010000000000007104000889130008290F00088E
:1001100000000000000000000000000000000000DF
:1001200071040008710400087104000871040008DB
:100130007104000800000000000000000000000042
:100140000000000000000000000000007104000832
:1001500071040008710400087104000871040008AB
:100160007104000871040008000000000000000095
:10017000000000000000000000000000000000007F
:10018000000000000000000000000000000000006F
:0401900071040008EE
:1001A00010B5054C237833B9044B13B10448AFF3B1
:1001B00000800123237010BD5000002000000000CB
:1001C0000023000808B5034B1BB103490348AFF3F4
:1001D000008008BD0000000054000020002300083B
:1001E00001F0FF01102A2BDB10F0070F08D010F8E8
:1001F000013B013A8B422DD010F0070F42B3F6D1EC
:10020000F0B441EA012141EA014122F007047FF004
:1002100000070023F0E80256083C85EA010586EA5B
:10022000010685FA47F5A3FA87F586FA47F6A5FA97
:1002300087F68EB9EED1F0BC01F0FF0102F00702A3
:1002400032B110F8013B013A83EA010313B1F8D14E
:100250000020704701387047002D06BF354603382F
:10026000073815F0010F07D1013015F4807F02BF68
:10027000013015F4C03F0130F0BC0138704700BFB9
:1002800080B400AF0B4B1B6B0A4A43F001031363AE
:10029000084B1B6B074A43F002031363054B5B6C6F
:1002A000044A43F48043536400BFBD465DF8047BB9
:1002B000704700BF0038024080B592B000AF00F038
:1002C00089FC00F0ADFDFFF7DBFF0C2387F834302D
:1002D0004FF41653BB63002387F83E30002387F8A2
:1002E0003730002387F83C30002387F83D30002367
:1002F00087F83630002387F8353000233B6407F158
:1003000034031946244801F093F8002387F830306D
:10031000002387F8313007F13003184600F032FE31
:1003200007F110031D49184601F052FB07F11003B5
:1003300000221946184801F031F9194A3B1D07CA35
:1003400083E807003B1D0ECB164800F00FF9002193
:10035000144800F0C3F800219FED130A4FF08040CD
:1003600000F096FE00F022F9786407F110037A6C31
:100370000E49184601F02CFB07F110030022194624
:10038000054801F053F900219FED090A4FF0804024
:1003900000F07EFE00BFDAE70010014018230008DD
:1003A0003C2300080000024000007042282300089F
:1003B0000000484380B586B000AF7860144A154B02
:1003C000D31A7B617B693B61134B1B68002B02D105
:1003D000114B124A1A60104B1A687B6813443A6931
:1003E0009A4207D201F016FB03460C221A604FF026
:1003F000FF3309E0084B1B68FB60074B1A687B68FA
:100400001344054A1360FB6818461837BD4680BD83
:1004100000000120000400006C000020A802002061
:100420000D488546AFF300800C480D490D4A002366
:1004300002E0D458C4500433C4188C42F9D30A4A99
:100440000A4C002301E013600432A242FBD301F006
:10045000E7FAFFF731FFFEE700000120000000206F
:10046000500000208C23000850000020A40200202F
:10047000FEE7000080B500AF144B1B680133134A40
:100480001360134B1B78DBB2002B0AD16FF07F4057
:1004900000F0B0FD0E4B01221A700E4B00221A70B4
:1004A00011E00B4B1B78DBB2012B0CD100F0BAFD35
:1004B00000F0CAFD0346084A1360054B00221A707B
:1004C000044B01221A7000BF80BD00BF7C000020D9
:1004D00070000020780000207400002080B586B0F5
:1004E00000AF78600B467B801D4B1B78002B12D130
:1004F0007B883B8101237B8100233B820123BB82DC
:1005000000237B8207F108031946786801F03CF963
:10051000134B01221A70134B00221A707B880022A1
:100520001946786801F02FFA0021B0EE000A0E4853
:1005300000F0AEFD7B8801221946786801F023FAAD
:100540000121B2EE040A084800F0A2FD7B880022D7
:100550001946786801F017FA00BF1837BD4680BD0C
:1005600080000020780000200004004080B58AB0A0
:1005700000AFF860384680E80E0007F114033A46F1
:1005800007CA83E80700012387F82030022387F891
:100590002130054B7B6207F11403184600F0FEF989
:1005A00000BF2837BD4680BD7504000880B483B005
:1005B00000AF174B1B78DBB2002B01D1002321E0E9
:1005C000144B1B6807EE903AF8EE677A9FED127AAB
:1005D00067EE877AC7ED007AD7ED007A9FED0F7A44
:1005E00027EE877AF0EE006AC7EE267AFCEEE77A0D
:1005F00017EE903A7B607B68B3F5C87F01D9002382
:100600007B607B6818460C37BD465DF8047B7047FD
:1006100078000020740000200AD7A33E287E0C3DFD
:1006200080B483B000AF0346FB80FB880F2B54D807
:1006300001A252F823F000BF7906000887060008DF
:1006400095060008A3060008B1060008BF060008CA
:10065000BF060008BF060008BF060008BF06000866
:10066000CD060008CD060008CD060008CD0600081E
:10067000CD060008CD0600081B4B1B681A4A43F044
:100680004003136029E0184B1B68174A43F08003AE
:10069000136022E0144B1B68134A43F48073136009
:1006A0001BE0114B1B68104A43F40073136014E005
:1006B0000D4B1B680C4A43F4806313600DE00A4B3A
:1006C0001B68094A43F40003136006E0074B1B68EC
:1006D000064A43F48073136000BF00BF0C37BD4669
:1006E0005DF8047B704700BF00E100E004E100E03A
:1006F00080B483B000AF0346FB80FB880F2B54D837
:1007000001A252F823F000BF49070008570700086C
:100710006507000873070008810700088F070008B5
:100720008F0700088F0700088F0700088F07000851
:100730009D0700089D0700089D0700089D07000809
:100740009D0700089D0700081B4B1B681A4A43F0D1
:100750004003136029E0184B1B68174A43F08003DD
:10076000136022E0144B1B68134A43F48073136038
:100770001BE0114B1B68104A43F40073136014E034
:100780000D4B1B680C4A43F4806313600DE00A4B69
:100790001B68094A43F40003136006E0074B1B681B
:1007A000064A43F48073136000BF00BF0C37BD4698
:1007B0005DF8047B704700BF80E100E084E100E069
:1007C00080B588B000AF78607B681B89BB8100234F
:1007D000FB810023FB827B685B6807F10C021146FA
:1007E000184600F0D1FF7B681B889B089BB2FB7703
:1007F0007B681B88DBB203F00303DBB29B00BB7793
:100800005F4AFB7F023352F82320BB7F0F2101FA9E
:1008100003F3DB4318465A49FB7F0240023341F899
:100820002320574AFB7F023352F823207B685B6802
:1008300054498B4216D07B685B6853498B420FD07A
:100840007B685B6851498B4208D07B685B68504984
:100850008B4201D1032306E00F2304E0022302E0D0
:10086000012300E00023B97F8B4018464449FB7FF9
:100870000243023341F82320464B9B687A68128872
:10088000114601228A40D2431146424A0B409360EE
:10089000404BDB687A681288114601228A40D243B5
:1008A00011463C4A0B40D3607B685B7B002B0BD12D
:1008B000384B9B687A681288114601228A4011469B
:1008C000344A0B43936029E07B685B7B012B0BD19F
:1008D000304BDB687A681288114601228A40114643
:1008E0002C4A0B43D36019E07B685B7B022B15D14C
:1008F000284B9B687A681288114601228A4011466B
:10090000244A0B439360234BDB687A6812881146B4
:1009100001228A4011461F4A0B43D3607B681B8823
:1009200019467B681B691C4A42F821307B681B7B97
:10093000012B10D1174B1B687A68128811460122CF
:100940008A401146134A0B4313607B681B88184684
:10095000FFF766FE10E00F4B1B687A68128811469D
:1009600001228A40D24311460A4A0B4013607B6839
:100970001B881846FFF7BCFE00BF2037BD4680BD70
:10098000003801400000024000040240000802401C
:10099000000C0240003C01408400002080B582B081
:1009A00000AF78607868FFF70BFF00BF0837BD46DF
:1009B00080BD000080B500AF054B5B69044A43F081
:1009C00001035361034B1B68984700BF80BD00BF04
:1009D000003C01408400002080B500AF054B5B69FE
:1009E000044A43F002035361034B5B68984700BF1E
:1009F00080BD00BF003C01408400002080B500AFF6
:100A0000054B5B69044A43F004035361034B9B6845
:100A1000984700BF80BD00BF003C0140840000201B
:100A200080B500AF054B5B69044A43F0080353618E
:100A3000034BDB68984700BF80BD00BF003C01400E
:100A40008400002080B500AF054B5B69044A43F089
:100A500010035361034B1B69984700BF80BD00BF63
:100A6000003C01408400002080B500AF264B5B694C
:100A700003F02003002B08D0234B5B69224A43F08C
:100A800020035361214B5B6998471F4B5B6903F05F
:100A90004003002B08D01C4B5B691B4A43F040030A
:100AA00053611A4B9B699847174B5B6903F08003AE
:100AB000002B08D0144B5B69134A43F08003536149
:100AC000124BDB699847104B5B6903F48073002B72
:100AD00008D00D4B5B690C4A43F4807353610B4B98
:100AE0001B6A9847084B5B6903F40073002B08D01E
:100AF000054B5B69044A43F400735361034B5B6A23
:100B0000984700BF80BD00BF003C0140840000202A
:100B100080B500AF2D4B5B6903F48063002B08D0D8
:100B20002A4B5B69294A43F480635361284B9B6AD3
:100B30009847264B5B6903F40063002B08D0234BD6
:100B40005B69224A43F400635361214BDB6A984797
:100B50001E4B5B6903F48053002B08D01B4B5B6971
:100B60001A4A43F480535361194B1B6B9847174B38
:100B70005B6903F40053002B08D0144B5B69134AE4
:100B800043F400535361124B5B6B98470F4B5B6907
:100B900003F48043002B08D00C4B5B690B4A43F4F1
:100BA000804353610A4B9B6B9847084B5B6903F486
:100BB0000043002B08D0054B5B69044A43F4004313
:100BC0005361034BDB6B984700BF80BD003C014085
:100BD0008400002080B400AF054B1B68044A43F436
:100BE0007003136000BFBD465DF8047B704700BF13
:100BF00088ED00E080B400AF00BFBD465DF8047B27
:100C00007047000080B586B000AF00237B60374B93
:100C10007B617B695B6803F400733B617B695B68A4
:100C200003F48063FB607B695B6903F01003BB60C6
:100C30003B69002B0AD0BB68002B07D07B691A6880
:100C40007B691A600021786900F060F87B695B6954
:100C500003F00203BB603B69002B12D0BB68002B82
:100C60000FD07B699B6903F00103002B09D17B69DD
:100C70005B697B607B699B697B600121786900F01F
:100C800045F87B695B6903F08003BB603B69002B1F
:100C90000FD0FB68002B0CD0BB68002B09D07B6900
:100CA0009B6903F00103002B03D10421786900F054
:100CB0002DF87B695B6903F04003BB603B69002B47
:100CC0000FD0FB68002B0CD0BB68002B09D07B69D0
:100CD0009B6903F00103002B03D10321786900F025
:100CE00015F800BF1837BD4680BD00BF0054004056
:100CF00080B400AF00BFBD465DF8047B704780B490
:100D000000AF00BFBD465DF8047B704780B584B07E
:100D100000AF78600B46FB700023FB737B683C4A96
:100D2000934202D10023FB730CE07B68394A934263
:100D300002D10123FB7305E07B68374A934201D15E
:100D40000223FB73FB78052B5DD801A252F823F038
:100D5000750D0008990D0008070E0008D50D000854
:100D6000B10D0008690D00087B689B6903F004035E
:100D7000002B41D17B689B6903F00403002B3DD01D
:100D8000FA7B264913469B001344DB000B442433B3
:100D90001B680020984731E0FA7B204913469B00EE
:100DA0001344DB000B4424331B68012098472AE0DE
:100DB0007B689B6903F00403002B21D0FA7B174961
:100DC00013469B001344DB000B4424331B680420B0
:100DD000984715E07B689B6903F00403002B11D151
:100DE000FA7B0E4913469B001344DB000B4424336B
:100DF0001B680320984705E000BF04E000BF02E045
:100E000000BF00E000BF00BF1037BD4680BD00BF7F
:100E10000054004000580040005C0040C400002026
:100E200080B400AF114B1B68104A23F48023136079
:100E30000E4B1B680D4A43F48033136000BF0B4B0D
:100E40001B6803F40033002BF9D0084B9B68074A5A
:100E500023F002039360054B9B68044A43F00103AF
:100E6000936000BFBD465DF8047B704700380240C8
:100E700080B582B000AF134B9B685B0803F00103A1
:100E8000DAB23B7962F300033B710E4B9B6803F0CF
:100E90000103DAB23B7962F341033B71094B9B6872
:100EA0001B0903F00103DAB23B7962F382033B7161
:100EB000054B1B685B693879984700BF0837BD460A
:100EC00080BD00BF003001403C01002080B582B0F1
:100ED00000AF134B9B685B0803F00103DAB23B7968
:100EE00062F300033B710E4B9B6803F00103DAB21F
:100EF0003B7962F341033B71094B9B681B0903F08B
:100F00000103DAB23B7962F382033B71054B5B6804
:100F10005B693879984700BF0837BD4680BD00BF80
:100F2000003800403C01002080B582B000AF134B78
:100F30009B685B0803F00103DAB23B7962F30003BC
:100F40003B710E4B9B6803F00103DAB23B7962F30D
:100F500041033B71094B9B681B0903F00103DAB2A3
:100F60003B7962F382033B71054B9B685B6938797F
:100F7000984700BF0837BD4680BD00BF003C004019
:100F80003C01002080B483B000AF7860184B1B6830
:100F9000174A23F0010313607B681B78012B06D1ED
:100FA000134B1B68124A43F00203136005E0104B19
:100FB0001B680F4A23F0020313607B685B78012BE8
:100FC00006D10B4B1B680A4A43F00403136009E087
:100FD0007B685B78002B05D1054B1B68044A23F026
:100FE0000403136000BF0C37BD465DF8047B7047F7
:100FF00010E000E080B483B000AF7860084A7B68FE
:101000005360074B00229A60054B1B68044A43F06B
:101010000103136000BF0C37BD465DF8047B7047C9
:1010200010E000E080B400AF064B1B68054A23F0D7
:1010300001031360034B00229A6000BFBD465DF8B8
:10104000047B704710E000E080B400AF044B5A68A6
:10105000034B9B68D31A1846BD465DF8047B704766
:1010600010E000E080B500AF074B1B68002B02D0FA
:10107000054B1B689847054B1B78012B01D1FFF7E7
:10108000D1FF00BF80BD00BF480100204C010020FF
:1010900080B489B000AFF86087ED020A0B46FB719F
:1010A000704AFB681360FB6800221A60FB6800222C
:1010B000DA60FB6800221A61FB686B4A934206D132
:1010C0006A4B5B6C694A43F00103536442E0FB687E
:1010D000B3F1804F0CD1654B1B6C644A43F00103A4
:1010E0001364634B1B68624A43F08053136031E022
:1010F000FB68604A93420CD15C4B1B6C5B4A43F02B
:10110000020313645A4B1B68594A43F0005313609F
:1011100020E0FB68584A93420CD1544B1B6C534A55
:1011200043F004031364524B1B68514A43F080435D
:1011300013600FE0FB68514A93420BD14B4B1B6C81
:101140004A4A43F0080313644D4B1B684C4A43F46E
:1011500080231360FB681B6823F00102FB681A60A0
:10116000484B3B610123BB6100237B61FB79002B72
:1011700012D13B6907EE903AF8EE677ADFED426AEA
:1011800087EEA67AD7ED027A67EE277AFCEEE77A49
:1011900017EE903AFB6111E03B6907EE903AF8EEEA
:1011A000677ADFED3A6A87EEA67AD7ED027A67EEC4
:1011B000277AFCEEE77A17EE903AFB610123BB61D8
:1011C000FA69BB69B2FBF3F37B617B69B3F5803FDE
:1011D00011D3BB694FF6FE72934208D94FF6FF73E5
:1011E000BB61FA69BB69B2FBF3F37B6104E0BB69E5
:1011F0000133BB61E4E700BFFB6800221A61FB68B2
:101200001B6843F00402FB681A60FB68DB6843F06C
:101210000102FB68DA607B695A1EFB68DA62BB690F
:101220005A1EFB689A62FB685B6943F00102FB6827
:101230005A61FB6800221A61154B01221A70FB6883
:101240001B6843F00102FB681A6000BF104B1B785B
:10125000DBB2002BFAD100BF00BF2437BD465DF8DA
:10126000047B70475001002000000140003802401C
:1012700000E100E00004004000080040000C0040D5
:1012800004E100E040787D0100007A4400247449C4
:101290005401002080B400AF124B1B681B6903F09F
:1012A0000103002B18D00F4B1B681A690D4B1B68EC
:1012B00022F001021A610C4B00221A70094B1B68C4
:1012C0001A68084B1B6822F001021A60074B1B6862
:1012D000064A43F08053136000BFBD465DF8047BAF
:1012E000704700BF500100205401002080E100E061
:1012F00080B400AF0E4B1B681A690D4B1B6822F0BF
:1013000001021A610B4B00221A700B4B1B680A4A30
:1013100043F000531360064B1B681A68044B1B68AC
:1013200022F001021A6000BFBD465DF8047B7047E1
:10133000500100205401002080E100E080B400AFA3
:101340000E4B1B681A690D4B1B6822F001021A61D3
:101350000B4B00221A700B4B1B680A4A43F0804368
:101360001360064B1B681A68044B1B6822F00102CD
:101370001A6000BFBD465DF8047B70475001002035
:101380005401002080E100E080B400AF0E4B1B68E8
:101390001A690D4B1B6822F001021A610B4B0022E7
:1013A0001A700B4B1B680A4A43F480231360064BE8
:1013B0001B681A68044B1B6822F001021A6000BF08
:1013C000BD465DF8047B70475001002054010020A9
:1013D00084E100E080B582B000AF134B1B68DB09ED
:1013E00003F00103DAB23B7962F300033B710E4B69
:1013F0001B685B0903F00103DAB23B7962F3410336
:101400003B71094B1B689B0903F00103DAB23B797E
:1014100062F382033B71054B1B68DB6838799847A0
:1014200000BF0837BD4680BD0010014058010020B4
:1014300080B582B000AF78603960514A3B68136074
:101440007B68504A934209D14F4B5B6C4E4A43F044
:10145000100353644B4800F019F91AE07B684B4ABB
:10146000934209D1484B1B6C474A43F40033136441
:10147000464800F00BF90CE07B68454A934208D1DE
:10148000414B5B6C404A43F020035364404800F0FA
:10149000FDF87B680022DA607B6800221A617B68B5
:1014A00000225A617B68DB6843F400527B68DA6093
:1014B0007B68DB683A6812781A437B68DA607B687D
:1014C000DB683A6852781A437B68DA607B68DB68CD
:1014D0003A6892781A437B68DA607B681B693A68DD
:1014E000D2781A437B681A617B689B6843F4226355
:1014F00043F00C037A6893607B68DB683A68127A81
:101500001A437B68DA607B685B693A68527A1A43EF
:101510007B685A613B689B7A002B27D07B68DB682D
:101520003A68927A1A437B68DA607B68154A93427C
:1015300006D1184B1B68174A43F0200313601BE0C9
:101540007B68124A934206D1124B1B68114A43F042
:101550004003136010E07B680D4A93420CD10E4BA0
:101560001B680D4A43F08003136005E07B68DB686D
:1015700023F4F0727B68DA6000BF0837BD4680BD97
:101580005801002000100140003802400044004093
:101590000014014004E100E008E100E080B485B0FF
:1015A00000AFF860B9601346FB71FB79012B1ED1C7
:1015B00000BFFB681B6803F08003002BF9D01A4BB7
:1015C0001B685B78002B05D1BB681B781A46FB684B
:1015D0005A6022E0BB681B781A46FB685A6000BF5D
:1015E000FB681B6803F04003002BF9D015E00E4B9D
:1015F0001B685B78002B05D1BB681B781A46FB681B
:101600005A6004E0BB681B781A46FB685A60FB68A6
:10161000DB6843F08002FB68DA6000BF1437BD4628
:101620005DF8047B704700BF5801002080B487B08C
:1016300000AFF860B9601346FB710023FB8217E02E
:1016400000BFFB681B6803F08003002BF9D0FB8A06
:10165000BA6813441B781A46FB685A6000BFFB68DF
:101660001B6803F04003002BF9D0FB8A0133FB8297
:10167000FB8ABA6813441B78002BE1D100BF00BF7E
:101680001C37BD465DF8047B7047000080B586B00E
:1016900000AF78607B68384A934224D109233B81AC
:1016A00002237B810723FB6007F1080319463348B7
:1016B00000F06AF80A233B8102237B810723FB6049
:1016C00007F1080319462D4800F05EF808233B8116
:1016D00002237B810723FB6007F108031946274893
:1016E00000F052F844E07B68254A934224D102235B
:1016F0003B8102237B810723FB6007F10803194626
:101700001E4800F041F803233B8102237B8107231D
:10171000FB6007F108031946184800F035F8042368
:101720003B8102237B810723FB6007F108031946F5
:10173000124800F029F81BE07B68124A934217D147
:101740000B233B8102237B810823FB6007F1080305
:1017500019460A4800F018F80C233B8102237B81CC
:101760000823FB6007F108031946044800F00CF851
:1017700000BF1837BD4680BD001001400000024088
:10178000004400400014014080B485B000AF786090
:1017900039603B681B88FB607B681B68FA685200F5
:1017A000032101FA02F2D2431A407B681A607B6877
:1017B0005B680121FA6801FA02F2D2431A407B68A1
:1017C0005A607B689B68FA685200032101FA02F2B2
:1017D000D2431A407B689A607B68DB68FA685200E3
:1017E000032101FA02F2D2431A407B68DA603B68B7
:1017F0005B88032B00F09C80032B00F3B080012B4F
:1018000002D0022B2ED0AAE07B681B68FA68520037
:10181000012101FA02F21A437B681A607B685B6857
:101820003A6812891146FA6801FA02F21A437B6893
:101830005A607B689B683A6892891146FA68520040
:1018400001FA02F21A437B689A607B68DB683A68A7
:1018500052891146FA68520001FA02F21A437B6873
:10186000DA608AE07B681B68FA685200022101FA9C
:1018700002F21A437B681A607B685B683A681289D7
:101880001146FA6801FA02F21A437B685A607B68D3
:101890009B683A6892891146FA68520001FA02F28E
:1018A0001A437B689A607B68DB683A685289114604
:1018B000FA68520001FA02F21A437B68DA60FB68A8
:1018C000072B16D87B681B6AFA6892000F2101FA71
:1018D00002F2D2431A407B681A627B681A6A3B683C
:1018E0005968FB689B0001FA03F31A437B681A628C
:1018F00042E0FB68072B3FD9FB680F2B3CD87B6885
:101900005B6AFA68083A92000F2101FA02F2D243A8
:101910001A407B685A627B685A6A3B685968FB6860
:10192000083B9B0001FA03F31A437B685A6223E0E9
:101930007B681B68FA685200032101FA02F21A431D
:101940007B681A607B68DB683A6852891146FA68DE
:10195000520001FA02F21A437B68DA600DE07B68FC
:10196000DB683A6852891146FA68520001FA02F2BD
:101970001A437B68DA6000E000BF00BF1437BD4641
:101980005DF8047B704780B483B000AF78600B468D
:101990007B8013463B803B88012B09D17B685B69C8
:1019A0007A88012101FA02F21A437B685A6109E040
:1019B0007B685B697A88012101FA02F2D2431A40FE
:1019C0007B685A6100BF0C37BD465DF8047B7047E9
:1019D0000EB410B59DB01FAB029006906FF00041A1
:1019E0000A48079104910A4953F8042B05910024F1
:1019F00002A9006801931B9400F08CF9029B1C70F3
:101A00001DB0BDE8104003B0704700BF00000020CB
:101A10000802FFFF014B1868704700BF000000205C
:101A200070B50D4D0D4C641BA4100026A64209D1C3
:101A30000B4D0C4C00F064FC641BA4100026A64265
:101A400005D170BD55F8043B98470136EEE755F8CF
:101A5000043B98470136F2E78423000884230008FA
:101A600084230008882300087047704738B505466E
:101A7000002941D051F8043C0C1F002BB8BFE418DA
:101A800000F0E0F81D4A136833B96360146028461B
:101A9000BDE8384000F0DCB8A34208D9206821181E
:101AA0008B4201BF19685B6809182160EDE71A468F
:101AB0005B680BB1A342FAD911685018A0420BD150
:101AC00020680144501883421160E0D118685B68B7
:101AD000536008441060DAE702D90C232B60D6E784
:101AE000206821188B4204BF19685B68636004BFDB
:101AF000091821605460CAE738BD00BFA002002069
:101B000070B50F4E0C463168054611B900F0A4FBC4
:101B100030602146284600F09FFB431C03D14FF064
:101B2000FF34204670BDC41C24F00304A042F8D04A
:101B3000211A284600F090FB0130F2D1EFE700BFF8
:101B40009C0200202DE9F843CD1C25F00305083543
:101B50000C2D38BF0C25002D064601DBA94204D907
:101B60000C2333600020BDE8F883DFF8D48000F058
:101B700069F8D8F800301C4644BB29463046FFF7C8
:101B8000BFFF431C044658D1D8F800402746002F19
:101B900043D1002C4BD023683946304604EB03096F
:101BA00000F05AFB814542D121686D1A2946304622
:101BB000FFF7A6FF01303AD023682B442360D8F802
:101BC00000305A6862BBC8F800700FE02268521BF0
:101BD00020D40B2A17D96119A342256018BF596078
:101BE000636808BFC8F8001062514B60304600F0CF
:101BF0002FF804F10B00231D20F00700C21A1CBFB0
:101C00001B1AA350AFE76268A3420CBFC8F80020BC
:101C10005A60EBE723466468AEE73C467F68B6E768
:101C20001A465B68A342FBD100235360DEE70C2316
:101C30003360304600F00CF894E70560D6E700BF4B
:101C4000A00200200148FFF70FBF00BF980200204C
:101C50000148FFF70ABF00BF980200202DE9F047B6
:101C60008E681F46BE420B6882460C4690462DD8B1
:101C7000B1F90C2012F4906F26D06569096905EB63
:101C80004505A3EB010905EBD5757B1C4B446D1095
:101C90009D4238BF1D46530527D52946FFF752FF01
:101CA000064660B321694A4600F0E6FAA38923F4A8
:101CB000906343F08003A381266165614E44A5EBE8
:101CC00009052660A5603E46BE4200D93E46206812
:101CD0003246414600F0A6FAA3689B1BA360236826
:101CE000334423600020BDE8F0872A4600F0D2FA92
:101CF00006460028E0D121695046FFF7B7FE0C23C5
:101D0000CAF80030A38943F04003A3814FF0FF30AD
:101D1000E9E700002DE9F04F98468B891B069DB03E
:101D200007460D46144610D50B6973B94021FFF7DD
:101D300009FF2860286130B90C233B604FF0FF3069
:101D40001DB0BDE8F08F40236B6100230993202371
:101D50008DF82930CDF80C803023DFF89C818DF888
:101D60002A304FF0010923469A4613F8012B0AB195
:101D7000252AF9D1BAEB040B0BD05B462246294643
:101D80003846FFF76BFF013000F0A780099A5A44EC
:101D900009929AF80030002B00F09F8000234FF04A
:101DA000FF32CDE905230AF1010A049307938DF868
:101DB00053301A935446052214F8011B4E48FEF77F
:101DC0000FFA049AD8B9D00644BF20238DF85330B7
:101DD000110744BF2B238DF853309AF800302A2B7B
:101DE00015D0079A544600204FF00A0C214611F8EE
:101DF000013B303B092B4BD9B0B1079214E0A0EB6B
:101E0000080309FA03F313430493A246D2E7039BA2
:101E1000191D1B680391002BBBBF5B4242F00202FD
:101E200007930793B8BF049223782E2B0AD16378C7
:101E30002A2B32D1039B1A1D1B68039243EAE373DA
:101E400002340593DFF8C0A0217803225046FEF744
:101E5000C7F938B1049BA0EB0A004022824013432B
:101E60000134049314F8011B24488DF8281006222D
:101E7000FEF7B6F9002836D0214B1BBB039B073376
:101E800023F0070308330393099B334409936AE75C
:101E90000CFB02320C460120A8E700230134059315
:101EA00019464FF00A0C204610F8012B303A092A47
:101EB00003D9002BC6D00591C4E70CFB01210446D1
:101EC0000123F0E703AB00932A460E4B04A93846E2
:101ED000AFF30080421C0646D6D1AB895B063FF5C6
:101EE0002DAF09982CE703AB00932A46054B04A9B4
:101EF000384600F079F8EDE748230008522300083F
:101F0000000000005D1C00084E2300082DE9F0478A
:101F1000164698468A680B69DDF820909342B8BF50
:101F20001346336091F8432007460C460AB101334B
:101F300033602368990642BF3368023333602568F3
:101F400015F0060506D104F1190AE36832689B1AF8
:101F5000AB4226DC94F843302268003B18BF0123D3
:101F600092062BD404F1430241463846C84701305B
:101F70001ED02368226903F00603042B02BFE56824
:101F80003368ED1AA3680CBF25EAE5750025934276
:101F9000C4BF9B1AED1800261A34B5421AD100208E
:101FA00008E00123524641463846C847013003D174
:101FB0004FF0FF30BDE8F0870135C6E7E1185A1C45
:101FC000302081F84300224494F8451082F84310F1
:101FD0000233C7E70123224641463846C84701304D
:101FE000E6D00136D9E700002DE9FF470F7E0C9EB1
:101FF000782F914680460C469A4601F1430207D855
:10200000622F0AD8002F00F0D180582F00F0B8803E
:1020100004F1420684F842703AE0A7F16303152BFD
:10202000F6D801A151F823F081200008952000087E
:1020300011200008112000081120000811200008BC
:102040009520000811200008112000081120000828
:102050001120000893210008BF2000084D2100082E
:102060001120000811200008B521000811200008E7
:10207000BF20000811200008112000085521000889
:1020800033681A1D1B68326004F1420684F842303E
:1020900001239CE033682068191D3160060601D5D4
:1020A0001D6803E04506FBD5B3F90050002D03DAA7
:1020B0002D236D4284F8433058480A2311E02168EB
:1020C0003368080653F8045B02D4490648BFADB232
:1020D0006F2F5248336014BF0A230823002184F86D
:1020E00043106668A660002E05DB21682E4321F0B0
:1020F000040121604BD01646B5FBF3F103FB1157E9
:10210000C75D06F8017D2F46BB420D46F4D9082B6A
:102110000BD12368DF0708D5236961689942DEBFC8
:10212000302306F8013C06F1FF36921B2261CDF800
:1021300000A04B4603AA21464046FFF7E7FE0130C8
:102140004AD14FF0FF3004B0BDE8F087236843F078
:10215000200323603248782784F84570236831686B
:102160001F0651F8045B02D45F0648BFADB2316070
:10217000D90744BF43F0200323601DB11023ADE70E
:102180002648E9E7236823F020032360F6E7164694
:10219000BDE7336825686169181D30602E061B682D
:1021A00001D5196002E06806FBD519800023236180
:1021B0001646BCE733681A1D32601E68626800214B
:1021C0003046FEF70DF808B1801B6060636823613C
:1021D000002384F84330AAE7236932464946404643
:1021E000D0470130ADD023689B0713D4E068039B30
:1021F0009842B8BF1846A6E70123324649464046F2
:10220000D04701309DD00135E36803995B1AAB429A
:10221000F2DCEBE7002504F11906F5E75923000885
:102220006A230008884210B501EB020402D98442F7
:10223000234607D8431EA14208D011F8012B03F80A
:10224000012FF8E7024401468A4200D110BD13F87D
:10225000014D02F8014DF7E738B5064D002304465D
:1022600008462B60FEF7A6F8431C02D12B6803B189
:10227000236038BD940200200A44914200F1FF33EC
:1022800000D1704710B511F8014B03F8014F91428E
:10229000F9D110BD2DE9F041074614460D4621B98C
:1022A000BDE8F0411146FFF74DBC2AB9FFF7DEFB50
:1022B00025462846BDE8F08100F01AF8844206461B
:1022C00002D8B4EB500FF4D821463846FFF73AFC59
:1022D000804608B94546ECE7B4422246294628BF65
:1022E0003246FFF7C9FF29463846FFF7BFFBF1E743
:1022F00051F8043C181F002BBCBF0B58C018704786
:10230000F8B500BFF8BC08BC9E467047F8B500BFE2
:08231000F8BC08BC9E467047B2
:102318005374617274696E672E2E2E0D0A000000C8
:1023280044697374616E63653A20256C7520636D2A
:10233800200D0A0002000000000002400200080010
:10234800232D302B2000686C4C0065666745464796
:102358000030313233343536373839414243444519
:102368004600303132333435363738396162636488
:042378006566000096
:08237C0064DEFF7F0100000098
:04238400C501000887
:04238800A1010008A7
:10238C0004000020000000005C010020C4010020BB
:10239C002C020020000000000000000000000000E3
:1023AC000000000000000000000000000000000021
:1023BC000000000000000000000000000000000011
:1023CC000000000000000000000000000000000001
:0400000508000421CA
:00000001FF
